ARM GAS  C:\Users\tomgm\AppData\Local\Temp\ccCBfpsG.s 			page 1


   1              		.cpu cortex-m0
   2              		.fpu softvfp
   3              		.eabi_attribute 20, 1
   4              		.eabi_attribute 21, 1
   5              		.eabi_attribute 23, 3
   6              		.eabi_attribute 24, 1
   7              		.eabi_attribute 25, 1
   8              		.eabi_attribute 26, 1
   9              		.eabi_attribute 30, 6
  10              		.eabi_attribute 34, 0
  11              		.eabi_attribute 18, 4
  12              		.code	16
  13              		.file	"CyDMA.c"
  14              		.text
  15              	.Ltext0:
  16              		.cfi_sections	.debug_frame
  17              		.data
  18              		.align	2
  19              		.type	CyDmaInterruptCallback, %object
  20              		.size	CyDmaInterruptCallback, 32
  21              	CyDmaInterruptCallback:
  22 0000 00000000 		.word	CyDmaDefaultInterruptCallback
  23 0004 00000000 		.word	CyDmaDefaultInterruptCallback
  24 0008 00000000 		.word	CyDmaDefaultInterruptCallback
  25 000c 00000000 		.word	CyDmaDefaultInterruptCallback
  26 0010 00000000 		.word	CyDmaDefaultInterruptCallback
  27 0014 00000000 		.word	CyDmaDefaultInterruptCallback
  28 0018 00000000 		.word	CyDmaDefaultInterruptCallback
  29 001c 00000000 		.word	CyDmaDefaultInterruptCallback
  30              		.bss
  31              		.align	2
  32              	CyDmaChannelUsedMask:
  33 0000 00000000 		.space	4
  34              		.section	.text.CyDmaEnable,"ax",%progbits
  35              		.align	2
  36              		.global	CyDmaEnable
  37              		.code	16
  38              		.thumb_func
  39              		.type	CyDmaEnable, %function
  40              	CyDmaEnable:
  41              	.LFB1:
  42              		.file 1 "Generated_Source\\PSoC4\\CyDMA.c"
   1:Generated_Source\PSoC4/CyDMA.c **** /*******************************************************************************
   2:Generated_Source\PSoC4/CyDMA.c **** * File Name: CyDMA.c
   3:Generated_Source\PSoC4/CyDMA.c **** * Version 1.10
   4:Generated_Source\PSoC4/CyDMA.c **** *
   5:Generated_Source\PSoC4/CyDMA.c **** * Description:
   6:Generated_Source\PSoC4/CyDMA.c **** *  This file contains all of the global DMA API functions.
   7:Generated_Source\PSoC4/CyDMA.c **** *
   8:Generated_Source\PSoC4/CyDMA.c **** ********************************************************************************
   9:Generated_Source\PSoC4/CyDMA.c **** * Copyright 2015, Cypress Semiconductor Corporation. All rights reserved.
  10:Generated_Source\PSoC4/CyDMA.c **** * You may use this file only in accordance with the license, terms, conditions,
  11:Generated_Source\PSoC4/CyDMA.c **** * disclaimers, and limitations in the end user license agreement accompanying
  12:Generated_Source\PSoC4/CyDMA.c **** * the software package with which this file was provided.
  13:Generated_Source\PSoC4/CyDMA.c **** *******************************************************************************/
  14:Generated_Source\PSoC4/CyDMA.c **** 
  15:Generated_Source\PSoC4/CyDMA.c **** #include "CyDMA.h"
ARM GAS  C:\Users\tomgm\AppData\Local\Temp\ccCBfpsG.s 			page 2


  16:Generated_Source\PSoC4/CyDMA.c **** #include "CyLib.h"
  17:Generated_Source\PSoC4/CyDMA.c **** 
  18:Generated_Source\PSoC4/CyDMA.c **** /* Default callback function. It is invoked if the user callback function is
  19:Generated_Source\PSoC4/CyDMA.c **** * undefined.
  20:Generated_Source\PSoC4/CyDMA.c **** */
  21:Generated_Source\PSoC4/CyDMA.c **** static void CyDmaDefaultInterruptCallback(void);
  22:Generated_Source\PSoC4/CyDMA.c **** 
  23:Generated_Source\PSoC4/CyDMA.c **** /* Array of pointers to user defined callback functions to be called
  24:Generated_Source\PSoC4/CyDMA.c **** * from DMA interrupt.
  25:Generated_Source\PSoC4/CyDMA.c **** */
  26:Generated_Source\PSoC4/CyDMA.c **** static cydma_callback_t CyDmaInterruptCallback[CYDMA_CH_NR] = {
  27:Generated_Source\PSoC4/CyDMA.c ****     &CyDmaDefaultInterruptCallback, &CyDmaDefaultInterruptCallback,
  28:Generated_Source\PSoC4/CyDMA.c ****     &CyDmaDefaultInterruptCallback, &CyDmaDefaultInterruptCallback,
  29:Generated_Source\PSoC4/CyDMA.c ****     &CyDmaDefaultInterruptCallback, &CyDmaDefaultInterruptCallback,
  30:Generated_Source\PSoC4/CyDMA.c ****     &CyDmaDefaultInterruptCallback, &CyDmaDefaultInterruptCallback
  31:Generated_Source\PSoC4/CyDMA.c **** };
  32:Generated_Source\PSoC4/CyDMA.c **** 
  33:Generated_Source\PSoC4/CyDMA.c **** /* The live status of all DMA channels usage. Bit i is associated to channel i,
  34:Generated_Source\PSoC4/CyDMA.c **** * with i = 0..CYDMA_CH_NR-1. '0' - channel is free. '1' - channel is in use.
  35:Generated_Source\PSoC4/CyDMA.c **** * All the channels allocated for DMA instances placed on a schematic are in use
  36:Generated_Source\PSoC4/CyDMA.c **** * by default and cannot be freed. 
  37:Generated_Source\PSoC4/CyDMA.c **** * DMA_CHANNELS_USED__MASK is generated during the build time and is a bit field
  38:Generated_Source\PSoC4/CyDMA.c **** * corresponding to the DMA channels placed on a design schematic.
  39:Generated_Source\PSoC4/CyDMA.c **** */
  40:Generated_Source\PSoC4/CyDMA.c **** static uint32 CyDmaChannelUsedMask = DMA_CHANNELS_USED__MASK;
  41:Generated_Source\PSoC4/CyDMA.c **** 
  42:Generated_Source\PSoC4/CyDMA.c **** 
  43:Generated_Source\PSoC4/CyDMA.c **** /*******************************************************************************
  44:Generated_Source\PSoC4/CyDMA.c **** * Function Name: CyDmaEnable
  45:Generated_Source\PSoC4/CyDMA.c **** ********************************************************************************
  46:Generated_Source\PSoC4/CyDMA.c **** *
  47:Generated_Source\PSoC4/CyDMA.c **** * Summary:
  48:Generated_Source\PSoC4/CyDMA.c **** *  Sets the default ISR to be called by the DMA interrupt and enables the DMA
  49:Generated_Source\PSoC4/CyDMA.c **** *  transfer engine.
  50:Generated_Source\PSoC4/CyDMA.c **** *
  51:Generated_Source\PSoC4/CyDMA.c **** * Parameters:
  52:Generated_Source\PSoC4/CyDMA.c **** *  None.
  53:Generated_Source\PSoC4/CyDMA.c **** *                   
  54:Generated_Source\PSoC4/CyDMA.c **** * Return:
  55:Generated_Source\PSoC4/CyDMA.c **** *  None.
  56:Generated_Source\PSoC4/CyDMA.c **** *
  57:Generated_Source\PSoC4/CyDMA.c **** * Side effect:
  58:Generated_Source\PSoC4/CyDMA.c **** *  Does not affect the channel enable status. Overrides the interrupt vector
  59:Generated_Source\PSoC4/CyDMA.c **** *  set prior the first time CyDmaEnable() is called.
  60:Generated_Source\PSoC4/CyDMA.c **** *
  61:Generated_Source\PSoC4/CyDMA.c **** *******************************************************************************/
  62:Generated_Source\PSoC4/CyDMA.c **** void CyDmaEnable(void)
  63:Generated_Source\PSoC4/CyDMA.c **** {
  43              		.loc 1 63 0
  44              		.cfi_startproc
  45 0000 80B5     		push	{r7, lr}
  46              		.cfi_def_cfa_offset 8
  47              		.cfi_offset 7, -8
  48              		.cfi_offset 14, -4
  49 0002 00AF     		add	r7, sp, #0
  50              		.cfi_def_cfa_register 7
  64:Generated_Source\PSoC4/CyDMA.c ****     static uint8 initIntrVector = 0u;
ARM GAS  C:\Users\tomgm\AppData\Local\Temp\ccCBfpsG.s 			page 3


  65:Generated_Source\PSoC4/CyDMA.c **** 
  66:Generated_Source\PSoC4/CyDMA.c ****     if(0u == initIntrVector)
  51              		.loc 1 66 0
  52 0004 0A4B     		ldr	r3, .L3
  53 0006 1B78     		ldrb	r3, [r3]
  54 0008 002B     		cmp	r3, #0
  55 000a 0AD1     		bne	.L2
  67:Generated_Source\PSoC4/CyDMA.c ****     {
  68:Generated_Source\PSoC4/CyDMA.c ****         CyDmaSetInterruptVector(&CyDmaInterrupt);
  56              		.loc 1 68 0
  57 000c 094B     		ldr	r3, .L3+4
  58 000e 181C     		mov	r0, r3
  59 0010 FFF7FEFF 		bl	CyDmaSetInterruptVector
  69:Generated_Source\PSoC4/CyDMA.c ****         CyIntSetPriority(CYDMA_INTR_NUMBER, CYDMA_INTR_PRIO);
  60              		.loc 1 69 0
  61 0014 0D20     		mov	r0, #13
  62 0016 0321     		mov	r1, #3
  63 0018 FFF7FEFF 		bl	CyIntSetPriority
  70:Generated_Source\PSoC4/CyDMA.c ****         initIntrVector = 1u;
  64              		.loc 1 70 0
  65 001c 044B     		ldr	r3, .L3
  66 001e 0122     		mov	r2, #1
  67 0020 1A70     		strb	r2, [r3]
  68              	.L2:
  71:Generated_Source\PSoC4/CyDMA.c ****     }
  72:Generated_Source\PSoC4/CyDMA.c ****     CYDMA_CTL_REG = CYDMA_ENABLED;
  69              		.loc 1 72 0
  70 0022 054B     		ldr	r3, .L3+8
  71 0024 8022     		mov	r2, #128
  72 0026 1206     		lsl	r2, r2, #24
  73 0028 1A60     		str	r2, [r3]
  73:Generated_Source\PSoC4/CyDMA.c **** }
  74              		.loc 1 73 0
  75 002a BD46     		mov	sp, r7
  76              		@ sp needed
  77 002c 80BD     		pop	{r7, pc}
  78              	.L4:
  79 002e C046     		.align	2
  80              	.L3:
  81 0030 04000000 		.word	initIntrVector.4884
  82 0034 00000000 		.word	CyDmaInterrupt
  83 0038 00101040 		.word	1074794496
  84              		.cfi_endproc
  85              	.LFE1:
  86              		.size	CyDmaEnable, .-CyDmaEnable
  87              		.section	.text.CyDmaDisable,"ax",%progbits
  88              		.align	2
  89              		.global	CyDmaDisable
  90              		.code	16
  91              		.thumb_func
  92              		.type	CyDmaDisable, %function
  93              	CyDmaDisable:
  94              	.LFB2:
  74:Generated_Source\PSoC4/CyDMA.c **** 
  75:Generated_Source\PSoC4/CyDMA.c **** 
  76:Generated_Source\PSoC4/CyDMA.c **** /*******************************************************************************
  77:Generated_Source\PSoC4/CyDMA.c **** * Function Name: CyDmaDisable
ARM GAS  C:\Users\tomgm\AppData\Local\Temp\ccCBfpsG.s 			page 4


  78:Generated_Source\PSoC4/CyDMA.c **** ********************************************************************************
  79:Generated_Source\PSoC4/CyDMA.c **** *
  80:Generated_Source\PSoC4/CyDMA.c **** * Summary:
  81:Generated_Source\PSoC4/CyDMA.c **** *  Disables the DMA transfer engine.
  82:Generated_Source\PSoC4/CyDMA.c **** *
  83:Generated_Source\PSoC4/CyDMA.c **** * Parameters:
  84:Generated_Source\PSoC4/CyDMA.c **** *  None.
  85:Generated_Source\PSoC4/CyDMA.c **** *                   
  86:Generated_Source\PSoC4/CyDMA.c **** * Return:
  87:Generated_Source\PSoC4/CyDMA.c **** *  None.
  88:Generated_Source\PSoC4/CyDMA.c **** *
  89:Generated_Source\PSoC4/CyDMA.c **** * Side effect:
  90:Generated_Source\PSoC4/CyDMA.c **** *  Does not affect the channel enable status.
  91:Generated_Source\PSoC4/CyDMA.c **** *
  92:Generated_Source\PSoC4/CyDMA.c **** *******************************************************************************/
  93:Generated_Source\PSoC4/CyDMA.c **** void CyDmaDisable(void)
  94:Generated_Source\PSoC4/CyDMA.c **** {
  95              		.loc 1 94 0
  96              		.cfi_startproc
  97 0000 80B5     		push	{r7, lr}
  98              		.cfi_def_cfa_offset 8
  99              		.cfi_offset 7, -8
 100              		.cfi_offset 14, -4
 101 0002 00AF     		add	r7, sp, #0
 102              		.cfi_def_cfa_register 7
  95:Generated_Source\PSoC4/CyDMA.c ****     CYDMA_CTL_REG = (uint32)~CYDMA_ENABLED;
 103              		.loc 1 95 0
 104 0004 024B     		ldr	r3, .L6
 105 0006 034A     		ldr	r2, .L6+4
 106 0008 1A60     		str	r2, [r3]
  96:Generated_Source\PSoC4/CyDMA.c **** }
 107              		.loc 1 96 0
 108 000a BD46     		mov	sp, r7
 109              		@ sp needed
 110 000c 80BD     		pop	{r7, pc}
 111              	.L7:
 112 000e C046     		.align	2
 113              	.L6:
 114 0010 00101040 		.word	1074794496
 115 0014 FFFFFF7F 		.word	2147483647
 116              		.cfi_endproc
 117              	.LFE2:
 118              		.size	CyDmaDisable, .-CyDmaDisable
 119              		.section	.text.CyDmaGetStatus,"ax",%progbits
 120              		.align	2
 121              		.global	CyDmaGetStatus
 122              		.code	16
 123              		.thumb_func
 124              		.type	CyDmaGetStatus, %function
 125              	CyDmaGetStatus:
 126              	.LFB3:
  97:Generated_Source\PSoC4/CyDMA.c **** 
  98:Generated_Source\PSoC4/CyDMA.c **** 
  99:Generated_Source\PSoC4/CyDMA.c **** /*******************************************************************************
 100:Generated_Source\PSoC4/CyDMA.c **** * Function Name: CyDmaGetStatus
 101:Generated_Source\PSoC4/CyDMA.c **** ********************************************************************************
 102:Generated_Source\PSoC4/CyDMA.c **** *
ARM GAS  C:\Users\tomgm\AppData\Local\Temp\ccCBfpsG.s 			page 5


 103:Generated_Source\PSoC4/CyDMA.c **** * Summary:
 104:Generated_Source\PSoC4/CyDMA.c **** *  Returns the status of the DMA transfer engine.
 105:Generated_Source\PSoC4/CyDMA.c **** *
 106:Generated_Source\PSoC4/CyDMA.c **** * Parameters:
 107:Generated_Source\PSoC4/CyDMA.c **** *  None.
 108:Generated_Source\PSoC4/CyDMA.c **** *                   
 109:Generated_Source\PSoC4/CyDMA.c **** * Return:
 110:Generated_Source\PSoC4/CyDMA.c **** *  The contents of the DMA status register. Refer to the status register bit
 111:Generated_Source\PSoC4/CyDMA.c **** *  definitions in CyDMA_P4.h or the API description in the DMA channel
 112:Generated_Source\PSoC4/CyDMA.c **** *  datasheet.
 113:Generated_Source\PSoC4/CyDMA.c **** *
 114:Generated_Source\PSoC4/CyDMA.c **** * Side effect:
 115:Generated_Source\PSoC4/CyDMA.c **** *  The series of function calls CyDmaGetActiveSrcAddress(),
 116:Generated_Source\PSoC4/CyDMA.c **** *  CyDmaGetActiveDstAddress(), CyDmaGetStatus() are not atomic, the DMA
 117:Generated_Source\PSoC4/CyDMA.c **** *  engine may have advanced after one or more of these function calls. Meaning
 118:Generated_Source\PSoC4/CyDMA.c **** *  the returns from these three functions may not be related to each other.
 119:Generated_Source\PSoC4/CyDMA.c **** *
 120:Generated_Source\PSoC4/CyDMA.c **** *******************************************************************************/
 121:Generated_Source\PSoC4/CyDMA.c **** uint32 CyDmaGetStatus(void)
 122:Generated_Source\PSoC4/CyDMA.c **** {
 127              		.loc 1 122 0
 128              		.cfi_startproc
 129 0000 80B5     		push	{r7, lr}
 130              		.cfi_def_cfa_offset 8
 131              		.cfi_offset 7, -8
 132              		.cfi_offset 14, -4
 133 0002 00AF     		add	r7, sp, #0
 134              		.cfi_def_cfa_register 7
 123:Generated_Source\PSoC4/CyDMA.c ****     return (CYDMA_STATUS_REG);
 135              		.loc 1 123 0
 136 0004 024B     		ldr	r3, .L10
 137 0006 1B68     		ldr	r3, [r3]
 124:Generated_Source\PSoC4/CyDMA.c **** }
 138              		.loc 1 124 0
 139 0008 181C     		mov	r0, r3
 140 000a BD46     		mov	sp, r7
 141              		@ sp needed
 142 000c 80BD     		pop	{r7, pc}
 143              	.L11:
 144 000e C046     		.align	2
 145              	.L10:
 146 0010 10101040 		.word	1074794512
 147              		.cfi_endproc
 148              	.LFE3:
 149              		.size	CyDmaGetStatus, .-CyDmaGetStatus
 150              		.section	.text.CyDmaGetActiveChannels,"ax",%progbits
 151              		.align	2
 152              		.global	CyDmaGetActiveChannels
 153              		.code	16
 154              		.thumb_func
 155              		.type	CyDmaGetActiveChannels, %function
 156              	CyDmaGetActiveChannels:
 157              	.LFB4:
 125:Generated_Source\PSoC4/CyDMA.c **** 
 126:Generated_Source\PSoC4/CyDMA.c **** 
 127:Generated_Source\PSoC4/CyDMA.c **** /*******************************************************************************
 128:Generated_Source\PSoC4/CyDMA.c **** * Function Name: CyDmaGetActiveChannels
ARM GAS  C:\Users\tomgm\AppData\Local\Temp\ccCBfpsG.s 			page 6


 129:Generated_Source\PSoC4/CyDMA.c **** ********************************************************************************
 130:Generated_Source\PSoC4/CyDMA.c **** *
 131:Generated_Source\PSoC4/CyDMA.c **** * Summary:
 132:Generated_Source\PSoC4/CyDMA.c **** *  Returns a bit field of all the DMA channels that are either active or
 133:Generated_Source\PSoC4/CyDMA.c **** *  pending.
 134:Generated_Source\PSoC4/CyDMA.c **** *
 135:Generated_Source\PSoC4/CyDMA.c **** * Parameters:
 136:Generated_Source\PSoC4/CyDMA.c **** *  None.
 137:Generated_Source\PSoC4/CyDMA.c **** *                   
 138:Generated_Source\PSoC4/CyDMA.c **** * Return:
 139:Generated_Source\PSoC4/CyDMA.c **** *  Bit field of active and pending channels. 
 140:Generated_Source\PSoC4/CyDMA.c **** *
 141:Generated_Source\PSoC4/CyDMA.c **** *******************************************************************************/
 142:Generated_Source\PSoC4/CyDMA.c **** uint32 CyDmaGetActiveChannels(void)
 143:Generated_Source\PSoC4/CyDMA.c **** {
 158              		.loc 1 143 0
 159              		.cfi_startproc
 160 0000 80B5     		push	{r7, lr}
 161              		.cfi_def_cfa_offset 8
 162              		.cfi_offset 7, -8
 163              		.cfi_offset 14, -4
 164 0002 00AF     		add	r7, sp, #0
 165              		.cfi_def_cfa_register 7
 144:Generated_Source\PSoC4/CyDMA.c ****     return (CYDMA_STATUS_CH_ACT_REG);
 166              		.loc 1 144 0
 167 0004 024B     		ldr	r3, .L14
 168 0006 1B68     		ldr	r3, [r3]
 145:Generated_Source\PSoC4/CyDMA.c **** }
 169              		.loc 1 145 0
 170 0008 181C     		mov	r0, r3
 171 000a BD46     		mov	sp, r7
 172              		@ sp needed
 173 000c 80BD     		pop	{r7, pc}
 174              	.L15:
 175 000e C046     		.align	2
 176              	.L14:
 177 0010 1C101040 		.word	1074794524
 178              		.cfi_endproc
 179              	.LFE4:
 180              		.size	CyDmaGetActiveChannels, .-CyDmaGetActiveChannels
 181              		.section	.text.CyDmaGetActiveSrcAddress,"ax",%progbits
 182              		.align	2
 183              		.global	CyDmaGetActiveSrcAddress
 184              		.code	16
 185              		.thumb_func
 186              		.type	CyDmaGetActiveSrcAddress, %function
 187              	CyDmaGetActiveSrcAddress:
 188              	.LFB5:
 146:Generated_Source\PSoC4/CyDMA.c **** 
 147:Generated_Source\PSoC4/CyDMA.c **** 
 148:Generated_Source\PSoC4/CyDMA.c **** /*******************************************************************************
 149:Generated_Source\PSoC4/CyDMA.c **** * Function Name: CyDmaGetActiveSrcAddress
 150:Generated_Source\PSoC4/CyDMA.c **** ********************************************************************************
 151:Generated_Source\PSoC4/CyDMA.c **** *
 152:Generated_Source\PSoC4/CyDMA.c **** * Summary:
 153:Generated_Source\PSoC4/CyDMA.c **** *  Returns the source address currently being used by the DMA transfer engine.
 154:Generated_Source\PSoC4/CyDMA.c **** *  This function can be used to debug the DMA, or observe where it is at in a
ARM GAS  C:\Users\tomgm\AppData\Local\Temp\ccCBfpsG.s 			page 7


 155:Generated_Source\PSoC4/CyDMA.c **** *  transfer. It will not be used in normal DMA operation.
 156:Generated_Source\PSoC4/CyDMA.c **** *
 157:Generated_Source\PSoC4/CyDMA.c **** * Parameters:
 158:Generated_Source\PSoC4/CyDMA.c **** *  None.
 159:Generated_Source\PSoC4/CyDMA.c **** *                   
 160:Generated_Source\PSoC4/CyDMA.c **** * Return:
 161:Generated_Source\PSoC4/CyDMA.c **** *  Source address currently being used by the DMA transfer engine.
 162:Generated_Source\PSoC4/CyDMA.c **** *
 163:Generated_Source\PSoC4/CyDMA.c **** * Side effect:
 164:Generated_Source\PSoC4/CyDMA.c **** *  The series of function calls CyDmaGetActiveSrcAddress(),
 165:Generated_Source\PSoC4/CyDMA.c **** *  CyDmaGetActiveDstAddress(), CyDmaGetStatus() are not atomic, the DMA
 166:Generated_Source\PSoC4/CyDMA.c **** *  engine may have advanced after one or more of these function calls. Meaning
 167:Generated_Source\PSoC4/CyDMA.c **** *  the returns from these three functions may not be related to each other.
 168:Generated_Source\PSoC4/CyDMA.c **** *
 169:Generated_Source\PSoC4/CyDMA.c **** *******************************************************************************/
 170:Generated_Source\PSoC4/CyDMA.c **** void * CyDmaGetActiveSrcAddress(void)
 171:Generated_Source\PSoC4/CyDMA.c **** {
 189              		.loc 1 171 0
 190              		.cfi_startproc
 191 0000 80B5     		push	{r7, lr}
 192              		.cfi_def_cfa_offset 8
 193              		.cfi_offset 7, -8
 194              		.cfi_offset 14, -4
 195 0002 00AF     		add	r7, sp, #0
 196              		.cfi_def_cfa_register 7
 172:Generated_Source\PSoC4/CyDMA.c ****     return ((void *)CYDMA_STATUS_SRC_ADDR_REG);
 197              		.loc 1 172 0
 198 0004 024B     		ldr	r3, .L18
 199 0006 1B68     		ldr	r3, [r3]
 173:Generated_Source\PSoC4/CyDMA.c **** }
 200              		.loc 1 173 0
 201 0008 181C     		mov	r0, r3
 202 000a BD46     		mov	sp, r7
 203              		@ sp needed
 204 000c 80BD     		pop	{r7, pc}
 205              	.L19:
 206 000e C046     		.align	2
 207              	.L18:
 208 0010 14101040 		.word	1074794516
 209              		.cfi_endproc
 210              	.LFE5:
 211              		.size	CyDmaGetActiveSrcAddress, .-CyDmaGetActiveSrcAddress
 212              		.section	.text.CyDmaGetActiveDstAddress,"ax",%progbits
 213              		.align	2
 214              		.global	CyDmaGetActiveDstAddress
 215              		.code	16
 216              		.thumb_func
 217              		.type	CyDmaGetActiveDstAddress, %function
 218              	CyDmaGetActiveDstAddress:
 219              	.LFB6:
 174:Generated_Source\PSoC4/CyDMA.c **** 
 175:Generated_Source\PSoC4/CyDMA.c **** 
 176:Generated_Source\PSoC4/CyDMA.c **** /*******************************************************************************
 177:Generated_Source\PSoC4/CyDMA.c **** * Function Name: CyDmaGetActiveDstAddress
 178:Generated_Source\PSoC4/CyDMA.c **** ********************************************************************************
 179:Generated_Source\PSoC4/CyDMA.c **** *
 180:Generated_Source\PSoC4/CyDMA.c **** * Summary:
ARM GAS  C:\Users\tomgm\AppData\Local\Temp\ccCBfpsG.s 			page 8


 181:Generated_Source\PSoC4/CyDMA.c **** *  Returns the destination address currently being used by the DMA transfer
 182:Generated_Source\PSoC4/CyDMA.c **** *  engine. This function can be used to debug the DMA, or observe where it is at
 183:Generated_Source\PSoC4/CyDMA.c **** *  in a transfer. It will not be used in normal DMA operation.
 184:Generated_Source\PSoC4/CyDMA.c **** *
 185:Generated_Source\PSoC4/CyDMA.c **** * Parameters:
 186:Generated_Source\PSoC4/CyDMA.c **** *  None.
 187:Generated_Source\PSoC4/CyDMA.c **** *                   
 188:Generated_Source\PSoC4/CyDMA.c **** * Return:
 189:Generated_Source\PSoC4/CyDMA.c **** *  Destination address currently being used by the DMA transfer engine.
 190:Generated_Source\PSoC4/CyDMA.c **** *
 191:Generated_Source\PSoC4/CyDMA.c **** * Side effect:
 192:Generated_Source\PSoC4/CyDMA.c **** *  The series of function calls CyDmaGetActiveSrcAddress(),
 193:Generated_Source\PSoC4/CyDMA.c **** *  CyDmaGetActiveDstAddress(), CyDmaGetStatus() are not atomic, the DMA
 194:Generated_Source\PSoC4/CyDMA.c **** *  engine may have advanced after one or more of these function calls. Meaning
 195:Generated_Source\PSoC4/CyDMA.c **** *  the returns from these three functions may not be related to each other.
 196:Generated_Source\PSoC4/CyDMA.c **** *
 197:Generated_Source\PSoC4/CyDMA.c **** *******************************************************************************/
 198:Generated_Source\PSoC4/CyDMA.c **** void * CyDmaGetActiveDstAddress(void)
 199:Generated_Source\PSoC4/CyDMA.c **** {
 220              		.loc 1 199 0
 221              		.cfi_startproc
 222 0000 80B5     		push	{r7, lr}
 223              		.cfi_def_cfa_offset 8
 224              		.cfi_offset 7, -8
 225              		.cfi_offset 14, -4
 226 0002 00AF     		add	r7, sp, #0
 227              		.cfi_def_cfa_register 7
 200:Generated_Source\PSoC4/CyDMA.c ****     return ((void *)CYDMA_STATUS_DST_ADDR_REG);
 228              		.loc 1 200 0
 229 0004 024B     		ldr	r3, .L22
 230 0006 1B68     		ldr	r3, [r3]
 201:Generated_Source\PSoC4/CyDMA.c **** }
 231              		.loc 1 201 0
 232 0008 181C     		mov	r0, r3
 233 000a BD46     		mov	sp, r7
 234              		@ sp needed
 235 000c 80BD     		pop	{r7, pc}
 236              	.L23:
 237 000e C046     		.align	2
 238              	.L22:
 239 0010 18101040 		.word	1074794520
 240              		.cfi_endproc
 241              	.LFE6:
 242              		.size	CyDmaGetActiveDstAddress, .-CyDmaGetActiveDstAddress
 243              		.section	.text.CyDmaSetInterruptVector,"ax",%progbits
 244              		.align	2
 245              		.global	CyDmaSetInterruptVector
 246              		.code	16
 247              		.thumb_func
 248              		.type	CyDmaSetInterruptVector, %function
 249              	CyDmaSetInterruptVector:
 250              	.LFB7:
 202:Generated_Source\PSoC4/CyDMA.c **** 
 203:Generated_Source\PSoC4/CyDMA.c **** 
 204:Generated_Source\PSoC4/CyDMA.c **** /*******************************************************************************
 205:Generated_Source\PSoC4/CyDMA.c **** * Function Name: CyDmaSetInterruptVector
 206:Generated_Source\PSoC4/CyDMA.c **** ********************************************************************************
ARM GAS  C:\Users\tomgm\AppData\Local\Temp\ccCBfpsG.s 			page 9


 207:Generated_Source\PSoC4/CyDMA.c **** *
 208:Generated_Source\PSoC4/CyDMA.c **** * Summary:
 209:Generated_Source\PSoC4/CyDMA.c **** *  Sets the function that will be called by the DMA interrupt. Note, calling
 210:Generated_Source\PSoC4/CyDMA.c **** *  CyDmaEnable() for the first time overrides any effect this API could have.
 211:Generated_Source\PSoC4/CyDMA.c **** *  Call CyDmaSetInterruptVector() after calling CyDmaEnable() to change
 212:Generated_Source\PSoC4/CyDMA.c **** *  the default ISR.
 213:Generated_Source\PSoC4/CyDMA.c **** *
 214:Generated_Source\PSoC4/CyDMA.c **** * Parameters:
 215:Generated_Source\PSoC4/CyDMA.c **** *  interruptVector: Address of the function that will be called by the DMA
 216:Generated_Source\PSoC4/CyDMA.c **** *                   interrupt.
 217:Generated_Source\PSoC4/CyDMA.c **** * Return:
 218:Generated_Source\PSoC4/CyDMA.c **** *  None.
 219:Generated_Source\PSoC4/CyDMA.c **** *
 220:Generated_Source\PSoC4/CyDMA.c **** * Side effect:
 221:Generated_Source\PSoC4/CyDMA.c **** *  Other components that use DMA may register their callback functions to be
 222:Generated_Source\PSoC4/CyDMA.c **** *  called from the default DMA ISR. Therefore, changing the DMA ISR to a user
 223:Generated_Source\PSoC4/CyDMA.c **** *  defined ISR using this API may prevent these other components from
 224:Generated_Source\PSoC4/CyDMA.c **** *  functioning correctly.
 225:Generated_Source\PSoC4/CyDMA.c **** *
 226:Generated_Source\PSoC4/CyDMA.c **** *******************************************************************************/
 227:Generated_Source\PSoC4/CyDMA.c **** void CyDmaSetInterruptVector(cyisraddress interruptVector)
 228:Generated_Source\PSoC4/CyDMA.c **** {
 251              		.loc 1 228 0
 252              		.cfi_startproc
 253 0000 80B5     		push	{r7, lr}
 254              		.cfi_def_cfa_offset 8
 255              		.cfi_offset 7, -8
 256              		.cfi_offset 14, -4
 257 0002 82B0     		sub	sp, sp, #8
 258              		.cfi_def_cfa_offset 16
 259 0004 00AF     		add	r7, sp, #0
 260              		.cfi_def_cfa_register 7
 261 0006 7860     		str	r0, [r7, #4]
 229:Generated_Source\PSoC4/CyDMA.c ****     (void)CyIntSetVector(CYDMA_INTR_NUMBER, interruptVector);
 262              		.loc 1 229 0
 263 0008 7B68     		ldr	r3, [r7, #4]
 264 000a 0D20     		mov	r0, #13
 265 000c 191C     		mov	r1, r3
 266 000e FFF7FEFF 		bl	CyIntSetVector
 230:Generated_Source\PSoC4/CyDMA.c **** }
 267              		.loc 1 230 0
 268 0012 BD46     		mov	sp, r7
 269 0014 02B0     		add	sp, sp, #8
 270              		@ sp needed
 271 0016 80BD     		pop	{r7, pc}
 272              		.cfi_endproc
 273              	.LFE7:
 274              		.size	CyDmaSetInterruptVector, .-CyDmaSetInterruptVector
 275              		.section	.text.CyDmaGetInterruptSource,"ax",%progbits
 276              		.align	2
 277              		.global	CyDmaGetInterruptSource
 278              		.code	16
 279              		.thumb_func
 280              		.type	CyDmaGetInterruptSource, %function
 281              	CyDmaGetInterruptSource:
 282              	.LFB8:
 231:Generated_Source\PSoC4/CyDMA.c **** 
ARM GAS  C:\Users\tomgm\AppData\Local\Temp\ccCBfpsG.s 			page 10


 232:Generated_Source\PSoC4/CyDMA.c **** 
 233:Generated_Source\PSoC4/CyDMA.c **** /*******************************************************************************
 234:Generated_Source\PSoC4/CyDMA.c **** * Function Name: CyDmaGetInterruptSource
 235:Generated_Source\PSoC4/CyDMA.c **** ********************************************************************************
 236:Generated_Source\PSoC4/CyDMA.c **** *
 237:Generated_Source\PSoC4/CyDMA.c **** * Summary:
 238:Generated_Source\PSoC4/CyDMA.c **** *  Returns the bit field of which channels generated an interrupt request.
 239:Generated_Source\PSoC4/CyDMA.c **** *
 240:Generated_Source\PSoC4/CyDMA.c **** * Parameters:
 241:Generated_Source\PSoC4/CyDMA.c **** *  None.
 242:Generated_Source\PSoC4/CyDMA.c **** *                   
 243:Generated_Source\PSoC4/CyDMA.c **** * Return:
 244:Generated_Source\PSoC4/CyDMA.c **** *  Bit filed of which channels generated an interrupt request.
 245:Generated_Source\PSoC4/CyDMA.c **** *
 246:Generated_Source\PSoC4/CyDMA.c **** *******************************************************************************/
 247:Generated_Source\PSoC4/CyDMA.c **** uint32 CyDmaGetInterruptSource(void)
 248:Generated_Source\PSoC4/CyDMA.c **** {
 283              		.loc 1 248 0
 284              		.cfi_startproc
 285 0000 80B5     		push	{r7, lr}
 286              		.cfi_def_cfa_offset 8
 287              		.cfi_offset 7, -8
 288              		.cfi_offset 14, -4
 289 0002 00AF     		add	r7, sp, #0
 290              		.cfi_def_cfa_register 7
 249:Generated_Source\PSoC4/CyDMA.c ****     return (CYDMA_INTR_REG);
 291              		.loc 1 249 0
 292 0004 024B     		ldr	r3, .L27
 293 0006 1B68     		ldr	r3, [r3]
 250:Generated_Source\PSoC4/CyDMA.c **** }
 294              		.loc 1 250 0
 295 0008 181C     		mov	r0, r3
 296 000a BD46     		mov	sp, r7
 297              		@ sp needed
 298 000c 80BD     		pop	{r7, pc}
 299              	.L28:
 300 000e C046     		.align	2
 301              	.L27:
 302 0010 F0171040 		.word	1074796528
 303              		.cfi_endproc
 304              	.LFE8:
 305              		.size	CyDmaGetInterruptSource, .-CyDmaGetInterruptSource
 306              		.section	.text.CyDmaClearInterruptSource,"ax",%progbits
 307              		.align	2
 308              		.global	CyDmaClearInterruptSource
 309              		.code	16
 310              		.thumb_func
 311              		.type	CyDmaClearInterruptSource, %function
 312              	CyDmaClearInterruptSource:
 313              	.LFB9:
 251:Generated_Source\PSoC4/CyDMA.c **** 
 252:Generated_Source\PSoC4/CyDMA.c **** 
 253:Generated_Source\PSoC4/CyDMA.c **** /*******************************************************************************
 254:Generated_Source\PSoC4/CyDMA.c **** * Function Name: CyDmaClearInterruptSource
 255:Generated_Source\PSoC4/CyDMA.c **** ********************************************************************************
 256:Generated_Source\PSoC4/CyDMA.c **** *
 257:Generated_Source\PSoC4/CyDMA.c **** * Summary:
ARM GAS  C:\Users\tomgm\AppData\Local\Temp\ccCBfpsG.s 			page 11


 258:Generated_Source\PSoC4/CyDMA.c **** *  Clears the pending interrupts.
 259:Generated_Source\PSoC4/CyDMA.c **** *
 260:Generated_Source\PSoC4/CyDMA.c **** * Parameters:
 261:Generated_Source\PSoC4/CyDMA.c **** *  interruptMask: Bit field of interrupts to clear.
 262:Generated_Source\PSoC4/CyDMA.c **** *                   
 263:Generated_Source\PSoC4/CyDMA.c **** * Return:
 264:Generated_Source\PSoC4/CyDMA.c **** *  None.
 265:Generated_Source\PSoC4/CyDMA.c **** *
 266:Generated_Source\PSoC4/CyDMA.c **** *******************************************************************************/
 267:Generated_Source\PSoC4/CyDMA.c **** void CyDmaClearInterruptSource(uint32 interruptMask)
 268:Generated_Source\PSoC4/CyDMA.c **** {
 314              		.loc 1 268 0
 315              		.cfi_startproc
 316 0000 80B5     		push	{r7, lr}
 317              		.cfi_def_cfa_offset 8
 318              		.cfi_offset 7, -8
 319              		.cfi_offset 14, -4
 320 0002 82B0     		sub	sp, sp, #8
 321              		.cfi_def_cfa_offset 16
 322 0004 00AF     		add	r7, sp, #0
 323              		.cfi_def_cfa_register 7
 324 0006 7860     		str	r0, [r7, #4]
 269:Generated_Source\PSoC4/CyDMA.c ****     CYDMA_INTR_REG = interruptMask;
 325              		.loc 1 269 0
 326 0008 024B     		ldr	r3, .L30
 327 000a 7A68     		ldr	r2, [r7, #4]
 328 000c 1A60     		str	r2, [r3]
 270:Generated_Source\PSoC4/CyDMA.c **** }
 329              		.loc 1 270 0
 330 000e BD46     		mov	sp, r7
 331 0010 02B0     		add	sp, sp, #8
 332              		@ sp needed
 333 0012 80BD     		pop	{r7, pc}
 334              	.L31:
 335              		.align	2
 336              	.L30:
 337 0014 F0171040 		.word	1074796528
 338              		.cfi_endproc
 339              	.LFE9:
 340              		.size	CyDmaClearInterruptSource, .-CyDmaClearInterruptSource
 341              		.section	.text.CyDmaSetInterruptSourceMask,"ax",%progbits
 342              		.align	2
 343              		.global	CyDmaSetInterruptSourceMask
 344              		.code	16
 345              		.thumb_func
 346              		.type	CyDmaSetInterruptSourceMask, %function
 347              	CyDmaSetInterruptSourceMask:
 348              	.LFB10:
 271:Generated_Source\PSoC4/CyDMA.c **** 
 272:Generated_Source\PSoC4/CyDMA.c **** 
 273:Generated_Source\PSoC4/CyDMA.c **** /*******************************************************************************
 274:Generated_Source\PSoC4/CyDMA.c **** * Function Name: CyDmaSetInterruptSourceMask
 275:Generated_Source\PSoC4/CyDMA.c **** ********************************************************************************
 276:Generated_Source\PSoC4/CyDMA.c **** *
 277:Generated_Source\PSoC4/CyDMA.c **** * Summary:
 278:Generated_Source\PSoC4/CyDMA.c **** *  Sets mask for interrupt source.
 279:Generated_Source\PSoC4/CyDMA.c **** *
ARM GAS  C:\Users\tomgm\AppData\Local\Temp\ccCBfpsG.s 			page 12


 280:Generated_Source\PSoC4/CyDMA.c **** * Parameters:
 281:Generated_Source\PSoC4/CyDMA.c **** *  interruptmask: Mask corresponding to interrupt bit field.
 282:Generated_Source\PSoC4/CyDMA.c **** *                   
 283:Generated_Source\PSoC4/CyDMA.c **** * Return:
 284:Generated_Source\PSoC4/CyDMA.c **** *  None.
 285:Generated_Source\PSoC4/CyDMA.c **** *
 286:Generated_Source\PSoC4/CyDMA.c **** *******************************************************************************/
 287:Generated_Source\PSoC4/CyDMA.c **** void CyDmaSetInterruptSourceMask(uint32 interruptMask)
 288:Generated_Source\PSoC4/CyDMA.c **** {
 349              		.loc 1 288 0
 350              		.cfi_startproc
 351 0000 80B5     		push	{r7, lr}
 352              		.cfi_def_cfa_offset 8
 353              		.cfi_offset 7, -8
 354              		.cfi_offset 14, -4
 355 0002 82B0     		sub	sp, sp, #8
 356              		.cfi_def_cfa_offset 16
 357 0004 00AF     		add	r7, sp, #0
 358              		.cfi_def_cfa_register 7
 359 0006 7860     		str	r0, [r7, #4]
 289:Generated_Source\PSoC4/CyDMA.c ****     CYDMA_INTR_MASK_REG = interruptMask;
 360              		.loc 1 289 0
 361 0008 024B     		ldr	r3, .L33
 362 000a 7A68     		ldr	r2, [r7, #4]
 363 000c 1A60     		str	r2, [r3]
 290:Generated_Source\PSoC4/CyDMA.c **** }
 364              		.loc 1 290 0
 365 000e BD46     		mov	sp, r7
 366 0010 02B0     		add	sp, sp, #8
 367              		@ sp needed
 368 0012 80BD     		pop	{r7, pc}
 369              	.L34:
 370              		.align	2
 371              	.L33:
 372 0014 F8171040 		.word	1074796536
 373              		.cfi_endproc
 374              	.LFE10:
 375              		.size	CyDmaSetInterruptSourceMask, .-CyDmaSetInterruptSourceMask
 376              		.section	.text.CyDmaGetInterruptSourceMask,"ax",%progbits
 377              		.align	2
 378              		.global	CyDmaGetInterruptSourceMask
 379              		.code	16
 380              		.thumb_func
 381              		.type	CyDmaGetInterruptSourceMask, %function
 382              	CyDmaGetInterruptSourceMask:
 383              	.LFB11:
 291:Generated_Source\PSoC4/CyDMA.c **** 
 292:Generated_Source\PSoC4/CyDMA.c **** 
 293:Generated_Source\PSoC4/CyDMA.c **** /*******************************************************************************
 294:Generated_Source\PSoC4/CyDMA.c **** * Function Name: CyDmaGetInterruptSourceMask
 295:Generated_Source\PSoC4/CyDMA.c **** ********************************************************************************
 296:Generated_Source\PSoC4/CyDMA.c **** *
 297:Generated_Source\PSoC4/CyDMA.c **** * Summary:
 298:Generated_Source\PSoC4/CyDMA.c **** *  Returns mask for interrupt source.
 299:Generated_Source\PSoC4/CyDMA.c **** *
 300:Generated_Source\PSoC4/CyDMA.c **** * Parameters:
 301:Generated_Source\PSoC4/CyDMA.c **** *  None.
ARM GAS  C:\Users\tomgm\AppData\Local\Temp\ccCBfpsG.s 			page 13


 302:Generated_Source\PSoC4/CyDMA.c **** *                   
 303:Generated_Source\PSoC4/CyDMA.c **** * Return:
 304:Generated_Source\PSoC4/CyDMA.c **** *  Mask corresponding to interrupt bit field.
 305:Generated_Source\PSoC4/CyDMA.c **** *
 306:Generated_Source\PSoC4/CyDMA.c **** *******************************************************************************/
 307:Generated_Source\PSoC4/CyDMA.c **** uint32 CyDmaGetInterruptSourceMask(void)
 308:Generated_Source\PSoC4/CyDMA.c **** {
 384              		.loc 1 308 0
 385              		.cfi_startproc
 386 0000 80B5     		push	{r7, lr}
 387              		.cfi_def_cfa_offset 8
 388              		.cfi_offset 7, -8
 389              		.cfi_offset 14, -4
 390 0002 00AF     		add	r7, sp, #0
 391              		.cfi_def_cfa_register 7
 309:Generated_Source\PSoC4/CyDMA.c ****     return (CYDMA_INTR_MASK_REG);
 392              		.loc 1 309 0
 393 0004 024B     		ldr	r3, .L37
 394 0006 1B68     		ldr	r3, [r3]
 310:Generated_Source\PSoC4/CyDMA.c **** }
 395              		.loc 1 310 0
 396 0008 181C     		mov	r0, r3
 397 000a BD46     		mov	sp, r7
 398              		@ sp needed
 399 000c 80BD     		pop	{r7, pc}
 400              	.L38:
 401 000e C046     		.align	2
 402              	.L37:
 403 0010 F8171040 		.word	1074796536
 404              		.cfi_endproc
 405              	.LFE11:
 406              		.size	CyDmaGetInterruptSourceMask, .-CyDmaGetInterruptSourceMask
 407              		.section	.text.CyDmaGetInterruptSourceMasked,"ax",%progbits
 408              		.align	2
 409              		.global	CyDmaGetInterruptSourceMasked
 410              		.code	16
 411              		.thumb_func
 412              		.type	CyDmaGetInterruptSourceMasked, %function
 413              	CyDmaGetInterruptSourceMasked:
 414              	.LFB12:
 311:Generated_Source\PSoC4/CyDMA.c **** 
 312:Generated_Source\PSoC4/CyDMA.c **** 
 313:Generated_Source\PSoC4/CyDMA.c **** /*******************************************************************************
 314:Generated_Source\PSoC4/CyDMA.c **** * Function Name: CyDmaGetInterruptSourceMasked
 315:Generated_Source\PSoC4/CyDMA.c **** ********************************************************************************
 316:Generated_Source\PSoC4/CyDMA.c **** *
 317:Generated_Source\PSoC4/CyDMA.c **** * Summary:
 318:Generated_Source\PSoC4/CyDMA.c **** *  Returns the bitwise AND of the interrupt source and the interrupt mask.
 319:Generated_Source\PSoC4/CyDMA.c **** *
 320:Generated_Source\PSoC4/CyDMA.c **** * Parameters:
 321:Generated_Source\PSoC4/CyDMA.c **** *  None.
 322:Generated_Source\PSoC4/CyDMA.c **** *                   
 323:Generated_Source\PSoC4/CyDMA.c **** * Return:
 324:Generated_Source\PSoC4/CyDMA.c **** *  Bitwise AND of the interrupt source and the interrupt mask.
 325:Generated_Source\PSoC4/CyDMA.c **** *
 326:Generated_Source\PSoC4/CyDMA.c **** *******************************************************************************/
 327:Generated_Source\PSoC4/CyDMA.c **** uint32 CyDmaGetInterruptSourceMasked(void)
ARM GAS  C:\Users\tomgm\AppData\Local\Temp\ccCBfpsG.s 			page 14


 328:Generated_Source\PSoC4/CyDMA.c **** {
 415              		.loc 1 328 0
 416              		.cfi_startproc
 417 0000 80B5     		push	{r7, lr}
 418              		.cfi_def_cfa_offset 8
 419              		.cfi_offset 7, -8
 420              		.cfi_offset 14, -4
 421 0002 00AF     		add	r7, sp, #0
 422              		.cfi_def_cfa_register 7
 329:Generated_Source\PSoC4/CyDMA.c ****     return (CYDMA_INTR_MASKED_REG);
 423              		.loc 1 329 0
 424 0004 024B     		ldr	r3, .L41
 425 0006 1B68     		ldr	r3, [r3]
 330:Generated_Source\PSoC4/CyDMA.c **** }
 426              		.loc 1 330 0
 427 0008 181C     		mov	r0, r3
 428 000a BD46     		mov	sp, r7
 429              		@ sp needed
 430 000c 80BD     		pop	{r7, pc}
 431              	.L42:
 432 000e C046     		.align	2
 433              	.L41:
 434 0010 FC171040 		.word	1074796540
 435              		.cfi_endproc
 436              	.LFE12:
 437              		.size	CyDmaGetInterruptSourceMasked, .-CyDmaGetInterruptSourceMasked
 438              		.section	.text.CyDmaSetInterruptCallback,"ax",%progbits
 439              		.align	2
 440              		.global	CyDmaSetInterruptCallback
 441              		.code	16
 442              		.thumb_func
 443              		.type	CyDmaSetInterruptCallback, %function
 444              	CyDmaSetInterruptCallback:
 445              	.LFB13:
 331:Generated_Source\PSoC4/CyDMA.c **** 
 332:Generated_Source\PSoC4/CyDMA.c **** 
 333:Generated_Source\PSoC4/CyDMA.c **** /*******************************************************************************
 334:Generated_Source\PSoC4/CyDMA.c **** * Function Name: CyDmaSetInterruptCallback
 335:Generated_Source\PSoC4/CyDMA.c **** ********************************************************************************
 336:Generated_Source\PSoC4/CyDMA.c **** *
 337:Generated_Source\PSoC4/CyDMA.c **** * Summary:
 338:Generated_Source\PSoC4/CyDMA.c **** *  Sets a user defined callback function to be called by the DMA interrupt. The
 339:Generated_Source\PSoC4/CyDMA.c **** *  function should contain code to process the interrupt request for the 
 340:Generated_Source\PSoC4/CyDMA.c **** *  associated DMA channel.
 341:Generated_Source\PSoC4/CyDMA.c **** *
 342:Generated_Source\PSoC4/CyDMA.c **** * Parameters:
 343:Generated_Source\PSoC4/CyDMA.c **** *  channel:  Channel used by this function.
 344:Generated_Source\PSoC4/CyDMA.c **** *  callback: Pointer to the user defined callback function.
 345:Generated_Source\PSoC4/CyDMA.c **** *
 346:Generated_Source\PSoC4/CyDMA.c **** * Return:
 347:Generated_Source\PSoC4/CyDMA.c **** *  Pointer to the function previously set for the specified channel. 
 348:Generated_Source\PSoC4/CyDMA.c **** *
 349:Generated_Source\PSoC4/CyDMA.c **** *******************************************************************************/
 350:Generated_Source\PSoC4/CyDMA.c **** cydma_callback_t CyDmaSetInterruptCallback(int32 channel, cydma_callback_t callback)
 351:Generated_Source\PSoC4/CyDMA.c **** {
 446              		.loc 1 351 0
 447              		.cfi_startproc
ARM GAS  C:\Users\tomgm\AppData\Local\Temp\ccCBfpsG.s 			page 15


 448 0000 80B5     		push	{r7, lr}
 449              		.cfi_def_cfa_offset 8
 450              		.cfi_offset 7, -8
 451              		.cfi_offset 14, -4
 452 0002 84B0     		sub	sp, sp, #16
 453              		.cfi_def_cfa_offset 24
 454 0004 00AF     		add	r7, sp, #0
 455              		.cfi_def_cfa_register 7
 456 0006 7860     		str	r0, [r7, #4]
 457 0008 3960     		str	r1, [r7]
 352:Generated_Source\PSoC4/CyDMA.c ****     cydma_callback_t prevCallback;
 353:Generated_Source\PSoC4/CyDMA.c **** 
 354:Generated_Source\PSoC4/CyDMA.c ****     CYASSERT((channel >= 0) && (channel < CYDMA_CH_NR));
 458              		.loc 1 354 0
 459 000a 7B68     		ldr	r3, [r7, #4]
 460 000c 002B     		cmp	r3, #0
 461 000e 04DB     		blt	.L44
 462              		.loc 1 354 0 is_stmt 0 discriminator 1
 463 0010 7B68     		ldr	r3, [r7, #4]
 464 0012 072B     		cmp	r3, #7
 465 0014 01DC     		bgt	.L44
 466              		.loc 1 354 0 discriminator 3
 467 0016 0123     		mov	r3, #1
 468 0018 00E0     		b	.L45
 469              	.L44:
 470              		.loc 1 354 0 discriminator 4
 471 001a 0023     		mov	r3, #0
 472              	.L45:
 473              		.loc 1 354 0 discriminator 6
 474 001c 002B     		cmp	r3, #0
 475 001e 02D1     		bne	.L46
 476              		.loc 1 354 0 discriminator 7
 477 0020 0020     		mov	r0, #0
 478 0022 FFF7FEFF 		bl	CyHalt
 479              	.L46:
 355:Generated_Source\PSoC4/CyDMA.c **** 
 356:Generated_Source\PSoC4/CyDMA.c ****     prevCallback = CyDmaInterruptCallback[channel];
 480              		.loc 1 356 0 is_stmt 1
 481 0026 074B     		ldr	r3, .L48
 482 0028 7A68     		ldr	r2, [r7, #4]
 483 002a 9200     		lsl	r2, r2, #2
 484 002c D358     		ldr	r3, [r2, r3]
 485 002e FB60     		str	r3, [r7, #12]
 357:Generated_Source\PSoC4/CyDMA.c ****     CyDmaInterruptCallback[channel] = callback;
 486              		.loc 1 357 0
 487 0030 044B     		ldr	r3, .L48
 488 0032 7A68     		ldr	r2, [r7, #4]
 489 0034 9200     		lsl	r2, r2, #2
 490 0036 3968     		ldr	r1, [r7]
 491 0038 D150     		str	r1, [r2, r3]
 358:Generated_Source\PSoC4/CyDMA.c ****     return (prevCallback);
 492              		.loc 1 358 0
 493 003a FB68     		ldr	r3, [r7, #12]
 359:Generated_Source\PSoC4/CyDMA.c **** }
 494              		.loc 1 359 0
 495 003c 181C     		mov	r0, r3
 496 003e BD46     		mov	sp, r7
ARM GAS  C:\Users\tomgm\AppData\Local\Temp\ccCBfpsG.s 			page 16


 497 0040 04B0     		add	sp, sp, #16
 498              		@ sp needed
 499 0042 80BD     		pop	{r7, pc}
 500              	.L49:
 501              		.align	2
 502              	.L48:
 503 0044 00000000 		.word	CyDmaInterruptCallback
 504              		.cfi_endproc
 505              	.LFE13:
 506              		.size	CyDmaSetInterruptCallback, .-CyDmaSetInterruptCallback
 507              		.section	.text.CyDmaGetInterruptCallback,"ax",%progbits
 508              		.align	2
 509              		.global	CyDmaGetInterruptCallback
 510              		.code	16
 511              		.thumb_func
 512              		.type	CyDmaGetInterruptCallback, %function
 513              	CyDmaGetInterruptCallback:
 514              	.LFB14:
 360:Generated_Source\PSoC4/CyDMA.c **** 
 361:Generated_Source\PSoC4/CyDMA.c **** 
 362:Generated_Source\PSoC4/CyDMA.c **** /*******************************************************************************
 363:Generated_Source\PSoC4/CyDMA.c **** * Function Name: CyDmaGetInterruptCallback
 364:Generated_Source\PSoC4/CyDMA.c **** ********************************************************************************
 365:Generated_Source\PSoC4/CyDMA.c **** *
 366:Generated_Source\PSoC4/CyDMA.c **** * Summary:
 367:Generated_Source\PSoC4/CyDMA.c **** *  Returns the pointer to the interrupt callback function for the specified DMA
 368:Generated_Source\PSoC4/CyDMA.c **** *  channel.
 369:Generated_Source\PSoC4/CyDMA.c **** *
 370:Generated_Source\PSoC4/CyDMA.c **** * Parameters:
 371:Generated_Source\PSoC4/CyDMA.c **** *  channel: Channel used by this function.
 372:Generated_Source\PSoC4/CyDMA.c **** *
 373:Generated_Source\PSoC4/CyDMA.c **** * Return:
 374:Generated_Source\PSoC4/CyDMA.c **** *  Callback function pointer for the specified channel.
 375:Generated_Source\PSoC4/CyDMA.c **** *
 376:Generated_Source\PSoC4/CyDMA.c **** *******************************************************************************/
 377:Generated_Source\PSoC4/CyDMA.c **** cydma_callback_t CyDmaGetInterruptCallback(int32 channel)
 378:Generated_Source\PSoC4/CyDMA.c **** {
 515              		.loc 1 378 0
 516              		.cfi_startproc
 517 0000 80B5     		push	{r7, lr}
 518              		.cfi_def_cfa_offset 8
 519              		.cfi_offset 7, -8
 520              		.cfi_offset 14, -4
 521 0002 82B0     		sub	sp, sp, #8
 522              		.cfi_def_cfa_offset 16
 523 0004 00AF     		add	r7, sp, #0
 524              		.cfi_def_cfa_register 7
 525 0006 7860     		str	r0, [r7, #4]
 379:Generated_Source\PSoC4/CyDMA.c ****     CYASSERT((channel >= 0) && (channel < CYDMA_CH_NR));
 526              		.loc 1 379 0
 527 0008 7B68     		ldr	r3, [r7, #4]
 528 000a 002B     		cmp	r3, #0
 529 000c 04DB     		blt	.L51
 530              		.loc 1 379 0 is_stmt 0 discriminator 1
 531 000e 7B68     		ldr	r3, [r7, #4]
 532 0010 072B     		cmp	r3, #7
 533 0012 01DC     		bgt	.L51
ARM GAS  C:\Users\tomgm\AppData\Local\Temp\ccCBfpsG.s 			page 17


 534              		.loc 1 379 0 discriminator 3
 535 0014 0123     		mov	r3, #1
 536 0016 00E0     		b	.L52
 537              	.L51:
 538              		.loc 1 379 0 discriminator 4
 539 0018 0023     		mov	r3, #0
 540              	.L52:
 541              		.loc 1 379 0 discriminator 6
 542 001a 002B     		cmp	r3, #0
 543 001c 02D1     		bne	.L53
 544              		.loc 1 379 0 discriminator 7
 545 001e 0020     		mov	r0, #0
 546 0020 FFF7FEFF 		bl	CyHalt
 547              	.L53:
 380:Generated_Source\PSoC4/CyDMA.c ****     
 381:Generated_Source\PSoC4/CyDMA.c ****     return (CyDmaInterruptCallback[channel]);
 548              		.loc 1 381 0 is_stmt 1
 549 0024 034B     		ldr	r3, .L55
 550 0026 7A68     		ldr	r2, [r7, #4]
 551 0028 9200     		lsl	r2, r2, #2
 552 002a D358     		ldr	r3, [r2, r3]
 382:Generated_Source\PSoC4/CyDMA.c **** }
 553              		.loc 1 382 0
 554 002c 181C     		mov	r0, r3
 555 002e BD46     		mov	sp, r7
 556 0030 02B0     		add	sp, sp, #8
 557              		@ sp needed
 558 0032 80BD     		pop	{r7, pc}
 559              	.L56:
 560              		.align	2
 561              	.L55:
 562 0034 00000000 		.word	CyDmaInterruptCallback
 563              		.cfi_endproc
 564              	.LFE14:
 565              		.size	CyDmaGetInterruptCallback, .-CyDmaGetInterruptCallback
 566              		.section	.text.CyDmaInterrupt,"ax",%progbits
 567              		.align	2
 568              		.global	CyDmaInterrupt
 569              		.code	16
 570              		.thumb_func
 571              		.type	CyDmaInterrupt, %function
 572              	CyDmaInterrupt:
 573              	.LFB15:
 383:Generated_Source\PSoC4/CyDMA.c **** 
 384:Generated_Source\PSoC4/CyDMA.c **** 
 385:Generated_Source\PSoC4/CyDMA.c **** /*******************************************************************************
 386:Generated_Source\PSoC4/CyDMA.c **** * Function Name: CyDmaInterrupt
 387:Generated_Source\PSoC4/CyDMA.c **** ********************************************************************************
 388:Generated_Source\PSoC4/CyDMA.c **** *
 389:Generated_Source\PSoC4/CyDMA.c **** * Summary:
 390:Generated_Source\PSoC4/CyDMA.c **** *  The default ISR for DMA interrupts. The handler checks which DMA channel has
 391:Generated_Source\PSoC4/CyDMA.c **** *  triggered the interrupt and calls the user defined callback function.
 392:Generated_Source\PSoC4/CyDMA.c **** *  The callback function is set using CyDmaSetInteruptCallback() API.
 393:Generated_Source\PSoC4/CyDMA.c **** *
 394:Generated_Source\PSoC4/CyDMA.c **** * Parameters:
 395:Generated_Source\PSoC4/CyDMA.c **** *  None.
 396:Generated_Source\PSoC4/CyDMA.c **** *
ARM GAS  C:\Users\tomgm\AppData\Local\Temp\ccCBfpsG.s 			page 18


 397:Generated_Source\PSoC4/CyDMA.c **** * Return:
 398:Generated_Source\PSoC4/CyDMA.c **** *  None.
 399:Generated_Source\PSoC4/CyDMA.c **** *
 400:Generated_Source\PSoC4/CyDMA.c **** * Side Effects:
 401:Generated_Source\PSoC4/CyDMA.c **** *  This function clears the pending interrupts.
 402:Generated_Source\PSoC4/CyDMA.c **** *
 403:Generated_Source\PSoC4/CyDMA.c **** *******************************************************************************/
 404:Generated_Source\PSoC4/CyDMA.c **** CY_ISR(CyDmaInterrupt)
 405:Generated_Source\PSoC4/CyDMA.c **** {
 574              		.loc 1 405 0
 575              		.cfi_startproc
 576 0000 80B5     		push	{r7, lr}
 577              		.cfi_def_cfa_offset 8
 578              		.cfi_offset 7, -8
 579              		.cfi_offset 14, -4
 580 0002 82B0     		sub	sp, sp, #8
 581              		.cfi_def_cfa_offset 16
 582 0004 00AF     		add	r7, sp, #0
 583              		.cfi_def_cfa_register 7
 406:Generated_Source\PSoC4/CyDMA.c ****     uint32 intr;
 407:Generated_Source\PSoC4/CyDMA.c ****     uint32 cbIdx = 0u;
 584              		.loc 1 407 0
 585 0006 0023     		mov	r3, #0
 586 0008 3B60     		str	r3, [r7]
 408:Generated_Source\PSoC4/CyDMA.c **** 
 409:Generated_Source\PSoC4/CyDMA.c ****     /* Get interrupt source. */
 410:Generated_Source\PSoC4/CyDMA.c ****     intr = CYDMA_INTR_MASKED_REG;
 587              		.loc 1 410 0
 588 000a 0E4B     		ldr	r3, .L61
 589 000c 1B68     		ldr	r3, [r3]
 590 000e 7B60     		str	r3, [r7, #4]
 411:Generated_Source\PSoC4/CyDMA.c **** 
 412:Generated_Source\PSoC4/CyDMA.c ****     /* Clear pending interrupts. */
 413:Generated_Source\PSoC4/CyDMA.c ****     CYDMA_INTR_REG = intr;
 591              		.loc 1 413 0
 592 0010 0D4B     		ldr	r3, .L61+4
 593 0012 7A68     		ldr	r2, [r7, #4]
 594 0014 1A60     		str	r2, [r3]
 414:Generated_Source\PSoC4/CyDMA.c **** 
 415:Generated_Source\PSoC4/CyDMA.c ****     /* Call user defined callback functions for triggered interrupt sources. */
 416:Generated_Source\PSoC4/CyDMA.c ****     while(0u != intr)
 595              		.loc 1 416 0
 596 0016 0EE0     		b	.L58
 597              	.L60:
 417:Generated_Source\PSoC4/CyDMA.c ****     {
 418:Generated_Source\PSoC4/CyDMA.c ****         if(0u != (intr & 0x1u))
 598              		.loc 1 418 0
 599 0018 7B68     		ldr	r3, [r7, #4]
 600 001a 0122     		mov	r2, #1
 601 001c 1340     		and	r3, r2
 602 001e 04D0     		beq	.L59
 419:Generated_Source\PSoC4/CyDMA.c ****         {
 420:Generated_Source\PSoC4/CyDMA.c ****             CyDmaInterruptCallback[cbIdx]();
 603              		.loc 1 420 0
 604 0020 0A4B     		ldr	r3, .L61+8
 605 0022 3A68     		ldr	r2, [r7]
 606 0024 9200     		lsl	r2, r2, #2
ARM GAS  C:\Users\tomgm\AppData\Local\Temp\ccCBfpsG.s 			page 19


 607 0026 D358     		ldr	r3, [r2, r3]
 608 0028 9847     		blx	r3
 609              	.L59:
 421:Generated_Source\PSoC4/CyDMA.c ****         }
 422:Generated_Source\PSoC4/CyDMA.c ****         intr >>= 1;
 610              		.loc 1 422 0
 611 002a 7B68     		ldr	r3, [r7, #4]
 612 002c 5B08     		lsr	r3, r3, #1
 613 002e 7B60     		str	r3, [r7, #4]
 423:Generated_Source\PSoC4/CyDMA.c ****         ++cbIdx;
 614              		.loc 1 423 0
 615 0030 3B68     		ldr	r3, [r7]
 616 0032 0133     		add	r3, r3, #1
 617 0034 3B60     		str	r3, [r7]
 618              	.L58:
 416:Generated_Source\PSoC4/CyDMA.c ****     {
 619              		.loc 1 416 0
 620 0036 7B68     		ldr	r3, [r7, #4]
 621 0038 002B     		cmp	r3, #0
 622 003a EDD1     		bne	.L60
 424:Generated_Source\PSoC4/CyDMA.c ****     }
 425:Generated_Source\PSoC4/CyDMA.c **** }
 623              		.loc 1 425 0
 624 003c BD46     		mov	sp, r7
 625 003e 02B0     		add	sp, sp, #8
 626              		@ sp needed
 627 0040 80BD     		pop	{r7, pc}
 628              	.L62:
 629 0042 C046     		.align	2
 630              	.L61:
 631 0044 FC171040 		.word	1074796540
 632 0048 F0171040 		.word	1074796528
 633 004c 00000000 		.word	CyDmaInterruptCallback
 634              		.cfi_endproc
 635              	.LFE15:
 636              		.size	CyDmaInterrupt, .-CyDmaInterrupt
 637              		.section	.text.CyDmaDefaultInterruptCallback,"ax",%progbits
 638              		.align	2
 639              		.code	16
 640              		.thumb_func
 641              		.type	CyDmaDefaultInterruptCallback, %function
 642              	CyDmaDefaultInterruptCallback:
 643              	.LFB16:
 426:Generated_Source\PSoC4/CyDMA.c **** 
 427:Generated_Source\PSoC4/CyDMA.c **** 
 428:Generated_Source\PSoC4/CyDMA.c **** /*******************************************************************************
 429:Generated_Source\PSoC4/CyDMA.c **** * Function Name: CyDmaDefaultInterruptCallback
 430:Generated_Source\PSoC4/CyDMA.c **** ********************************************************************************
 431:Generated_Source\PSoC4/CyDMA.c **** *
 432:Generated_Source\PSoC4/CyDMA.c **** * Summary:
 433:Generated_Source\PSoC4/CyDMA.c **** *  This function is invoked when the user defined callback function is undefined
 434:Generated_Source\PSoC4/CyDMA.c **** *  for the interrupt source.
 435:Generated_Source\PSoC4/CyDMA.c **** *
 436:Generated_Source\PSoC4/CyDMA.c **** * Parameters:
 437:Generated_Source\PSoC4/CyDMA.c **** *  None.
 438:Generated_Source\PSoC4/CyDMA.c **** *
 439:Generated_Source\PSoC4/CyDMA.c **** * Return:
ARM GAS  C:\Users\tomgm\AppData\Local\Temp\ccCBfpsG.s 			page 20


 440:Generated_Source\PSoC4/CyDMA.c **** *  None.
 441:Generated_Source\PSoC4/CyDMA.c **** *
 442:Generated_Source\PSoC4/CyDMA.c **** *******************************************************************************/
 443:Generated_Source\PSoC4/CyDMA.c **** static void CyDmaDefaultInterruptCallback(void)
 444:Generated_Source\PSoC4/CyDMA.c **** {
 644              		.loc 1 444 0
 645              		.cfi_startproc
 646 0000 80B5     		push	{r7, lr}
 647              		.cfi_def_cfa_offset 8
 648              		.cfi_offset 7, -8
 649              		.cfi_offset 14, -4
 650 0002 00AF     		add	r7, sp, #0
 651              		.cfi_def_cfa_register 7
 445:Generated_Source\PSoC4/CyDMA.c ****     /* Halt CPU in debug mode. We get here because there is no user defined
 446:Generated_Source\PSoC4/CyDMA.c ****     * callback function for the interrupt source. You should either set a
 447:Generated_Source\PSoC4/CyDMA.c ****     * callback function or disable generating an interrupt from this
 448:Generated_Source\PSoC4/CyDMA.c ****     * interrupt source.
 449:Generated_Source\PSoC4/CyDMA.c ****     * To set a callback, use the CyDmaSetInterruptCallback() API function.
 450:Generated_Source\PSoC4/CyDMA.c ****     * To disable interrupt generation, write '0' to the corresponding bit
 451:Generated_Source\PSoC4/CyDMA.c ****     * in the interrupt mask by calling CyDmaSetInterruptSourceMask().
 452:Generated_Source\PSoC4/CyDMA.c ****     */
 453:Generated_Source\PSoC4/CyDMA.c ****     CYASSERT(0 != 0);
 652              		.loc 1 453 0
 653 0004 0020     		mov	r0, #0
 654 0006 FFF7FEFF 		bl	CyHalt
 454:Generated_Source\PSoC4/CyDMA.c **** }
 655              		.loc 1 454 0
 656 000a BD46     		mov	sp, r7
 657              		@ sp needed
 658 000c 80BD     		pop	{r7, pc}
 659              		.cfi_endproc
 660              	.LFE16:
 661              		.size	CyDmaDefaultInterruptCallback, .-CyDmaDefaultInterruptCallback
 662              		.section	.text.CyDmaChAlloc,"ax",%progbits
 663              		.align	2
 664              		.global	CyDmaChAlloc
 665              		.code	16
 666              		.thumb_func
 667              		.type	CyDmaChAlloc, %function
 668              	CyDmaChAlloc:
 669              	.LFB17:
 455:Generated_Source\PSoC4/CyDMA.c **** 
 456:Generated_Source\PSoC4/CyDMA.c **** 
 457:Generated_Source\PSoC4/CyDMA.c **** /*******************************************************************************
 458:Generated_Source\PSoC4/CyDMA.c **** * Function Name: CyDmaChAlloc
 459:Generated_Source\PSoC4/CyDMA.c **** ********************************************************************************
 460:Generated_Source\PSoC4/CyDMA.c **** *
 461:Generated_Source\PSoC4/CyDMA.c **** * Summary:
 462:Generated_Source\PSoC4/CyDMA.c **** *  Allocates a channel number to use with later DMA functions.
 463:Generated_Source\PSoC4/CyDMA.c **** *
 464:Generated_Source\PSoC4/CyDMA.c **** * Parameters:
 465:Generated_Source\PSoC4/CyDMA.c **** *  None.
 466:Generated_Source\PSoC4/CyDMA.c **** *                   
 467:Generated_Source\PSoC4/CyDMA.c **** * Return:
 468:Generated_Source\PSoC4/CyDMA.c **** *  The allocated channel number. Zero is a valid channel number.
 469:Generated_Source\PSoC4/CyDMA.c **** *  CYDMA_INVALID_CHANNEL is returned if there are no channels available.
 470:Generated_Source\PSoC4/CyDMA.c **** *
ARM GAS  C:\Users\tomgm\AppData\Local\Temp\ccCBfpsG.s 			page 21


 471:Generated_Source\PSoC4/CyDMA.c **** *******************************************************************************/
 472:Generated_Source\PSoC4/CyDMA.c **** int32 CyDmaChAlloc(void)
 473:Generated_Source\PSoC4/CyDMA.c **** {
 670              		.loc 1 473 0
 671              		.cfi_startproc
 672 0000 80B5     		push	{r7, lr}
 673              		.cfi_def_cfa_offset 8
 674              		.cfi_offset 7, -8
 675              		.cfi_offset 14, -4
 676 0002 82B0     		sub	sp, sp, #8
 677              		.cfi_def_cfa_offset 16
 678 0004 00AF     		add	r7, sp, #0
 679              		.cfi_def_cfa_register 7
 474:Generated_Source\PSoC4/CyDMA.c ****     int32  channel = CYDMA_CH_NR-1;
 680              		.loc 1 474 0
 681 0006 0723     		mov	r3, #7
 682 0008 7B60     		str	r3, [r7, #4]
 475:Generated_Source\PSoC4/CyDMA.c ****     uint32 channelMask = (uint32)(1UL << (CYDMA_CH_NR-1));
 683              		.loc 1 475 0
 684 000a 8023     		mov	r3, #128
 685 000c 3B60     		str	r3, [r7]
 476:Generated_Source\PSoC4/CyDMA.c ****     
 477:Generated_Source\PSoC4/CyDMA.c ****     while (channel >= 0)
 686              		.loc 1 477 0
 687 000e 11E0     		b	.L65
 688              	.L68:
 478:Generated_Source\PSoC4/CyDMA.c ****     {
 479:Generated_Source\PSoC4/CyDMA.c ****         if(0u == (CyDmaChannelUsedMask & channelMask))
 689              		.loc 1 479 0
 690 0010 0C4B     		ldr	r3, .L70
 691 0012 1B68     		ldr	r3, [r3]
 692 0014 3A68     		ldr	r2, [r7]
 693 0016 1340     		and	r3, r2
 694 0018 06D1     		bne	.L66
 480:Generated_Source\PSoC4/CyDMA.c ****         {
 481:Generated_Source\PSoC4/CyDMA.c ****             /* Mark channel as used and exit loop. */ 
 482:Generated_Source\PSoC4/CyDMA.c ****             CyDmaChannelUsedMask |= channelMask;
 695              		.loc 1 482 0
 696 001a 0A4B     		ldr	r3, .L70
 697 001c 1A68     		ldr	r2, [r3]
 698 001e 3B68     		ldr	r3, [r7]
 699 0020 1A43     		orr	r2, r3
 700 0022 084B     		ldr	r3, .L70
 701 0024 1A60     		str	r2, [r3]
 483:Generated_Source\PSoC4/CyDMA.c ****             break;
 702              		.loc 1 483 0
 703 0026 08E0     		b	.L67
 704              	.L66:
 484:Generated_Source\PSoC4/CyDMA.c ****         }
 485:Generated_Source\PSoC4/CyDMA.c ****         channelMask >>= 1;
 705              		.loc 1 485 0
 706 0028 3B68     		ldr	r3, [r7]
 707 002a 5B08     		lsr	r3, r3, #1
 708 002c 3B60     		str	r3, [r7]
 486:Generated_Source\PSoC4/CyDMA.c ****         --channel;
 709              		.loc 1 486 0
 710 002e 7B68     		ldr	r3, [r7, #4]
ARM GAS  C:\Users\tomgm\AppData\Local\Temp\ccCBfpsG.s 			page 22


 711 0030 013B     		sub	r3, r3, #1
 712 0032 7B60     		str	r3, [r7, #4]
 713              	.L65:
 477:Generated_Source\PSoC4/CyDMA.c ****     {
 714              		.loc 1 477 0
 715 0034 7B68     		ldr	r3, [r7, #4]
 716 0036 002B     		cmp	r3, #0
 717 0038 EADA     		bge	.L68
 718              	.L67:
 487:Generated_Source\PSoC4/CyDMA.c ****     }
 488:Generated_Source\PSoC4/CyDMA.c ****     return (channel);
 719              		.loc 1 488 0
 720 003a 7B68     		ldr	r3, [r7, #4]
 489:Generated_Source\PSoC4/CyDMA.c **** }
 721              		.loc 1 489 0
 722 003c 181C     		mov	r0, r3
 723 003e BD46     		mov	sp, r7
 724 0040 02B0     		add	sp, sp, #8
 725              		@ sp needed
 726 0042 80BD     		pop	{r7, pc}
 727              	.L71:
 728              		.align	2
 729              	.L70:
 730 0044 00000000 		.word	CyDmaChannelUsedMask
 731              		.cfi_endproc
 732              	.LFE17:
 733              		.size	CyDmaChAlloc, .-CyDmaChAlloc
 734              		.section	.text.CyDmaChFree,"ax",%progbits
 735              		.align	2
 736              		.global	CyDmaChFree
 737              		.code	16
 738              		.thumb_func
 739              		.type	CyDmaChFree, %function
 740              	CyDmaChFree:
 741              	.LFB18:
 490:Generated_Source\PSoC4/CyDMA.c **** 
 491:Generated_Source\PSoC4/CyDMA.c **** 
 492:Generated_Source\PSoC4/CyDMA.c **** /*******************************************************************************
 493:Generated_Source\PSoC4/CyDMA.c **** * Function Name: CyDmaChFree
 494:Generated_Source\PSoC4/CyDMA.c **** ********************************************************************************
 495:Generated_Source\PSoC4/CyDMA.c **** *
 496:Generated_Source\PSoC4/CyDMA.c **** * Summary:
 497:Generated_Source\PSoC4/CyDMA.c **** *  Frees a channel handle allocated by CyDmaChAlloc(). Channels allocated for
 498:Generated_Source\PSoC4/CyDMA.c **** *  DMA instances placed on a schematic cannot be freed.
 499:Generated_Source\PSoC4/CyDMA.c **** *
 500:Generated_Source\PSoC4/CyDMA.c **** * Parameters:
 501:Generated_Source\PSoC4/CyDMA.c **** *  channel: The handle previously returned by CyDmaChAlloc().
 502:Generated_Source\PSoC4/CyDMA.c **** *                   
 503:Generated_Source\PSoC4/CyDMA.c **** * Return:
 504:Generated_Source\PSoC4/CyDMA.c **** *  CYRET_SUCCESS if successful.
 505:Generated_Source\PSoC4/CyDMA.c **** *  CYRET_BAD_PARAM if channel is invalid.
 506:Generated_Source\PSoC4/CyDMA.c **** *
 507:Generated_Source\PSoC4/CyDMA.c **** *******************************************************************************/
 508:Generated_Source\PSoC4/CyDMA.c **** cystatus CyDmaChFree(int32 channel)
 509:Generated_Source\PSoC4/CyDMA.c **** {
 742              		.loc 1 509 0
 743              		.cfi_startproc
ARM GAS  C:\Users\tomgm\AppData\Local\Temp\ccCBfpsG.s 			page 23


 744 0000 80B5     		push	{r7, lr}
 745              		.cfi_def_cfa_offset 8
 746              		.cfi_offset 7, -8
 747              		.cfi_offset 14, -4
 748 0002 84B0     		sub	sp, sp, #16
 749              		.cfi_def_cfa_offset 24
 750 0004 00AF     		add	r7, sp, #0
 751              		.cfi_def_cfa_register 7
 752 0006 7860     		str	r0, [r7, #4]
 510:Generated_Source\PSoC4/CyDMA.c ****     uint32   channelMask;
 511:Generated_Source\PSoC4/CyDMA.c ****     cystatus result = CYRET_BAD_PARAM;
 753              		.loc 1 511 0
 754 0008 0123     		mov	r3, #1
 755 000a FB60     		str	r3, [r7, #12]
 512:Generated_Source\PSoC4/CyDMA.c **** 
 513:Generated_Source\PSoC4/CyDMA.c ****     CYASSERT((channel >= 0) && (channel < CYDMA_CH_NR));
 756              		.loc 1 513 0
 757 000c 7B68     		ldr	r3, [r7, #4]
 758 000e 002B     		cmp	r3, #0
 759 0010 04DB     		blt	.L73
 760              		.loc 1 513 0 is_stmt 0 discriminator 1
 761 0012 7B68     		ldr	r3, [r7, #4]
 762 0014 072B     		cmp	r3, #7
 763 0016 01DC     		bgt	.L73
 764              		.loc 1 513 0 discriminator 3
 765 0018 0123     		mov	r3, #1
 766 001a 00E0     		b	.L74
 767              	.L73:
 768              		.loc 1 513 0 discriminator 4
 769 001c 0023     		mov	r3, #0
 770              	.L74:
 771              		.loc 1 513 0 discriminator 6
 772 001e 002B     		cmp	r3, #0
 773 0020 02D1     		bne	.L75
 774              		.loc 1 513 0 discriminator 7
 775 0022 0020     		mov	r0, #0
 776 0024 FFF7FEFF 		bl	CyHalt
 777              	.L75:
 514:Generated_Source\PSoC4/CyDMA.c ****     
 515:Generated_Source\PSoC4/CyDMA.c ****     channelMask = (uint32)(1UL << channel);
 778              		.loc 1 515 0 is_stmt 1
 779 0028 0122     		mov	r2, #1
 780 002a 7B68     		ldr	r3, [r7, #4]
 781 002c 9A40     		lsl	r2, r2, r3
 782 002e 131C     		mov	r3, r2
 783 0030 BB60     		str	r3, [r7, #8]
 516:Generated_Source\PSoC4/CyDMA.c **** 
 517:Generated_Source\PSoC4/CyDMA.c ****     /* Check against attempt to free channel allocated for DMA instance
 518:Generated_Source\PSoC4/CyDMA.c ****     * placed on schematic.
 519:Generated_Source\PSoC4/CyDMA.c ****     */
 520:Generated_Source\PSoC4/CyDMA.c ****     if(0u == (channelMask & DMA_CHANNELS_USED__MASK))
 521:Generated_Source\PSoC4/CyDMA.c ****     {
 522:Generated_Source\PSoC4/CyDMA.c ****         CyDmaChannelUsedMask &= (uint32)~channelMask;
 784              		.loc 1 522 0
 785 0032 BB68     		ldr	r3, [r7, #8]
 786 0034 DA43     		mvn	r2, r3
 787 0036 064B     		ldr	r3, .L77
ARM GAS  C:\Users\tomgm\AppData\Local\Temp\ccCBfpsG.s 			page 24


 788 0038 1B68     		ldr	r3, [r3]
 789 003a 1A40     		and	r2, r3
 790 003c 044B     		ldr	r3, .L77
 791 003e 1A60     		str	r2, [r3]
 523:Generated_Source\PSoC4/CyDMA.c ****         result = CYRET_SUCCESS;
 792              		.loc 1 523 0
 793 0040 0023     		mov	r3, #0
 794 0042 FB60     		str	r3, [r7, #12]
 524:Generated_Source\PSoC4/CyDMA.c ****     }
 525:Generated_Source\PSoC4/CyDMA.c ****     
 526:Generated_Source\PSoC4/CyDMA.c ****     return (result);
 795              		.loc 1 526 0
 796 0044 FB68     		ldr	r3, [r7, #12]
 527:Generated_Source\PSoC4/CyDMA.c **** }
 797              		.loc 1 527 0
 798 0046 181C     		mov	r0, r3
 799 0048 BD46     		mov	sp, r7
 800 004a 04B0     		add	sp, sp, #16
 801              		@ sp needed
 802 004c 80BD     		pop	{r7, pc}
 803              	.L78:
 804 004e C046     		.align	2
 805              	.L77:
 806 0050 00000000 		.word	CyDmaChannelUsedMask
 807              		.cfi_endproc
 808              	.LFE18:
 809              		.size	CyDmaChFree, .-CyDmaChFree
 810              		.section	.text.CyDmaChEnable,"ax",%progbits
 811              		.align	2
 812              		.global	CyDmaChEnable
 813              		.code	16
 814              		.thumb_func
 815              		.type	CyDmaChEnable, %function
 816              	CyDmaChEnable:
 817              	.LFB19:
 528:Generated_Source\PSoC4/CyDMA.c **** 
 529:Generated_Source\PSoC4/CyDMA.c **** 
 530:Generated_Source\PSoC4/CyDMA.c **** /*******************************************************************************
 531:Generated_Source\PSoC4/CyDMA.c **** * Function Name: CyDmaChEnable
 532:Generated_Source\PSoC4/CyDMA.c **** ********************************************************************************
 533:Generated_Source\PSoC4/CyDMA.c **** *
 534:Generated_Source\PSoC4/CyDMA.c **** * Summary:
 535:Generated_Source\PSoC4/CyDMA.c **** *  Enables the DMA channel.
 536:Generated_Source\PSoC4/CyDMA.c **** *
 537:Generated_Source\PSoC4/CyDMA.c **** * Parameters:
 538:Generated_Source\PSoC4/CyDMA.c **** *  channel: Channel used by this function.
 539:Generated_Source\PSoC4/CyDMA.c **** *                   
 540:Generated_Source\PSoC4/CyDMA.c **** * Return:
 541:Generated_Source\PSoC4/CyDMA.c **** *  None.
 542:Generated_Source\PSoC4/CyDMA.c **** *
 543:Generated_Source\PSoC4/CyDMA.c **** * Side effect:
 544:Generated_Source\PSoC4/CyDMA.c **** *  If this function is called before CyDmaSetConfiguration(), and
 545:Generated_Source\PSoC4/CyDMA.c **** *  CyDmaSetSrcAddress() and CyDmaSetDstAddress(), the operation of
 546:Generated_Source\PSoC4/CyDMA.c **** *  the DMA is undefined and could result in system data corruption. 
 547:Generated_Source\PSoC4/CyDMA.c **** *
 548:Generated_Source\PSoC4/CyDMA.c **** *******************************************************************************/
 549:Generated_Source\PSoC4/CyDMA.c **** void CyDmaChEnable(int32 channel)
ARM GAS  C:\Users\tomgm\AppData\Local\Temp\ccCBfpsG.s 			page 25


 550:Generated_Source\PSoC4/CyDMA.c **** {
 818              		.loc 1 550 0
 819              		.cfi_startproc
 820 0000 80B5     		push	{r7, lr}
 821              		.cfi_def_cfa_offset 8
 822              		.cfi_offset 7, -8
 823              		.cfi_offset 14, -4
 824 0002 82B0     		sub	sp, sp, #8
 825              		.cfi_def_cfa_offset 16
 826 0004 00AF     		add	r7, sp, #0
 827              		.cfi_def_cfa_register 7
 828 0006 7860     		str	r0, [r7, #4]
 551:Generated_Source\PSoC4/CyDMA.c ****     CYASSERT((channel >= 0) && (channel < CYDMA_CH_NR));
 829              		.loc 1 551 0
 830 0008 7B68     		ldr	r3, [r7, #4]
 831 000a 002B     		cmp	r3, #0
 832 000c 04DB     		blt	.L80
 833              		.loc 1 551 0 is_stmt 0 discriminator 1
 834 000e 7B68     		ldr	r3, [r7, #4]
 835 0010 072B     		cmp	r3, #7
 836 0012 01DC     		bgt	.L80
 837              		.loc 1 551 0 discriminator 3
 838 0014 0123     		mov	r3, #1
 839 0016 00E0     		b	.L81
 840              	.L80:
 841              		.loc 1 551 0 discriminator 4
 842 0018 0023     		mov	r3, #0
 843              	.L81:
 844              		.loc 1 551 0 discriminator 6
 845 001a 002B     		cmp	r3, #0
 846 001c 02D1     		bne	.L82
 847              		.loc 1 551 0 discriminator 7
 848 001e 0020     		mov	r0, #0
 849 0020 FFF7FEFF 		bl	CyHalt
 850              	.L82:
 552:Generated_Source\PSoC4/CyDMA.c **** 
 553:Generated_Source\PSoC4/CyDMA.c ****     CYDMA_CH_CTL_BASE.ctl[channel] |= CYDMA_ENABLED;
 851              		.loc 1 553 0 is_stmt 1
 852 0024 0649     		ldr	r1, .L83
 853 0026 064A     		ldr	r2, .L83
 854 0028 7B68     		ldr	r3, [r7, #4]
 855 002a 9B00     		lsl	r3, r3, #2
 856 002c 9B58     		ldr	r3, [r3, r2]
 857 002e 8022     		mov	r2, #128
 858 0030 1206     		lsl	r2, r2, #24
 859 0032 1A43     		orr	r2, r3
 860 0034 7B68     		ldr	r3, [r7, #4]
 861 0036 9B00     		lsl	r3, r3, #2
 862 0038 5A50     		str	r2, [r3, r1]
 554:Generated_Source\PSoC4/CyDMA.c **** }
 863              		.loc 1 554 0
 864 003a BD46     		mov	sp, r7
 865 003c 02B0     		add	sp, sp, #8
 866              		@ sp needed
 867 003e 80BD     		pop	{r7, pc}
 868              	.L84:
 869              		.align	2
ARM GAS  C:\Users\tomgm\AppData\Local\Temp\ccCBfpsG.s 			page 26


 870              	.L83:
 871 0040 80101040 		.word	1074794624
 872              		.cfi_endproc
 873              	.LFE19:
 874              		.size	CyDmaChEnable, .-CyDmaChEnable
 875              		.section	.text.CyDmaChDisable,"ax",%progbits
 876              		.align	2
 877              		.global	CyDmaChDisable
 878              		.code	16
 879              		.thumb_func
 880              		.type	CyDmaChDisable, %function
 881              	CyDmaChDisable:
 882              	.LFB20:
 555:Generated_Source\PSoC4/CyDMA.c **** 
 556:Generated_Source\PSoC4/CyDMA.c **** 
 557:Generated_Source\PSoC4/CyDMA.c **** /*******************************************************************************
 558:Generated_Source\PSoC4/CyDMA.c **** * Function Name: CyDmaChDisable
 559:Generated_Source\PSoC4/CyDMA.c **** ********************************************************************************
 560:Generated_Source\PSoC4/CyDMA.c **** *
 561:Generated_Source\PSoC4/CyDMA.c **** * Summary:
 562:Generated_Source\PSoC4/CyDMA.c **** *  Disables the DMA channel.
 563:Generated_Source\PSoC4/CyDMA.c **** *
 564:Generated_Source\PSoC4/CyDMA.c **** * Parameters:
 565:Generated_Source\PSoC4/CyDMA.c **** *  channel: Channel used by this function.
 566:Generated_Source\PSoC4/CyDMA.c **** *                   
 567:Generated_Source\PSoC4/CyDMA.c **** * Return:
 568:Generated_Source\PSoC4/CyDMA.c **** *  None.
 569:Generated_Source\PSoC4/CyDMA.c **** *
 570:Generated_Source\PSoC4/CyDMA.c **** * Side effect:
 571:Generated_Source\PSoC4/CyDMA.c **** *  If this function is called during a DMA transfer the transfer is aborted. 
 572:Generated_Source\PSoC4/CyDMA.c **** *
 573:Generated_Source\PSoC4/CyDMA.c **** *******************************************************************************/
 574:Generated_Source\PSoC4/CyDMA.c **** void CyDmaChDisable(int32 channel)
 575:Generated_Source\PSoC4/CyDMA.c **** {
 883              		.loc 1 575 0
 884              		.cfi_startproc
 885 0000 80B5     		push	{r7, lr}
 886              		.cfi_def_cfa_offset 8
 887              		.cfi_offset 7, -8
 888              		.cfi_offset 14, -4
 889 0002 82B0     		sub	sp, sp, #8
 890              		.cfi_def_cfa_offset 16
 891 0004 00AF     		add	r7, sp, #0
 892              		.cfi_def_cfa_register 7
 893 0006 7860     		str	r0, [r7, #4]
 576:Generated_Source\PSoC4/CyDMA.c ****     CYASSERT((channel >= 0) && (channel < CYDMA_CH_NR));
 894              		.loc 1 576 0
 895 0008 7B68     		ldr	r3, [r7, #4]
 896 000a 002B     		cmp	r3, #0
 897 000c 04DB     		blt	.L86
 898              		.loc 1 576 0 is_stmt 0 discriminator 1
 899 000e 7B68     		ldr	r3, [r7, #4]
 900 0010 072B     		cmp	r3, #7
 901 0012 01DC     		bgt	.L86
 902              		.loc 1 576 0 discriminator 3
 903 0014 0123     		mov	r3, #1
 904 0016 00E0     		b	.L87
ARM GAS  C:\Users\tomgm\AppData\Local\Temp\ccCBfpsG.s 			page 27


 905              	.L86:
 906              		.loc 1 576 0 discriminator 4
 907 0018 0023     		mov	r3, #0
 908              	.L87:
 909              		.loc 1 576 0 discriminator 6
 910 001a 002B     		cmp	r3, #0
 911 001c 02D1     		bne	.L88
 912              		.loc 1 576 0 discriminator 7
 913 001e 0020     		mov	r0, #0
 914 0020 FFF7FEFF 		bl	CyHalt
 915              	.L88:
 577:Generated_Source\PSoC4/CyDMA.c **** 
 578:Generated_Source\PSoC4/CyDMA.c ****     CYDMA_CH_CTL_BASE.ctl[channel] &= (uint32)~CYDMA_ENABLED;
 916              		.loc 1 578 0 is_stmt 1
 917 0024 0649     		ldr	r1, .L89
 918 0026 064A     		ldr	r2, .L89
 919 0028 7B68     		ldr	r3, [r7, #4]
 920 002a 9B00     		lsl	r3, r3, #2
 921 002c 9B58     		ldr	r3, [r3, r2]
 922 002e 5B00     		lsl	r3, r3, #1
 923 0030 5A08     		lsr	r2, r3, #1
 924 0032 7B68     		ldr	r3, [r7, #4]
 925 0034 9B00     		lsl	r3, r3, #2
 926 0036 5A50     		str	r2, [r3, r1]
 579:Generated_Source\PSoC4/CyDMA.c **** }
 927              		.loc 1 579 0
 928 0038 BD46     		mov	sp, r7
 929 003a 02B0     		add	sp, sp, #8
 930              		@ sp needed
 931 003c 80BD     		pop	{r7, pc}
 932              	.L90:
 933 003e C046     		.align	2
 934              	.L89:
 935 0040 80101040 		.word	1074794624
 936              		.cfi_endproc
 937              	.LFE20:
 938              		.size	CyDmaChDisable, .-CyDmaChDisable
 939              		.section	.text.CyDmaTrigger,"ax",%progbits
 940              		.align	2
 941              		.global	CyDmaTrigger
 942              		.code	16
 943              		.thumb_func
 944              		.type	CyDmaTrigger, %function
 945              	CyDmaTrigger:
 946              	.LFB21:
 580:Generated_Source\PSoC4/CyDMA.c **** 
 581:Generated_Source\PSoC4/CyDMA.c **** 
 582:Generated_Source\PSoC4/CyDMA.c **** /*******************************************************************************
 583:Generated_Source\PSoC4/CyDMA.c **** * Function Name: CyDmaTrigger
 584:Generated_Source\PSoC4/CyDMA.c **** ********************************************************************************
 585:Generated_Source\PSoC4/CyDMA.c **** *
 586:Generated_Source\PSoC4/CyDMA.c **** * Summary:
 587:Generated_Source\PSoC4/CyDMA.c **** *  Triggers the DMA channel, this is useful only for software triggers. This is
 588:Generated_Source\PSoC4/CyDMA.c **** *  not needed when hardware triggers are used.
 589:Generated_Source\PSoC4/CyDMA.c **** *
 590:Generated_Source\PSoC4/CyDMA.c **** * Parameters:
 591:Generated_Source\PSoC4/CyDMA.c **** *  channel: Channel used by this function.
ARM GAS  C:\Users\tomgm\AppData\Local\Temp\ccCBfpsG.s 			page 28


 592:Generated_Source\PSoC4/CyDMA.c **** *                   
 593:Generated_Source\PSoC4/CyDMA.c **** * Return:
 594:Generated_Source\PSoC4/CyDMA.c **** *  None. 
 595:Generated_Source\PSoC4/CyDMA.c **** *
 596:Generated_Source\PSoC4/CyDMA.c **** *******************************************************************************/
 597:Generated_Source\PSoC4/CyDMA.c **** void CyDmaTrigger(int32 channel)
 598:Generated_Source\PSoC4/CyDMA.c **** {
 947              		.loc 1 598 0
 948              		.cfi_startproc
 949 0000 80B5     		push	{r7, lr}
 950              		.cfi_def_cfa_offset 8
 951              		.cfi_offset 7, -8
 952              		.cfi_offset 14, -4
 953 0002 82B0     		sub	sp, sp, #8
 954              		.cfi_def_cfa_offset 16
 955 0004 00AF     		add	r7, sp, #0
 956              		.cfi_def_cfa_register 7
 957 0006 7860     		str	r0, [r7, #4]
 599:Generated_Source\PSoC4/CyDMA.c ****     /* The LUT is device-dependent, thus it is generated during the build process. */
 600:Generated_Source\PSoC4/CyDMA.c ****     static const uint32 trCtlLut[] = {0xC0020000U};
 601:Generated_Source\PSoC4/CyDMA.c **** 
 602:Generated_Source\PSoC4/CyDMA.c ****     CYASSERT((channel >= 0) && (channel < CYDMA_CH_NR));
 958              		.loc 1 602 0
 959 0008 7B68     		ldr	r3, [r7, #4]
 960 000a 002B     		cmp	r3, #0
 961 000c 04DB     		blt	.L92
 962              		.loc 1 602 0 is_stmt 0 discriminator 1
 963 000e 7B68     		ldr	r3, [r7, #4]
 964 0010 072B     		cmp	r3, #7
 965 0012 01DC     		bgt	.L92
 966              		.loc 1 602 0 discriminator 3
 967 0014 0123     		mov	r3, #1
 968 0016 00E0     		b	.L93
 969              	.L92:
 970              		.loc 1 602 0 discriminator 4
 971 0018 0023     		mov	r3, #0
 972              	.L93:
 973              		.loc 1 602 0 discriminator 6
 974 001a 002B     		cmp	r3, #0
 975 001c 02D1     		bne	.L94
 976              		.loc 1 602 0 discriminator 7
 977 001e 0020     		mov	r0, #0
 978 0020 FFF7FEFF 		bl	CyHalt
 979              	.L94:
 603:Generated_Source\PSoC4/CyDMA.c **** 
 604:Generated_Source\PSoC4/CyDMA.c ****     CYDMA_TR_CTL_REG = trCtlLut[(uint32)channel >> CYDMA_TR_GROUP_SHR] | ((uint32)channel & CYDMA_T
 980              		.loc 1 604 0 is_stmt 1
 981 0024 044B     		ldr	r3, .L95
 982 0026 0549     		ldr	r1, .L95+4
 983 0028 7A68     		ldr	r2, [r7, #4]
 984 002a 0720     		mov	r0, #7
 985 002c 0240     		and	r2, r0
 986 002e 0A43     		orr	r2, r1
 987 0030 1A60     		str	r2, [r3]
 605:Generated_Source\PSoC4/CyDMA.c **** }
 988              		.loc 1 605 0
 989 0032 BD46     		mov	sp, r7
ARM GAS  C:\Users\tomgm\AppData\Local\Temp\ccCBfpsG.s 			page 29


 990 0034 02B0     		add	sp, sp, #8
 991              		@ sp needed
 992 0036 80BD     		pop	{r7, pc}
 993              	.L96:
 994              		.align	2
 995              	.L95:
 996 0038 00060140 		.word	1073808896
 997 003c 000002C0 		.word	-1073610752
 998              		.cfi_endproc
 999              	.LFE21:
 1000              		.size	CyDmaTrigger, .-CyDmaTrigger
 1001              		.section	.text.CyDmaSetPriority,"ax",%progbits
 1002              		.align	2
 1003              		.global	CyDmaSetPriority
 1004              		.code	16
 1005              		.thumb_func
 1006              		.type	CyDmaSetPriority, %function
 1007              	CyDmaSetPriority:
 1008              	.LFB22:
 606:Generated_Source\PSoC4/CyDMA.c **** 
 607:Generated_Source\PSoC4/CyDMA.c **** 
 608:Generated_Source\PSoC4/CyDMA.c **** /*******************************************************************************
 609:Generated_Source\PSoC4/CyDMA.c **** * Function Name: CyDmaSetPriority
 610:Generated_Source\PSoC4/CyDMA.c **** ********************************************************************************
 611:Generated_Source\PSoC4/CyDMA.c **** *
 612:Generated_Source\PSoC4/CyDMA.c **** * Summary:
 613:Generated_Source\PSoC4/CyDMA.c **** *  Sets the priority for the channel.
 614:Generated_Source\PSoC4/CyDMA.c **** *
 615:Generated_Source\PSoC4/CyDMA.c **** * Parameters:
 616:Generated_Source\PSoC4/CyDMA.c **** *  channel:  Channel used by this function
 617:Generated_Source\PSoC4/CyDMA.c **** *  priority: Priority for channel. Priority can be 0,1,2, or 3.
 618:Generated_Source\PSoC4/CyDMA.c **** *            0 is the highest priority.
 619:Generated_Source\PSoC4/CyDMA.c **** *                   
 620:Generated_Source\PSoC4/CyDMA.c **** * Return:
 621:Generated_Source\PSoC4/CyDMA.c **** *  None.
 622:Generated_Source\PSoC4/CyDMA.c **** *
 623:Generated_Source\PSoC4/CyDMA.c **** * Side effect:
 624:Generated_Source\PSoC4/CyDMA.c **** *  This function should not be called while the channel is enabled.
 625:Generated_Source\PSoC4/CyDMA.c **** *
 626:Generated_Source\PSoC4/CyDMA.c **** *******************************************************************************/
 627:Generated_Source\PSoC4/CyDMA.c **** void CyDmaSetPriority(int32 channel, int32 priority)
 628:Generated_Source\PSoC4/CyDMA.c **** {
 1009              		.loc 1 628 0
 1010              		.cfi_startproc
 1011 0000 80B5     		push	{r7, lr}
 1012              		.cfi_def_cfa_offset 8
 1013              		.cfi_offset 7, -8
 1014              		.cfi_offset 14, -4
 1015 0002 84B0     		sub	sp, sp, #16
 1016              		.cfi_def_cfa_offset 24
 1017 0004 00AF     		add	r7, sp, #0
 1018              		.cfi_def_cfa_register 7
 1019 0006 7860     		str	r0, [r7, #4]
 1020 0008 3960     		str	r1, [r7]
 629:Generated_Source\PSoC4/CyDMA.c ****     uint32 regValue;
 630:Generated_Source\PSoC4/CyDMA.c **** 
 631:Generated_Source\PSoC4/CyDMA.c ****     CYASSERT((channel  >= 0) && (channel  <  CYDMA_CH_NR));
ARM GAS  C:\Users\tomgm\AppData\Local\Temp\ccCBfpsG.s 			page 30


 1021              		.loc 1 631 0
 1022 000a 7B68     		ldr	r3, [r7, #4]
 1023 000c 002B     		cmp	r3, #0
 1024 000e 04DB     		blt	.L98
 1025              		.loc 1 631 0 is_stmt 0 discriminator 1
 1026 0010 7B68     		ldr	r3, [r7, #4]
 1027 0012 072B     		cmp	r3, #7
 1028 0014 01DC     		bgt	.L98
 1029              		.loc 1 631 0 discriminator 3
 1030 0016 0123     		mov	r3, #1
 1031 0018 00E0     		b	.L99
 1032              	.L98:
 1033              		.loc 1 631 0 discriminator 4
 1034 001a 0023     		mov	r3, #0
 1035              	.L99:
 1036              		.loc 1 631 0 discriminator 6
 1037 001c 002B     		cmp	r3, #0
 1038 001e 02D1     		bne	.L100
 1039              		.loc 1 631 0 discriminator 7
 1040 0020 0020     		mov	r0, #0
 1041 0022 FFF7FEFF 		bl	CyHalt
 1042              	.L100:
 632:Generated_Source\PSoC4/CyDMA.c ****     CYASSERT((priority >= 0) && (priority <= CY_DMA_MAX_PRIO));
 1043              		.loc 1 632 0 is_stmt 1
 1044 0026 3B68     		ldr	r3, [r7]
 1045 0028 002B     		cmp	r3, #0
 1046 002a 04DB     		blt	.L101
 1047              		.loc 1 632 0 is_stmt 0 discriminator 1
 1048 002c 3B68     		ldr	r3, [r7]
 1049 002e 032B     		cmp	r3, #3
 1050 0030 01DC     		bgt	.L101
 1051              		.loc 1 632 0 discriminator 3
 1052 0032 0123     		mov	r3, #1
 1053 0034 00E0     		b	.L102
 1054              	.L101:
 1055              		.loc 1 632 0 discriminator 4
 1056 0036 0023     		mov	r3, #0
 1057              	.L102:
 1058              		.loc 1 632 0 discriminator 6
 1059 0038 002B     		cmp	r3, #0
 1060 003a 02D1     		bne	.L103
 1061              		.loc 1 632 0 discriminator 7
 1062 003c 0020     		mov	r0, #0
 1063 003e FFF7FEFF 		bl	CyHalt
 1064              	.L103:
 633:Generated_Source\PSoC4/CyDMA.c **** 
 634:Generated_Source\PSoC4/CyDMA.c ****     regValue = CYDMA_CH_CTL_BASE.ctl[channel] & (uint32)~CYDMA_PRIO;
 1065              		.loc 1 634 0 is_stmt 1
 1066 0042 094A     		ldr	r2, .L104
 1067 0044 7B68     		ldr	r3, [r7, #4]
 1068 0046 9B00     		lsl	r3, r3, #2
 1069 0048 9B58     		ldr	r3, [r3, r2]
 1070 004a 084A     		ldr	r2, .L104+4
 1071 004c 1340     		and	r3, r2
 1072 004e FB60     		str	r3, [r7, #12]
 635:Generated_Source\PSoC4/CyDMA.c ****     CYDMA_CH_CTL_BASE.ctl[channel] = regValue | (uint32)((uint32)priority << CYDMA_PRIO_POS);
 1073              		.loc 1 635 0
ARM GAS  C:\Users\tomgm\AppData\Local\Temp\ccCBfpsG.s 			page 31


 1074 0050 0549     		ldr	r1, .L104
 1075 0052 3B68     		ldr	r3, [r7]
 1076 0054 1A07     		lsl	r2, r3, #28
 1077 0056 FB68     		ldr	r3, [r7, #12]
 1078 0058 1A43     		orr	r2, r3
 1079 005a 7B68     		ldr	r3, [r7, #4]
 1080 005c 9B00     		lsl	r3, r3, #2
 1081 005e 5A50     		str	r2, [r3, r1]
 636:Generated_Source\PSoC4/CyDMA.c **** }
 1082              		.loc 1 636 0
 1083 0060 BD46     		mov	sp, r7
 1084 0062 04B0     		add	sp, sp, #16
 1085              		@ sp needed
 1086 0064 80BD     		pop	{r7, pc}
 1087              	.L105:
 1088 0066 C046     		.align	2
 1089              	.L104:
 1090 0068 80101040 		.word	1074794624
 1091 006c FFFFFFCF 		.word	-805306369
 1092              		.cfi_endproc
 1093              	.LFE22:
 1094              		.size	CyDmaSetPriority, .-CyDmaSetPriority
 1095              		.section	.text.CyDmaGetPriority,"ax",%progbits
 1096              		.align	2
 1097              		.global	CyDmaGetPriority
 1098              		.code	16
 1099              		.thumb_func
 1100              		.type	CyDmaGetPriority, %function
 1101              	CyDmaGetPriority:
 1102              	.LFB23:
 637:Generated_Source\PSoC4/CyDMA.c **** 
 638:Generated_Source\PSoC4/CyDMA.c **** 
 639:Generated_Source\PSoC4/CyDMA.c **** /*******************************************************************************
 640:Generated_Source\PSoC4/CyDMA.c **** * Function Name: CyDmaGetPriority
 641:Generated_Source\PSoC4/CyDMA.c **** ********************************************************************************
 642:Generated_Source\PSoC4/CyDMA.c **** *
 643:Generated_Source\PSoC4/CyDMA.c **** * Summary:
 644:Generated_Source\PSoC4/CyDMA.c **** *  Gets the priority for the channel.
 645:Generated_Source\PSoC4/CyDMA.c **** *
 646:Generated_Source\PSoC4/CyDMA.c **** * Parameters:
 647:Generated_Source\PSoC4/CyDMA.c **** *  channel: Channel used by this function.
 648:Generated_Source\PSoC4/CyDMA.c **** *                   
 649:Generated_Source\PSoC4/CyDMA.c **** * Return:
 650:Generated_Source\PSoC4/CyDMA.c **** *  Priority for channel. Priority can be 0,1,2, or 3. 0 is the highest priority.
 651:Generated_Source\PSoC4/CyDMA.c **** *
 652:Generated_Source\PSoC4/CyDMA.c **** *******************************************************************************/
 653:Generated_Source\PSoC4/CyDMA.c **** int32 CyDmaGetPriority(int32 channel)
 654:Generated_Source\PSoC4/CyDMA.c **** {
 1103              		.loc 1 654 0
 1104              		.cfi_startproc
 1105 0000 80B5     		push	{r7, lr}
 1106              		.cfi_def_cfa_offset 8
 1107              		.cfi_offset 7, -8
 1108              		.cfi_offset 14, -4
 1109 0002 84B0     		sub	sp, sp, #16
 1110              		.cfi_def_cfa_offset 24
 1111 0004 00AF     		add	r7, sp, #0
ARM GAS  C:\Users\tomgm\AppData\Local\Temp\ccCBfpsG.s 			page 32


 1112              		.cfi_def_cfa_register 7
 1113 0006 7860     		str	r0, [r7, #4]
 655:Generated_Source\PSoC4/CyDMA.c ****     uint32 priority;
 656:Generated_Source\PSoC4/CyDMA.c **** 
 657:Generated_Source\PSoC4/CyDMA.c ****     CYASSERT((channel >= 0) && (channel < CYDMA_CH_NR));
 1114              		.loc 1 657 0
 1115 0008 7B68     		ldr	r3, [r7, #4]
 1116 000a 002B     		cmp	r3, #0
 1117 000c 04DB     		blt	.L107
 1118              		.loc 1 657 0 is_stmt 0 discriminator 1
 1119 000e 7B68     		ldr	r3, [r7, #4]
 1120 0010 072B     		cmp	r3, #7
 1121 0012 01DC     		bgt	.L107
 1122              		.loc 1 657 0 discriminator 3
 1123 0014 0123     		mov	r3, #1
 1124 0016 00E0     		b	.L108
 1125              	.L107:
 1126              		.loc 1 657 0 discriminator 4
 1127 0018 0023     		mov	r3, #0
 1128              	.L108:
 1129              		.loc 1 657 0 discriminator 6
 1130 001a 002B     		cmp	r3, #0
 1131 001c 02D1     		bne	.L109
 1132              		.loc 1 657 0 discriminator 7
 1133 001e 0020     		mov	r0, #0
 1134 0020 FFF7FEFF 		bl	CyHalt
 1135              	.L109:
 658:Generated_Source\PSoC4/CyDMA.c **** 
 659:Generated_Source\PSoC4/CyDMA.c ****     priority = (CYDMA_CH_CTL_BASE.ctl[channel] & CYDMA_PRIO) >> CYDMA_PRIO_POS;
 1136              		.loc 1 659 0 is_stmt 1
 1137 0024 064A     		ldr	r2, .L111
 1138 0026 7B68     		ldr	r3, [r7, #4]
 1139 0028 9B00     		lsl	r3, r3, #2
 1140 002a 9A58     		ldr	r2, [r3, r2]
 1141 002c C023     		mov	r3, #192
 1142 002e 9B05     		lsl	r3, r3, #22
 1143 0030 1340     		and	r3, r2
 1144 0032 1B0F     		lsr	r3, r3, #28
 1145 0034 FB60     		str	r3, [r7, #12]
 660:Generated_Source\PSoC4/CyDMA.c ****     return ((int32)priority);
 1146              		.loc 1 660 0
 1147 0036 FB68     		ldr	r3, [r7, #12]
 661:Generated_Source\PSoC4/CyDMA.c **** }
 1148              		.loc 1 661 0
 1149 0038 181C     		mov	r0, r3
 1150 003a BD46     		mov	sp, r7
 1151 003c 04B0     		add	sp, sp, #16
 1152              		@ sp needed
 1153 003e 80BD     		pop	{r7, pc}
 1154              	.L112:
 1155              		.align	2
 1156              	.L111:
 1157 0040 80101040 		.word	1074794624
 1158              		.cfi_endproc
 1159              	.LFE23:
 1160              		.size	CyDmaGetPriority, .-CyDmaGetPriority
 1161              		.section	.text.CyDmaSetNextDescriptor,"ax",%progbits
ARM GAS  C:\Users\tomgm\AppData\Local\Temp\ccCBfpsG.s 			page 33


 1162              		.align	2
 1163              		.global	CyDmaSetNextDescriptor
 1164              		.code	16
 1165              		.thumb_func
 1166              		.type	CyDmaSetNextDescriptor, %function
 1167              	CyDmaSetNextDescriptor:
 1168              	.LFB24:
 662:Generated_Source\PSoC4/CyDMA.c **** 
 663:Generated_Source\PSoC4/CyDMA.c **** 
 664:Generated_Source\PSoC4/CyDMA.c **** /*******************************************************************************
 665:Generated_Source\PSoC4/CyDMA.c **** * Function Name: CyDmaSetNextDescriptor
 666:Generated_Source\PSoC4/CyDMA.c **** ********************************************************************************
 667:Generated_Source\PSoC4/CyDMA.c **** *
 668:Generated_Source\PSoC4/CyDMA.c **** * Summary:
 669:Generated_Source\PSoC4/CyDMA.c **** *  Sets the descriptor that should be run the next time the channel is
 670:Generated_Source\PSoC4/CyDMA.c **** *  triggered.
 671:Generated_Source\PSoC4/CyDMA.c **** *
 672:Generated_Source\PSoC4/CyDMA.c **** * Parameters:
 673:Generated_Source\PSoC4/CyDMA.c **** *  channel:    Channel used by this function.
 674:Generated_Source\PSoC4/CyDMA.c **** *  descriptor: Next Descriptor to run (0 or 1).
 675:Generated_Source\PSoC4/CyDMA.c **** *
 676:Generated_Source\PSoC4/CyDMA.c **** * Return:
 677:Generated_Source\PSoC4/CyDMA.c **** *  None.
 678:Generated_Source\PSoC4/CyDMA.c **** *                   
 679:Generated_Source\PSoC4/CyDMA.c **** * Side effect:
 680:Generated_Source\PSoC4/CyDMA.c **** *  This function should not be called while the channel is enabled.
 681:Generated_Source\PSoC4/CyDMA.c **** *
 682:Generated_Source\PSoC4/CyDMA.c **** *******************************************************************************/
 683:Generated_Source\PSoC4/CyDMA.c **** void CyDmaSetNextDescriptor(int32 channel, int32 descriptor)
 684:Generated_Source\PSoC4/CyDMA.c **** {
 1169              		.loc 1 684 0
 1170              		.cfi_startproc
 1171 0000 80B5     		push	{r7, lr}
 1172              		.cfi_def_cfa_offset 8
 1173              		.cfi_offset 7, -8
 1174              		.cfi_offset 14, -4
 1175 0002 84B0     		sub	sp, sp, #16
 1176              		.cfi_def_cfa_offset 24
 1177 0004 00AF     		add	r7, sp, #0
 1178              		.cfi_def_cfa_register 7
 1179 0006 7860     		str	r0, [r7, #4]
 1180 0008 3960     		str	r1, [r7]
 685:Generated_Source\PSoC4/CyDMA.c ****     uint32 regValue;
 686:Generated_Source\PSoC4/CyDMA.c **** 
 687:Generated_Source\PSoC4/CyDMA.c ****     CYASSERT((channel    >= 0) && (channel    < CYDMA_CH_NR));
 1181              		.loc 1 687 0
 1182 000a 7B68     		ldr	r3, [r7, #4]
 1183 000c 002B     		cmp	r3, #0
 1184 000e 04DB     		blt	.L114
 1185              		.loc 1 687 0 is_stmt 0 discriminator 1
 1186 0010 7B68     		ldr	r3, [r7, #4]
 1187 0012 072B     		cmp	r3, #7
 1188 0014 01DC     		bgt	.L114
 1189              		.loc 1 687 0 discriminator 3
 1190 0016 0123     		mov	r3, #1
 1191 0018 00E0     		b	.L115
 1192              	.L114:
ARM GAS  C:\Users\tomgm\AppData\Local\Temp\ccCBfpsG.s 			page 34


 1193              		.loc 1 687 0 discriminator 4
 1194 001a 0023     		mov	r3, #0
 1195              	.L115:
 1196              		.loc 1 687 0 discriminator 6
 1197 001c 002B     		cmp	r3, #0
 1198 001e 02D1     		bne	.L116
 1199              		.loc 1 687 0 discriminator 7
 1200 0020 0020     		mov	r0, #0
 1201 0022 FFF7FEFF 		bl	CyHalt
 1202              	.L116:
 688:Generated_Source\PSoC4/CyDMA.c ****     CYASSERT((descriptor >= 0) && (descriptor < CYDMA_DESCR_NR));
 1203              		.loc 1 688 0 is_stmt 1
 1204 0026 3B68     		ldr	r3, [r7]
 1205 0028 002B     		cmp	r3, #0
 1206 002a 04DB     		blt	.L117
 1207              		.loc 1 688 0 is_stmt 0 discriminator 1
 1208 002c 3B68     		ldr	r3, [r7]
 1209 002e 012B     		cmp	r3, #1
 1210 0030 01DC     		bgt	.L117
 1211              		.loc 1 688 0 discriminator 3
 1212 0032 0123     		mov	r3, #1
 1213 0034 00E0     		b	.L118
 1214              	.L117:
 1215              		.loc 1 688 0 discriminator 4
 1216 0036 0023     		mov	r3, #0
 1217              	.L118:
 1218              		.loc 1 688 0 discriminator 6
 1219 0038 002B     		cmp	r3, #0
 1220 003a 02D1     		bne	.L119
 1221              		.loc 1 688 0 discriminator 7
 1222 003c 0020     		mov	r0, #0
 1223 003e FFF7FEFF 		bl	CyHalt
 1224              	.L119:
 689:Generated_Source\PSoC4/CyDMA.c **** 
 690:Generated_Source\PSoC4/CyDMA.c ****     regValue = CYDMA_CH_CTL_BASE.ctl[channel] & (uint32)~CYDMA_DESCRIPTOR;
 1225              		.loc 1 690 0 is_stmt 1
 1226 0042 094A     		ldr	r2, .L120
 1227 0044 7B68     		ldr	r3, [r7, #4]
 1228 0046 9B00     		lsl	r3, r3, #2
 1229 0048 9B58     		ldr	r3, [r3, r2]
 1230 004a 084A     		ldr	r2, .L120+4
 1231 004c 1340     		and	r3, r2
 1232 004e FB60     		str	r3, [r7, #12]
 691:Generated_Source\PSoC4/CyDMA.c ****     CYDMA_CH_CTL_BASE.ctl[channel] = regValue | (uint32)((uint32)descriptor << CYDMA_DESCRIPTOR_POS
 1233              		.loc 1 691 0
 1234 0050 0549     		ldr	r1, .L120
 1235 0052 3B68     		ldr	r3, [r7]
 1236 0054 9A07     		lsl	r2, r3, #30
 1237 0056 FB68     		ldr	r3, [r7, #12]
 1238 0058 1A43     		orr	r2, r3
 1239 005a 7B68     		ldr	r3, [r7, #4]
 1240 005c 9B00     		lsl	r3, r3, #2
 1241 005e 5A50     		str	r2, [r3, r1]
 692:Generated_Source\PSoC4/CyDMA.c **** }
 1242              		.loc 1 692 0
 1243 0060 BD46     		mov	sp, r7
 1244 0062 04B0     		add	sp, sp, #16
ARM GAS  C:\Users\tomgm\AppData\Local\Temp\ccCBfpsG.s 			page 35


 1245              		@ sp needed
 1246 0064 80BD     		pop	{r7, pc}
 1247              	.L121:
 1248 0066 C046     		.align	2
 1249              	.L120:
 1250 0068 80101040 		.word	1074794624
 1251 006c FFFFFFBF 		.word	-1073741825
 1252              		.cfi_endproc
 1253              	.LFE24:
 1254              		.size	CyDmaSetNextDescriptor, .-CyDmaSetNextDescriptor
 1255              		.section	.text.CyDmaGetNextDescriptor,"ax",%progbits
 1256              		.align	2
 1257              		.global	CyDmaGetNextDescriptor
 1258              		.code	16
 1259              		.thumb_func
 1260              		.type	CyDmaGetNextDescriptor, %function
 1261              	CyDmaGetNextDescriptor:
 1262              	.LFB25:
 693:Generated_Source\PSoC4/CyDMA.c **** 
 694:Generated_Source\PSoC4/CyDMA.c **** 
 695:Generated_Source\PSoC4/CyDMA.c **** /*******************************************************************************
 696:Generated_Source\PSoC4/CyDMA.c **** * Function Name: CyDmaGetNextDescriptor
 697:Generated_Source\PSoC4/CyDMA.c **** ********************************************************************************
 698:Generated_Source\PSoC4/CyDMA.c **** *
 699:Generated_Source\PSoC4/CyDMA.c **** * Summary:
 700:Generated_Source\PSoC4/CyDMA.c **** *  Returns the next descriptor that should be run, as set by 
 701:Generated_Source\PSoC4/CyDMA.c **** *  CyDmaSetNextDescriptor().
 702:Generated_Source\PSoC4/CyDMA.c **** *
 703:Generated_Source\PSoC4/CyDMA.c **** * Parameters:
 704:Generated_Source\PSoC4/CyDMA.c **** *  channel: channel used by this function.
 705:Generated_Source\PSoC4/CyDMA.c **** *                   
 706:Generated_Source\PSoC4/CyDMA.c **** * Return:
 707:Generated_Source\PSoC4/CyDMA.c **** *  Next Descriptor to run (0 or 1).
 708:Generated_Source\PSoC4/CyDMA.c **** *
 709:Generated_Source\PSoC4/CyDMA.c **** *******************************************************************************/
 710:Generated_Source\PSoC4/CyDMA.c **** int32 CyDmaGetNextDescriptor(int32 channel)
 711:Generated_Source\PSoC4/CyDMA.c **** {
 1263              		.loc 1 711 0
 1264              		.cfi_startproc
 1265 0000 80B5     		push	{r7, lr}
 1266              		.cfi_def_cfa_offset 8
 1267              		.cfi_offset 7, -8
 1268              		.cfi_offset 14, -4
 1269 0002 84B0     		sub	sp, sp, #16
 1270              		.cfi_def_cfa_offset 24
 1271 0004 00AF     		add	r7, sp, #0
 1272              		.cfi_def_cfa_register 7
 1273 0006 7860     		str	r0, [r7, #4]
 712:Generated_Source\PSoC4/CyDMA.c ****     uint32 nextDescriptor;
 713:Generated_Source\PSoC4/CyDMA.c **** 
 714:Generated_Source\PSoC4/CyDMA.c ****     CYASSERT((channel >= 0) && (channel < CYDMA_CH_NR));
 1274              		.loc 1 714 0
 1275 0008 7B68     		ldr	r3, [r7, #4]
 1276 000a 002B     		cmp	r3, #0
 1277 000c 04DB     		blt	.L123
 1278              		.loc 1 714 0 is_stmt 0 discriminator 1
 1279 000e 7B68     		ldr	r3, [r7, #4]
ARM GAS  C:\Users\tomgm\AppData\Local\Temp\ccCBfpsG.s 			page 36


 1280 0010 072B     		cmp	r3, #7
 1281 0012 01DC     		bgt	.L123
 1282              		.loc 1 714 0 discriminator 3
 1283 0014 0123     		mov	r3, #1
 1284 0016 00E0     		b	.L124
 1285              	.L123:
 1286              		.loc 1 714 0 discriminator 4
 1287 0018 0023     		mov	r3, #0
 1288              	.L124:
 1289              		.loc 1 714 0 discriminator 6
 1290 001a 002B     		cmp	r3, #0
 1291 001c 02D1     		bne	.L125
 1292              		.loc 1 714 0 discriminator 7
 1293 001e 0020     		mov	r0, #0
 1294 0020 FFF7FEFF 		bl	CyHalt
 1295              	.L125:
 715:Generated_Source\PSoC4/CyDMA.c **** 
 716:Generated_Source\PSoC4/CyDMA.c ****     nextDescriptor = (CYDMA_CH_CTL_BASE.ctl[channel] & CYDMA_DESCRIPTOR) >> CYDMA_DESCRIPTOR_POS;
 1296              		.loc 1 716 0 is_stmt 1
 1297 0024 064A     		ldr	r2, .L127
 1298 0026 7B68     		ldr	r3, [r7, #4]
 1299 0028 9B00     		lsl	r3, r3, #2
 1300 002a 9A58     		ldr	r2, [r3, r2]
 1301 002c 8023     		mov	r3, #128
 1302 002e DB05     		lsl	r3, r3, #23
 1303 0030 1340     		and	r3, r2
 1304 0032 9B0F     		lsr	r3, r3, #30
 1305 0034 FB60     		str	r3, [r7, #12]
 717:Generated_Source\PSoC4/CyDMA.c ****     return ((int32)nextDescriptor);
 1306              		.loc 1 717 0
 1307 0036 FB68     		ldr	r3, [r7, #12]
 718:Generated_Source\PSoC4/CyDMA.c **** }
 1308              		.loc 1 718 0
 1309 0038 181C     		mov	r0, r3
 1310 003a BD46     		mov	sp, r7
 1311 003c 04B0     		add	sp, sp, #16
 1312              		@ sp needed
 1313 003e 80BD     		pop	{r7, pc}
 1314              	.L128:
 1315              		.align	2
 1316              	.L127:
 1317 0040 80101040 		.word	1074794624
 1318              		.cfi_endproc
 1319              	.LFE25:
 1320              		.size	CyDmaGetNextDescriptor, .-CyDmaGetNextDescriptor
 1321              		.section	.text.CyDmaSetConfiguration,"ax",%progbits
 1322              		.align	2
 1323              		.global	CyDmaSetConfiguration
 1324              		.code	16
 1325              		.thumb_func
 1326              		.type	CyDmaSetConfiguration, %function
 1327              	CyDmaSetConfiguration:
 1328              	.LFB26:
 719:Generated_Source\PSoC4/CyDMA.c **** 
 720:Generated_Source\PSoC4/CyDMA.c **** 
 721:Generated_Source\PSoC4/CyDMA.c **** /*******************************************************************************
 722:Generated_Source\PSoC4/CyDMA.c **** * Function Name: CyDmaSetConfiguration
ARM GAS  C:\Users\tomgm\AppData\Local\Temp\ccCBfpsG.s 			page 37


 723:Generated_Source\PSoC4/CyDMA.c **** ********************************************************************************
 724:Generated_Source\PSoC4/CyDMA.c **** *
 725:Generated_Source\PSoC4/CyDMA.c **** * Summary:
 726:Generated_Source\PSoC4/CyDMA.c **** *  Sets configuration information for the specified descriptor.
 727:Generated_Source\PSoC4/CyDMA.c **** *
 728:Generated_Source\PSoC4/CyDMA.c **** * Parameters:
 729:Generated_Source\PSoC4/CyDMA.c **** *  channel:    DMA channel modified by this function.
 730:Generated_Source\PSoC4/CyDMA.c **** *  descriptor: Descriptor (0 or 1) modified by this function.
 731:Generated_Source\PSoC4/CyDMA.c **** *  config:     Pointer to a configuration structure. Refer to cydma_init_struct
 732:Generated_Source\PSoC4/CyDMA.c **** *              structure definition in CyDMA_P4.h and/or DMA channel datasheet
 733:Generated_Source\PSoC4/CyDMA.c **** *              for more information.
 734:Generated_Source\PSoC4/CyDMA.c **** *                   
 735:Generated_Source\PSoC4/CyDMA.c **** * Return:
 736:Generated_Source\PSoC4/CyDMA.c **** *  None.
 737:Generated_Source\PSoC4/CyDMA.c **** *
 738:Generated_Source\PSoC4/CyDMA.c **** * Side effect:
 739:Generated_Source\PSoC4/CyDMA.c **** *  The status register associated with the specified descriptor is reset to
 740:Generated_Source\PSoC4/CyDMA.c **** *  zero after this function call. This function also validates the descriptor.
 741:Generated_Source\PSoC4/CyDMA.c **** *  This function should not be called while the descriptor is active.
 742:Generated_Source\PSoC4/CyDMA.c **** *  This can be checked by calling CyDmaGetStatus().
 743:Generated_Source\PSoC4/CyDMA.c **** *
 744:Generated_Source\PSoC4/CyDMA.c **** *******************************************************************************/
 745:Generated_Source\PSoC4/CyDMA.c **** void CyDmaSetConfiguration(int32 channel, int32 descriptor, const cydma_init_struct * config)
 746:Generated_Source\PSoC4/CyDMA.c **** {  
 1329              		.loc 1 746 0
 1330              		.cfi_startproc
 1331 0000 80B5     		push	{r7, lr}
 1332              		.cfi_def_cfa_offset 8
 1333              		.cfi_offset 7, -8
 1334              		.cfi_offset 14, -4
 1335 0002 84B0     		sub	sp, sp, #16
 1336              		.cfi_def_cfa_offset 24
 1337 0004 00AF     		add	r7, sp, #0
 1338              		.cfi_def_cfa_register 7
 1339 0006 F860     		str	r0, [r7, #12]
 1340 0008 B960     		str	r1, [r7, #8]
 1341 000a 7A60     		str	r2, [r7, #4]
 747:Generated_Source\PSoC4/CyDMA.c ****     CYASSERT((channel        >= 0) && (channel         < CYDMA_CH_NR));
 1342              		.loc 1 747 0
 1343 000c FB68     		ldr	r3, [r7, #12]
 1344 000e 002B     		cmp	r3, #0
 1345 0010 04DB     		blt	.L130
 1346              		.loc 1 747 0 is_stmt 0 discriminator 1
 1347 0012 FB68     		ldr	r3, [r7, #12]
 1348 0014 072B     		cmp	r3, #7
 1349 0016 01DC     		bgt	.L130
 1350              		.loc 1 747 0 discriminator 3
 1351 0018 0123     		mov	r3, #1
 1352 001a 00E0     		b	.L131
 1353              	.L130:
 1354              		.loc 1 747 0 discriminator 4
 1355 001c 0023     		mov	r3, #0
 1356              	.L131:
 1357              		.loc 1 747 0 discriminator 6
 1358 001e 002B     		cmp	r3, #0
 1359 0020 02D1     		bne	.L132
 1360              		.loc 1 747 0 discriminator 7
ARM GAS  C:\Users\tomgm\AppData\Local\Temp\ccCBfpsG.s 			page 38


 1361 0022 0020     		mov	r0, #0
 1362 0024 FFF7FEFF 		bl	CyHalt
 1363              	.L132:
 748:Generated_Source\PSoC4/CyDMA.c ****     CYASSERT((descriptor     >= 0) && (descriptor      < CYDMA_DESCR_NR));
 1364              		.loc 1 748 0 is_stmt 1
 1365 0028 BB68     		ldr	r3, [r7, #8]
 1366 002a 002B     		cmp	r3, #0
 1367 002c 04DB     		blt	.L133
 1368              		.loc 1 748 0 is_stmt 0 discriminator 1
 1369 002e BB68     		ldr	r3, [r7, #8]
 1370 0030 012B     		cmp	r3, #1
 1371 0032 01DC     		bgt	.L133
 1372              		.loc 1 748 0 discriminator 3
 1373 0034 0123     		mov	r3, #1
 1374 0036 00E0     		b	.L134
 1375              	.L133:
 1376              		.loc 1 748 0 discriminator 4
 1377 0038 0023     		mov	r3, #0
 1378              	.L134:
 1379              		.loc 1 748 0 discriminator 6
 1380 003a 002B     		cmp	r3, #0
 1381 003c 02D1     		bne	.L135
 1382              		.loc 1 748 0 discriminator 7
 1383 003e 0020     		mov	r0, #0
 1384 0040 FFF7FEFF 		bl	CyHalt
 1385              	.L135:
 749:Generated_Source\PSoC4/CyDMA.c **** 
 750:Generated_Source\PSoC4/CyDMA.c ****     CYASSERT(0u == (config->dataElementSize     & (uint32)~CYDMA_DATA_SIZE));   
 1386              		.loc 1 750 0 is_stmt 1
 1387 0044 7B68     		ldr	r3, [r7, #4]
 1388 0046 1B68     		ldr	r3, [r3]
 1389 0048 3B4A     		ldr	r2, .L146
 1390 004a 1340     		and	r3, r2
 1391 004c 02D0     		beq	.L136
 1392              		.loc 1 750 0 is_stmt 0 discriminator 1
 1393 004e 0020     		mov	r0, #0
 1394 0050 FFF7FEFF 		bl	CyHalt
 1395              	.L136:
 751:Generated_Source\PSoC4/CyDMA.c ****     CYASSERT((config->numDataElements > 0)     && (config->numDataElements <= CYDMA_MAX_DATA_NR));
 1396              		.loc 1 751 0 is_stmt 1
 1397 0054 7B68     		ldr	r3, [r7, #4]
 1398 0056 5B68     		ldr	r3, [r3, #4]
 1399 0058 002B     		cmp	r3, #0
 1400 005a 07DD     		ble	.L137
 1401              		.loc 1 751 0 is_stmt 0 discriminator 1
 1402 005c 7B68     		ldr	r3, [r7, #4]
 1403 005e 5A68     		ldr	r2, [r3, #4]
 1404 0060 8023     		mov	r3, #128
 1405 0062 5B02     		lsl	r3, r3, #9
 1406 0064 9A42     		cmp	r2, r3
 1407 0066 01DC     		bgt	.L137
 1408              		.loc 1 751 0 discriminator 3
 1409 0068 0123     		mov	r3, #1
 1410 006a 00E0     		b	.L138
 1411              	.L137:
 1412              		.loc 1 751 0 discriminator 4
 1413 006c 0023     		mov	r3, #0
ARM GAS  C:\Users\tomgm\AppData\Local\Temp\ccCBfpsG.s 			page 39


 1414              	.L138:
 1415              		.loc 1 751 0 discriminator 6
 1416 006e 002B     		cmp	r3, #0
 1417 0070 02D1     		bne	.L139
 1418              		.loc 1 751 0 discriminator 7
 1419 0072 0020     		mov	r0, #0
 1420 0074 FFF7FEFF 		bl	CyHalt
 1421              	.L139:
 752:Generated_Source\PSoC4/CyDMA.c ****     CYASSERT(0u == (config->srcDstTransferWidth & (uint32)~CYDMA_TRANSFER_WIDTH));
 1422              		.loc 1 752 0 is_stmt 1
 1423 0078 7B68     		ldr	r3, [r7, #4]
 1424 007a 9B68     		ldr	r3, [r3, #8]
 1425 007c 2F4A     		ldr	r2, .L146+4
 1426 007e 1340     		and	r3, r2
 1427 0080 02D0     		beq	.L140
 1428              		.loc 1 752 0 is_stmt 0 discriminator 1
 1429 0082 0020     		mov	r0, #0
 1430 0084 FFF7FEFF 		bl	CyHalt
 1431              	.L140:
 753:Generated_Source\PSoC4/CyDMA.c ****     CYASSERT(0u == (config->addressIncrement    & (uint32)~CYDMA_ADDR_INCR));
 1432              		.loc 1 753 0 is_stmt 1
 1433 0088 7B68     		ldr	r3, [r7, #4]
 1434 008a DB68     		ldr	r3, [r3, #12]
 1435 008c 2C4A     		ldr	r2, .L146+8
 1436 008e 1340     		and	r3, r2
 1437 0090 02D0     		beq	.L141
 1438              		.loc 1 753 0 is_stmt 0 discriminator 1
 1439 0092 0020     		mov	r0, #0
 1440 0094 FFF7FEFF 		bl	CyHalt
 1441              	.L141:
 754:Generated_Source\PSoC4/CyDMA.c ****     CYASSERT(0u == (config->triggerType         & (uint32)~CYDMA_TRIGGER_TYPE));
 1442              		.loc 1 754 0 is_stmt 1
 1443 0098 7B68     		ldr	r3, [r7, #4]
 1444 009a 1B69     		ldr	r3, [r3, #16]
 1445 009c 294A     		ldr	r2, .L146+12
 1446 009e 1340     		and	r3, r2
 1447 00a0 02D0     		beq	.L142
 1448              		.loc 1 754 0 is_stmt 0 discriminator 1
 1449 00a2 0020     		mov	r0, #0
 1450 00a4 FFF7FEFF 		bl	CyHalt
 1451              	.L142:
 755:Generated_Source\PSoC4/CyDMA.c ****     CYASSERT(0u == (config->transferMode        & (uint32)~CYDMA_TRANSFER_MODE));
 1452              		.loc 1 755 0 is_stmt 1
 1453 00a8 7B68     		ldr	r3, [r7, #4]
 1454 00aa 5B69     		ldr	r3, [r3, #20]
 1455 00ac 9B00     		lsl	r3, r3, #2
 1456 00ae 9B08     		lsr	r3, r3, #2
 1457 00b0 02D0     		beq	.L143
 1458              		.loc 1 755 0 is_stmt 0 discriminator 1
 1459 00b2 0020     		mov	r0, #0
 1460 00b4 FFF7FEFF 		bl	CyHalt
 1461              	.L143:
 756:Generated_Source\PSoC4/CyDMA.c ****     CYASSERT(0u == (config->preemptable         & (uint32)~CYDMA_PREEMPTABLE));
 1462              		.loc 1 756 0 is_stmt 1
 1463 00b8 7B68     		ldr	r3, [r7, #4]
 1464 00ba 9B69     		ldr	r3, [r3, #24]
 1465 00bc 224A     		ldr	r2, .L146+16
ARM GAS  C:\Users\tomgm\AppData\Local\Temp\ccCBfpsG.s 			page 40


 1466 00be 1340     		and	r3, r2
 1467 00c0 02D0     		beq	.L144
 1468              		.loc 1 756 0 is_stmt 0 discriminator 1
 1469 00c2 0020     		mov	r0, #0
 1470 00c4 FFF7FEFF 		bl	CyHalt
 1471              	.L144:
 757:Generated_Source\PSoC4/CyDMA.c ****     CYASSERT(0u == (config->actions             & (uint32)~CYDMA_POST_COMPLETE_ACTIONS));
 1472              		.loc 1 757 0 is_stmt 1
 1473 00c8 7B68     		ldr	r3, [r7, #4]
 1474 00ca DB69     		ldr	r3, [r3, #28]
 1475 00cc 1F4A     		ldr	r2, .L146+20
 1476 00ce 1340     		and	r3, r2
 1477 00d0 02D0     		beq	.L145
 1478              		.loc 1 757 0 is_stmt 0 discriminator 1
 1479 00d2 0020     		mov	r0, #0
 1480 00d4 FFF7FEFF 		bl	CyHalt
 1481              	.L145:
 758:Generated_Source\PSoC4/CyDMA.c ****     
 759:Generated_Source\PSoC4/CyDMA.c ****     CYDMA_DESCR_BASE.descriptor[channel][descriptor].ctl = config->dataElementSize     |
 1482              		.loc 1 759 0 is_stmt 1
 1483 00d8 1D48     		ldr	r0, .L146+24
 1484 00da 7B68     		ldr	r3, [r7, #4]
 1485 00dc 1A68     		ldr	r2, [r3]
 760:Generated_Source\PSoC4/CyDMA.c ****                                                   ((uint32)config->numDataElements-1u) |
 1486              		.loc 1 760 0
 1487 00de 7B68     		ldr	r3, [r7, #4]
 1488 00e0 5B68     		ldr	r3, [r3, #4]
 1489 00e2 013B     		sub	r3, r3, #1
 759:Generated_Source\PSoC4/CyDMA.c ****                                                   ((uint32)config->numDataElements-1u) |
 1490              		.loc 1 759 0
 1491 00e4 1A43     		orr	r2, r3
 761:Generated_Source\PSoC4/CyDMA.c ****                                                            config->srcDstTransferWidth |
 1492              		.loc 1 761 0
 1493 00e6 7B68     		ldr	r3, [r7, #4]
 1494 00e8 9B68     		ldr	r3, [r3, #8]
 760:Generated_Source\PSoC4/CyDMA.c ****                                                   ((uint32)config->numDataElements-1u) |
 1495              		.loc 1 760 0
 1496 00ea 1A43     		orr	r2, r3
 762:Generated_Source\PSoC4/CyDMA.c ****                                                            config->addressIncrement    |
 1497              		.loc 1 762 0
 1498 00ec 7B68     		ldr	r3, [r7, #4]
 1499 00ee DB68     		ldr	r3, [r3, #12]
 761:Generated_Source\PSoC4/CyDMA.c ****                                                            config->srcDstTransferWidth |
 1500              		.loc 1 761 0
 1501 00f0 1A43     		orr	r2, r3
 763:Generated_Source\PSoC4/CyDMA.c ****                                                            config->triggerType         |
 1502              		.loc 1 763 0
 1503 00f2 7B68     		ldr	r3, [r7, #4]
 1504 00f4 1B69     		ldr	r3, [r3, #16]
 762:Generated_Source\PSoC4/CyDMA.c ****                                                            config->addressIncrement    |
 1505              		.loc 1 762 0
 1506 00f6 1A43     		orr	r2, r3
 764:Generated_Source\PSoC4/CyDMA.c ****                                                            config->transferMode        |
 1507              		.loc 1 764 0
 1508 00f8 7B68     		ldr	r3, [r7, #4]
 1509 00fa 5B69     		ldr	r3, [r3, #20]
 763:Generated_Source\PSoC4/CyDMA.c ****                                                            config->triggerType         |
ARM GAS  C:\Users\tomgm\AppData\Local\Temp\ccCBfpsG.s 			page 41


 1510              		.loc 1 763 0
 1511 00fc 1A43     		orr	r2, r3
 765:Generated_Source\PSoC4/CyDMA.c ****                                                            config->preemptable         |
 1512              		.loc 1 765 0
 1513 00fe 7B68     		ldr	r3, [r7, #4]
 1514 0100 9B69     		ldr	r3, [r3, #24]
 764:Generated_Source\PSoC4/CyDMA.c ****                                                            config->transferMode        |
 1515              		.loc 1 764 0
 1516 0102 1A43     		orr	r2, r3
 766:Generated_Source\PSoC4/CyDMA.c ****                                                            config->actions;
 1517              		.loc 1 766 0
 1518 0104 7B68     		ldr	r3, [r7, #4]
 1519 0106 DB69     		ldr	r3, [r3, #28]
 765:Generated_Source\PSoC4/CyDMA.c ****                                                            config->preemptable         |
 1520              		.loc 1 765 0
 1521 0108 1A43     		orr	r2, r3
 759:Generated_Source\PSoC4/CyDMA.c ****                                                   ((uint32)config->numDataElements-1u) |
 1522              		.loc 1 759 0
 1523 010a FB68     		ldr	r3, [r7, #12]
 1524 010c 5900     		lsl	r1, r3, #1
 1525 010e BB68     		ldr	r3, [r7, #8]
 1526 0110 CB18     		add	r3, r1, r3
 1527 0112 1B01     		lsl	r3, r3, #4
 1528 0114 C318     		add	r3, r0, r3
 1529 0116 0833     		add	r3, r3, #8
 1530 0118 1A60     		str	r2, [r3]
 767:Generated_Source\PSoC4/CyDMA.c **** 
 768:Generated_Source\PSoC4/CyDMA.c ****     CYDMA_DESCR_BASE.descriptor[channel][descriptor].status = CYDMA_VALID;
 1531              		.loc 1 768 0
 1532 011a 0D49     		ldr	r1, .L146+24
 1533 011c FB68     		ldr	r3, [r7, #12]
 1534 011e 5A00     		lsl	r2, r3, #1
 1535 0120 BB68     		ldr	r3, [r7, #8]
 1536 0122 D318     		add	r3, r2, r3
 1537 0124 1B01     		lsl	r3, r3, #4
 1538 0126 CB18     		add	r3, r1, r3
 1539 0128 0833     		add	r3, r3, #8
 1540 012a 8022     		mov	r2, #128
 1541 012c 1206     		lsl	r2, r2, #24
 1542 012e 5A60     		str	r2, [r3, #4]
 769:Generated_Source\PSoC4/CyDMA.c **** }
 1543              		.loc 1 769 0
 1544 0130 BD46     		mov	sp, r7
 1545 0132 04B0     		add	sp, sp, #16
 1546              		@ sp needed
 1547 0134 80BD     		pop	{r7, pc}
 1548              	.L147:
 1549 0136 C046     		.align	2
 1550              	.L146:
 1551 0138 FFFFFCFF 		.word	-196609
 1552 013c FFFFAFFF 		.word	-5242881
 1553 0140 FFFF5FFF 		.word	-10485761
 1554 0144 FFFFFFFC 		.word	-50331649
 1555 0148 FFFFFFEF 		.word	-268435457
 1556 014c FFFFFFD3 		.word	-738197505
 1557 0150 00181040 		.word	1074796544
 1558              		.cfi_endproc
ARM GAS  C:\Users\tomgm\AppData\Local\Temp\ccCBfpsG.s 			page 42


 1559              	.LFE26:
 1560              		.size	CyDmaSetConfiguration, .-CyDmaSetConfiguration
 1561              		.section	.text.CyDmaValidateDescriptor,"ax",%progbits
 1562              		.align	2
 1563              		.global	CyDmaValidateDescriptor
 1564              		.code	16
 1565              		.thumb_func
 1566              		.type	CyDmaValidateDescriptor, %function
 1567              	CyDmaValidateDescriptor:
 1568              	.LFB27:
 770:Generated_Source\PSoC4/CyDMA.c **** 
 771:Generated_Source\PSoC4/CyDMA.c **** 
 772:Generated_Source\PSoC4/CyDMA.c **** /*******************************************************************************
 773:Generated_Source\PSoC4/CyDMA.c **** * Function Name: CyDmaValidateDescriptor
 774:Generated_Source\PSoC4/CyDMA.c **** ********************************************************************************
 775:Generated_Source\PSoC4/CyDMA.c **** *
 776:Generated_Source\PSoC4/CyDMA.c **** * Summary:
 777:Generated_Source\PSoC4/CyDMA.c **** *  Validates the specified descriptor after it has been invalidated.
 778:Generated_Source\PSoC4/CyDMA.c **** *
 779:Generated_Source\PSoC4/CyDMA.c **** * Parameters:
 780:Generated_Source\PSoC4/CyDMA.c **** *  channel:    Channel used by this function.
 781:Generated_Source\PSoC4/CyDMA.c **** *  descriptor: Descriptor (0 or 1) modified by this function.
 782:Generated_Source\PSoC4/CyDMA.c **** *                   
 783:Generated_Source\PSoC4/CyDMA.c **** * Return:
 784:Generated_Source\PSoC4/CyDMA.c **** *  None. 
 785:Generated_Source\PSoC4/CyDMA.c **** *
 786:Generated_Source\PSoC4/CyDMA.c **** * Side effect:
 787:Generated_Source\PSoC4/CyDMA.c **** *  The status register associated with the specified descriptor is reset to
 788:Generated_Source\PSoC4/CyDMA.c **** *  zero after this function call.
 789:Generated_Source\PSoC4/CyDMA.c **** *  This function should not be called when the specified descriptor is active
 790:Generated_Source\PSoC4/CyDMA.c **** *  in the DMA transfer engine. This can be checked by calling CyDmaGetStatus().
 791:Generated_Source\PSoC4/CyDMA.c **** *
 792:Generated_Source\PSoC4/CyDMA.c **** *******************************************************************************/
 793:Generated_Source\PSoC4/CyDMA.c **** void CyDmaValidateDescriptor(int32 channel, int32 descriptor)
 794:Generated_Source\PSoC4/CyDMA.c **** {
 1569              		.loc 1 794 0
 1570              		.cfi_startproc
 1571 0000 80B5     		push	{r7, lr}
 1572              		.cfi_def_cfa_offset 8
 1573              		.cfi_offset 7, -8
 1574              		.cfi_offset 14, -4
 1575 0002 82B0     		sub	sp, sp, #8
 1576              		.cfi_def_cfa_offset 16
 1577 0004 00AF     		add	r7, sp, #0
 1578              		.cfi_def_cfa_register 7
 1579 0006 7860     		str	r0, [r7, #4]
 1580 0008 3960     		str	r1, [r7]
 795:Generated_Source\PSoC4/CyDMA.c ****     CYASSERT((channel    >= 0) && (channel    < CYDMA_CH_NR));
 1581              		.loc 1 795 0
 1582 000a 7B68     		ldr	r3, [r7, #4]
 1583 000c 002B     		cmp	r3, #0
 1584 000e 04DB     		blt	.L149
 1585              		.loc 1 795 0 is_stmt 0 discriminator 1
 1586 0010 7B68     		ldr	r3, [r7, #4]
 1587 0012 072B     		cmp	r3, #7
 1588 0014 01DC     		bgt	.L149
 1589              		.loc 1 795 0 discriminator 3
ARM GAS  C:\Users\tomgm\AppData\Local\Temp\ccCBfpsG.s 			page 43


 1590 0016 0123     		mov	r3, #1
 1591 0018 00E0     		b	.L150
 1592              	.L149:
 1593              		.loc 1 795 0 discriminator 4
 1594 001a 0023     		mov	r3, #0
 1595              	.L150:
 1596              		.loc 1 795 0 discriminator 6
 1597 001c 002B     		cmp	r3, #0
 1598 001e 02D1     		bne	.L151
 1599              		.loc 1 795 0 discriminator 7
 1600 0020 0020     		mov	r0, #0
 1601 0022 FFF7FEFF 		bl	CyHalt
 1602              	.L151:
 796:Generated_Source\PSoC4/CyDMA.c ****     CYASSERT((descriptor >= 0) && (descriptor < CYDMA_DESCR_NR));
 1603              		.loc 1 796 0 is_stmt 1
 1604 0026 3B68     		ldr	r3, [r7]
 1605 0028 002B     		cmp	r3, #0
 1606 002a 04DB     		blt	.L152
 1607              		.loc 1 796 0 is_stmt 0 discriminator 1
 1608 002c 3B68     		ldr	r3, [r7]
 1609 002e 012B     		cmp	r3, #1
 1610 0030 01DC     		bgt	.L152
 1611              		.loc 1 796 0 discriminator 3
 1612 0032 0123     		mov	r3, #1
 1613 0034 00E0     		b	.L153
 1614              	.L152:
 1615              		.loc 1 796 0 discriminator 4
 1616 0036 0023     		mov	r3, #0
 1617              	.L153:
 1618              		.loc 1 796 0 discriminator 6
 1619 0038 002B     		cmp	r3, #0
 1620 003a 02D1     		bne	.L154
 1621              		.loc 1 796 0 discriminator 7
 1622 003c 0020     		mov	r0, #0
 1623 003e FFF7FEFF 		bl	CyHalt
 1624              	.L154:
 797:Generated_Source\PSoC4/CyDMA.c **** 
 798:Generated_Source\PSoC4/CyDMA.c ****     CYDMA_DESCR_BASE.descriptor[channel][descriptor].status = CYDMA_VALID;
 1625              		.loc 1 798 0 is_stmt 1
 1626 0042 0749     		ldr	r1, .L155
 1627 0044 7B68     		ldr	r3, [r7, #4]
 1628 0046 5A00     		lsl	r2, r3, #1
 1629 0048 3B68     		ldr	r3, [r7]
 1630 004a D318     		add	r3, r2, r3
 1631 004c 1B01     		lsl	r3, r3, #4
 1632 004e CB18     		add	r3, r1, r3
 1633 0050 0833     		add	r3, r3, #8
 1634 0052 8022     		mov	r2, #128
 1635 0054 1206     		lsl	r2, r2, #24
 1636 0056 5A60     		str	r2, [r3, #4]
 799:Generated_Source\PSoC4/CyDMA.c **** }
 1637              		.loc 1 799 0
 1638 0058 BD46     		mov	sp, r7
 1639 005a 02B0     		add	sp, sp, #8
 1640              		@ sp needed
 1641 005c 80BD     		pop	{r7, pc}
 1642              	.L156:
ARM GAS  C:\Users\tomgm\AppData\Local\Temp\ccCBfpsG.s 			page 44


 1643 005e C046     		.align	2
 1644              	.L155:
 1645 0060 00181040 		.word	1074796544
 1646              		.cfi_endproc
 1647              	.LFE27:
 1648              		.size	CyDmaValidateDescriptor, .-CyDmaValidateDescriptor
 1649              		.section	.text.CyDmaGetDescriptorStatus,"ax",%progbits
 1650              		.align	2
 1651              		.global	CyDmaGetDescriptorStatus
 1652              		.code	16
 1653              		.thumb_func
 1654              		.type	CyDmaGetDescriptorStatus, %function
 1655              	CyDmaGetDescriptorStatus:
 1656              	.LFB28:
 800:Generated_Source\PSoC4/CyDMA.c **** 
 801:Generated_Source\PSoC4/CyDMA.c **** 
 802:Generated_Source\PSoC4/CyDMA.c **** /*******************************************************************************
 803:Generated_Source\PSoC4/CyDMA.c **** * Function Name: CyDmaGetDescriptorStatus
 804:Generated_Source\PSoC4/CyDMA.c **** ********************************************************************************
 805:Generated_Source\PSoC4/CyDMA.c **** *
 806:Generated_Source\PSoC4/CyDMA.c **** * Summary:
 807:Generated_Source\PSoC4/CyDMA.c **** *  Returns the status of the specified descriptor.
 808:Generated_Source\PSoC4/CyDMA.c **** *
 809:Generated_Source\PSoC4/CyDMA.c **** * Parameters:
 810:Generated_Source\PSoC4/CyDMA.c **** *  channel:    Channel used by this function.
 811:Generated_Source\PSoC4/CyDMA.c **** *  descriptor: Descriptor (0 or 1) modified by this function.
 812:Generated_Source\PSoC4/CyDMA.c **** *                   
 813:Generated_Source\PSoC4/CyDMA.c **** * Return:
 814:Generated_Source\PSoC4/CyDMA.c **** *  Returns the contents of the specified descriptors status register. Refer to 
 815:Generated_Source\PSoC4/CyDMA.c **** *  descriptor status register bit definitions in CyDMA_P4.h or the API
 816:Generated_Source\PSoC4/CyDMA.c **** *  description in the DMA channel datasheet for more information.
 817:Generated_Source\PSoC4/CyDMA.c **** *
 818:Generated_Source\PSoC4/CyDMA.c **** *******************************************************************************/
 819:Generated_Source\PSoC4/CyDMA.c **** uint32 CyDmaGetDescriptorStatus(int32 channel, int32 descriptor)
 820:Generated_Source\PSoC4/CyDMA.c **** {
 1657              		.loc 1 820 0
 1658              		.cfi_startproc
 1659 0000 80B5     		push	{r7, lr}
 1660              		.cfi_def_cfa_offset 8
 1661              		.cfi_offset 7, -8
 1662              		.cfi_offset 14, -4
 1663 0002 82B0     		sub	sp, sp, #8
 1664              		.cfi_def_cfa_offset 16
 1665 0004 00AF     		add	r7, sp, #0
 1666              		.cfi_def_cfa_register 7
 1667 0006 7860     		str	r0, [r7, #4]
 1668 0008 3960     		str	r1, [r7]
 821:Generated_Source\PSoC4/CyDMA.c ****     CYASSERT((channel    >= 0) && (channel    < CYDMA_CH_NR));
 1669              		.loc 1 821 0
 1670 000a 7B68     		ldr	r3, [r7, #4]
 1671 000c 002B     		cmp	r3, #0
 1672 000e 04DB     		blt	.L158
 1673              		.loc 1 821 0 is_stmt 0 discriminator 1
 1674 0010 7B68     		ldr	r3, [r7, #4]
 1675 0012 072B     		cmp	r3, #7
 1676 0014 01DC     		bgt	.L158
 1677              		.loc 1 821 0 discriminator 3
ARM GAS  C:\Users\tomgm\AppData\Local\Temp\ccCBfpsG.s 			page 45


 1678 0016 0123     		mov	r3, #1
 1679 0018 00E0     		b	.L159
 1680              	.L158:
 1681              		.loc 1 821 0 discriminator 4
 1682 001a 0023     		mov	r3, #0
 1683              	.L159:
 1684              		.loc 1 821 0 discriminator 6
 1685 001c 002B     		cmp	r3, #0
 1686 001e 02D1     		bne	.L160
 1687              		.loc 1 821 0 discriminator 7
 1688 0020 0020     		mov	r0, #0
 1689 0022 FFF7FEFF 		bl	CyHalt
 1690              	.L160:
 822:Generated_Source\PSoC4/CyDMA.c ****     CYASSERT((descriptor >= 0) && (descriptor < CYDMA_DESCR_NR));
 1691              		.loc 1 822 0 is_stmt 1
 1692 0026 3B68     		ldr	r3, [r7]
 1693 0028 002B     		cmp	r3, #0
 1694 002a 04DB     		blt	.L161
 1695              		.loc 1 822 0 is_stmt 0 discriminator 1
 1696 002c 3B68     		ldr	r3, [r7]
 1697 002e 012B     		cmp	r3, #1
 1698 0030 01DC     		bgt	.L161
 1699              		.loc 1 822 0 discriminator 3
 1700 0032 0123     		mov	r3, #1
 1701 0034 00E0     		b	.L162
 1702              	.L161:
 1703              		.loc 1 822 0 discriminator 4
 1704 0036 0023     		mov	r3, #0
 1705              	.L162:
 1706              		.loc 1 822 0 discriminator 6
 1707 0038 002B     		cmp	r3, #0
 1708 003a 02D1     		bne	.L163
 1709              		.loc 1 822 0 discriminator 7
 1710 003c 0020     		mov	r0, #0
 1711 003e FFF7FEFF 		bl	CyHalt
 1712              	.L163:
 823:Generated_Source\PSoC4/CyDMA.c **** 
 824:Generated_Source\PSoC4/CyDMA.c ****     return (CYDMA_DESCR_BASE.descriptor[channel][descriptor].status);
 1713              		.loc 1 824 0 is_stmt 1
 1714 0042 0649     		ldr	r1, .L165
 1715 0044 7B68     		ldr	r3, [r7, #4]
 1716 0046 5A00     		lsl	r2, r3, #1
 1717 0048 3B68     		ldr	r3, [r7]
 1718 004a D318     		add	r3, r2, r3
 1719 004c 1B01     		lsl	r3, r3, #4
 1720 004e CB18     		add	r3, r1, r3
 1721 0050 0833     		add	r3, r3, #8
 1722 0052 5B68     		ldr	r3, [r3, #4]
 825:Generated_Source\PSoC4/CyDMA.c **** }
 1723              		.loc 1 825 0
 1724 0054 181C     		mov	r0, r3
 1725 0056 BD46     		mov	sp, r7
 1726 0058 02B0     		add	sp, sp, #8
 1727              		@ sp needed
 1728 005a 80BD     		pop	{r7, pc}
 1729              	.L166:
 1730              		.align	2
ARM GAS  C:\Users\tomgm\AppData\Local\Temp\ccCBfpsG.s 			page 46


 1731              	.L165:
 1732 005c 00181040 		.word	1074796544
 1733              		.cfi_endproc
 1734              	.LFE28:
 1735              		.size	CyDmaGetDescriptorStatus, .-CyDmaGetDescriptorStatus
 1736              		.section	.text.CyDmaSetSrcAddress,"ax",%progbits
 1737              		.align	2
 1738              		.global	CyDmaSetSrcAddress
 1739              		.code	16
 1740              		.thumb_func
 1741              		.type	CyDmaSetSrcAddress, %function
 1742              	CyDmaSetSrcAddress:
 1743              	.LFB29:
 826:Generated_Source\PSoC4/CyDMA.c **** 
 827:Generated_Source\PSoC4/CyDMA.c **** 
 828:Generated_Source\PSoC4/CyDMA.c **** /*******************************************************************************
 829:Generated_Source\PSoC4/CyDMA.c **** * Function Name: CyDmaSetSrcAddress
 830:Generated_Source\PSoC4/CyDMA.c **** ********************************************************************************
 831:Generated_Source\PSoC4/CyDMA.c **** *
 832:Generated_Source\PSoC4/CyDMA.c **** * Summary:
 833:Generated_Source\PSoC4/CyDMA.c **** *  Configures the source address for the specified descriptor.
 834:Generated_Source\PSoC4/CyDMA.c **** *
 835:Generated_Source\PSoC4/CyDMA.c **** * Parameters:
 836:Generated_Source\PSoC4/CyDMA.c **** *  channel:    Channel used by this function.
 837:Generated_Source\PSoC4/CyDMA.c **** *  descriptor: Descriptor (0 or 1) modified by this function.
 838:Generated_Source\PSoC4/CyDMA.c **** *  srcAddress: Address of DMA transfer source.
 839:Generated_Source\PSoC4/CyDMA.c **** *                   
 840:Generated_Source\PSoC4/CyDMA.c **** * Return:
 841:Generated_Source\PSoC4/CyDMA.c **** *  None.
 842:Generated_Source\PSoC4/CyDMA.c **** *
 843:Generated_Source\PSoC4/CyDMA.c **** * Side effect:
 844:Generated_Source\PSoC4/CyDMA.c **** *  This function should not be called when the specified descriptor is active
 845:Generated_Source\PSoC4/CyDMA.c **** *  in the DMA transfer engine. This can be checked by calling CyDmaGetStatus(). 
 846:Generated_Source\PSoC4/CyDMA.c **** *
 847:Generated_Source\PSoC4/CyDMA.c **** *******************************************************************************/
 848:Generated_Source\PSoC4/CyDMA.c **** void CyDmaSetSrcAddress(int32 channel, int32 descriptor, void * srcAddress)
 849:Generated_Source\PSoC4/CyDMA.c **** {
 1744              		.loc 1 849 0
 1745              		.cfi_startproc
 1746 0000 80B5     		push	{r7, lr}
 1747              		.cfi_def_cfa_offset 8
 1748              		.cfi_offset 7, -8
 1749              		.cfi_offset 14, -4
 1750 0002 84B0     		sub	sp, sp, #16
 1751              		.cfi_def_cfa_offset 24
 1752 0004 00AF     		add	r7, sp, #0
 1753              		.cfi_def_cfa_register 7
 1754 0006 F860     		str	r0, [r7, #12]
 1755 0008 B960     		str	r1, [r7, #8]
 1756 000a 7A60     		str	r2, [r7, #4]
 850:Generated_Source\PSoC4/CyDMA.c ****     CYASSERT((channel    >= 0) && (channel    < CYDMA_CH_NR));
 1757              		.loc 1 850 0
 1758 000c FB68     		ldr	r3, [r7, #12]
 1759 000e 002B     		cmp	r3, #0
 1760 0010 04DB     		blt	.L168
 1761              		.loc 1 850 0 is_stmt 0 discriminator 1
 1762 0012 FB68     		ldr	r3, [r7, #12]
ARM GAS  C:\Users\tomgm\AppData\Local\Temp\ccCBfpsG.s 			page 47


 1763 0014 072B     		cmp	r3, #7
 1764 0016 01DC     		bgt	.L168
 1765              		.loc 1 850 0 discriminator 3
 1766 0018 0123     		mov	r3, #1
 1767 001a 00E0     		b	.L169
 1768              	.L168:
 1769              		.loc 1 850 0 discriminator 4
 1770 001c 0023     		mov	r3, #0
 1771              	.L169:
 1772              		.loc 1 850 0 discriminator 6
 1773 001e 002B     		cmp	r3, #0
 1774 0020 02D1     		bne	.L170
 1775              		.loc 1 850 0 discriminator 7
 1776 0022 0020     		mov	r0, #0
 1777 0024 FFF7FEFF 		bl	CyHalt
 1778              	.L170:
 851:Generated_Source\PSoC4/CyDMA.c ****     CYASSERT((descriptor >= 0) && (descriptor < CYDMA_DESCR_NR));
 1779              		.loc 1 851 0 is_stmt 1
 1780 0028 BB68     		ldr	r3, [r7, #8]
 1781 002a 002B     		cmp	r3, #0
 1782 002c 04DB     		blt	.L171
 1783              		.loc 1 851 0 is_stmt 0 discriminator 1
 1784 002e BB68     		ldr	r3, [r7, #8]
 1785 0030 012B     		cmp	r3, #1
 1786 0032 01DC     		bgt	.L171
 1787              		.loc 1 851 0 discriminator 3
 1788 0034 0123     		mov	r3, #1
 1789 0036 00E0     		b	.L172
 1790              	.L171:
 1791              		.loc 1 851 0 discriminator 4
 1792 0038 0023     		mov	r3, #0
 1793              	.L172:
 1794              		.loc 1 851 0 discriminator 6
 1795 003a 002B     		cmp	r3, #0
 1796 003c 02D1     		bne	.L173
 1797              		.loc 1 851 0 discriminator 7
 1798 003e 0020     		mov	r0, #0
 1799 0040 FFF7FEFF 		bl	CyHalt
 1800              	.L173:
 852:Generated_Source\PSoC4/CyDMA.c **** 
 853:Generated_Source\PSoC4/CyDMA.c ****     CYDMA_DESCR_BASE.descriptor[channel][descriptor].src = srcAddress;
 1801              		.loc 1 853 0 is_stmt 1
 1802 0044 0549     		ldr	r1, .L174
 1803 0046 FB68     		ldr	r3, [r7, #12]
 1804 0048 5A00     		lsl	r2, r3, #1
 1805 004a BB68     		ldr	r3, [r7, #8]
 1806 004c D318     		add	r3, r2, r3
 1807 004e 1B01     		lsl	r3, r3, #4
 1808 0050 7A68     		ldr	r2, [r7, #4]
 1809 0052 5A50     		str	r2, [r3, r1]
 854:Generated_Source\PSoC4/CyDMA.c **** }
 1810              		.loc 1 854 0
 1811 0054 BD46     		mov	sp, r7
 1812 0056 04B0     		add	sp, sp, #16
 1813              		@ sp needed
 1814 0058 80BD     		pop	{r7, pc}
 1815              	.L175:
ARM GAS  C:\Users\tomgm\AppData\Local\Temp\ccCBfpsG.s 			page 48


 1816 005a C046     		.align	2
 1817              	.L174:
 1818 005c 00181040 		.word	1074796544
 1819              		.cfi_endproc
 1820              	.LFE29:
 1821              		.size	CyDmaSetSrcAddress, .-CyDmaSetSrcAddress
 1822              		.section	.text.CyDmaGetSrcAddress,"ax",%progbits
 1823              		.align	2
 1824              		.global	CyDmaGetSrcAddress
 1825              		.code	16
 1826              		.thumb_func
 1827              		.type	CyDmaGetSrcAddress, %function
 1828              	CyDmaGetSrcAddress:
 1829              	.LFB30:
 855:Generated_Source\PSoC4/CyDMA.c **** 
 856:Generated_Source\PSoC4/CyDMA.c **** 
 857:Generated_Source\PSoC4/CyDMA.c **** /*******************************************************************************
 858:Generated_Source\PSoC4/CyDMA.c **** * Function Name: CyDmaGetSrcAddress
 859:Generated_Source\PSoC4/CyDMA.c **** ********************************************************************************
 860:Generated_Source\PSoC4/CyDMA.c **** *
 861:Generated_Source\PSoC4/CyDMA.c **** * Summary:
 862:Generated_Source\PSoC4/CyDMA.c **** *  Returns the source address for the specified descriptor, set by 
 863:Generated_Source\PSoC4/CyDMA.c **** *  CyDmaSetSrcAddress().
 864:Generated_Source\PSoC4/CyDMA.c **** *
 865:Generated_Source\PSoC4/CyDMA.c **** * Parameters:
 866:Generated_Source\PSoC4/CyDMA.c **** *  channel:    Channel used by this function.
 867:Generated_Source\PSoC4/CyDMA.c **** *  descriptor: Specifies descriptor (0 or 1) used by this function.
 868:Generated_Source\PSoC4/CyDMA.c **** *                   
 869:Generated_Source\PSoC4/CyDMA.c **** * Return:
 870:Generated_Source\PSoC4/CyDMA.c **** *  Source address written to specified descriptor.
 871:Generated_Source\PSoC4/CyDMA.c **** *
 872:Generated_Source\PSoC4/CyDMA.c **** *******************************************************************************/
 873:Generated_Source\PSoC4/CyDMA.c **** void * CyDmaGetSrcAddress(int32 channel, int32 descriptor)
 874:Generated_Source\PSoC4/CyDMA.c **** {
 1830              		.loc 1 874 0
 1831              		.cfi_startproc
 1832 0000 80B5     		push	{r7, lr}
 1833              		.cfi_def_cfa_offset 8
 1834              		.cfi_offset 7, -8
 1835              		.cfi_offset 14, -4
 1836 0002 82B0     		sub	sp, sp, #8
 1837              		.cfi_def_cfa_offset 16
 1838 0004 00AF     		add	r7, sp, #0
 1839              		.cfi_def_cfa_register 7
 1840 0006 7860     		str	r0, [r7, #4]
 1841 0008 3960     		str	r1, [r7]
 875:Generated_Source\PSoC4/CyDMA.c ****     CYASSERT((channel    >= 0) && (channel    < CYDMA_CH_NR));
 1842              		.loc 1 875 0
 1843 000a 7B68     		ldr	r3, [r7, #4]
 1844 000c 002B     		cmp	r3, #0
 1845 000e 04DB     		blt	.L177
 1846              		.loc 1 875 0 is_stmt 0 discriminator 1
 1847 0010 7B68     		ldr	r3, [r7, #4]
 1848 0012 072B     		cmp	r3, #7
 1849 0014 01DC     		bgt	.L177
 1850              		.loc 1 875 0 discriminator 3
 1851 0016 0123     		mov	r3, #1
ARM GAS  C:\Users\tomgm\AppData\Local\Temp\ccCBfpsG.s 			page 49


 1852 0018 00E0     		b	.L178
 1853              	.L177:
 1854              		.loc 1 875 0 discriminator 4
 1855 001a 0023     		mov	r3, #0
 1856              	.L178:
 1857              		.loc 1 875 0 discriminator 6
 1858 001c 002B     		cmp	r3, #0
 1859 001e 02D1     		bne	.L179
 1860              		.loc 1 875 0 discriminator 7
 1861 0020 0020     		mov	r0, #0
 1862 0022 FFF7FEFF 		bl	CyHalt
 1863              	.L179:
 876:Generated_Source\PSoC4/CyDMA.c ****     CYASSERT((descriptor >= 0) && (descriptor < CYDMA_DESCR_NR));
 1864              		.loc 1 876 0 is_stmt 1
 1865 0026 3B68     		ldr	r3, [r7]
 1866 0028 002B     		cmp	r3, #0
 1867 002a 04DB     		blt	.L180
 1868              		.loc 1 876 0 is_stmt 0 discriminator 1
 1869 002c 3B68     		ldr	r3, [r7]
 1870 002e 012B     		cmp	r3, #1
 1871 0030 01DC     		bgt	.L180
 1872              		.loc 1 876 0 discriminator 3
 1873 0032 0123     		mov	r3, #1
 1874 0034 00E0     		b	.L181
 1875              	.L180:
 1876              		.loc 1 876 0 discriminator 4
 1877 0036 0023     		mov	r3, #0
 1878              	.L181:
 1879              		.loc 1 876 0 discriminator 6
 1880 0038 002B     		cmp	r3, #0
 1881 003a 02D1     		bne	.L182
 1882              		.loc 1 876 0 discriminator 7
 1883 003c 0020     		mov	r0, #0
 1884 003e FFF7FEFF 		bl	CyHalt
 1885              	.L182:
 877:Generated_Source\PSoC4/CyDMA.c **** 
 878:Generated_Source\PSoC4/CyDMA.c ****     return (CYDMA_DESCR_BASE.descriptor[channel][descriptor].src);
 1886              		.loc 1 878 0 is_stmt 1
 1887 0042 0549     		ldr	r1, .L184
 1888 0044 7B68     		ldr	r3, [r7, #4]
 1889 0046 5A00     		lsl	r2, r3, #1
 1890 0048 3B68     		ldr	r3, [r7]
 1891 004a D318     		add	r3, r2, r3
 1892 004c 1B01     		lsl	r3, r3, #4
 1893 004e 5B58     		ldr	r3, [r3, r1]
 879:Generated_Source\PSoC4/CyDMA.c **** }
 1894              		.loc 1 879 0
 1895 0050 181C     		mov	r0, r3
 1896 0052 BD46     		mov	sp, r7
 1897 0054 02B0     		add	sp, sp, #8
 1898              		@ sp needed
 1899 0056 80BD     		pop	{r7, pc}
 1900              	.L185:
 1901              		.align	2
 1902              	.L184:
 1903 0058 00181040 		.word	1074796544
 1904              		.cfi_endproc
ARM GAS  C:\Users\tomgm\AppData\Local\Temp\ccCBfpsG.s 			page 50


 1905              	.LFE30:
 1906              		.size	CyDmaGetSrcAddress, .-CyDmaGetSrcAddress
 1907              		.section	.text.CyDmaSetDstAddress,"ax",%progbits
 1908              		.align	2
 1909              		.global	CyDmaSetDstAddress
 1910              		.code	16
 1911              		.thumb_func
 1912              		.type	CyDmaSetDstAddress, %function
 1913              	CyDmaSetDstAddress:
 1914              	.LFB31:
 880:Generated_Source\PSoC4/CyDMA.c **** 
 881:Generated_Source\PSoC4/CyDMA.c **** 
 882:Generated_Source\PSoC4/CyDMA.c **** /*******************************************************************************
 883:Generated_Source\PSoC4/CyDMA.c **** * Function Name: CyDmaSetDstAddress
 884:Generated_Source\PSoC4/CyDMA.c **** ********************************************************************************
 885:Generated_Source\PSoC4/CyDMA.c **** *
 886:Generated_Source\PSoC4/CyDMA.c **** * Summary:
 887:Generated_Source\PSoC4/CyDMA.c **** *  Configures the destination address for the specified descriptor.
 888:Generated_Source\PSoC4/CyDMA.c **** *
 889:Generated_Source\PSoC4/CyDMA.c **** * Parameters:
 890:Generated_Source\PSoC4/CyDMA.c **** *  channel:    Channel used by this function.
 891:Generated_Source\PSoC4/CyDMA.c **** *  descriptor: Descriptor (0 or 1) modified by this function.
 892:Generated_Source\PSoC4/CyDMA.c **** *  dstAddress: Address of DMA transfer destination.
 893:Generated_Source\PSoC4/CyDMA.c **** *                   
 894:Generated_Source\PSoC4/CyDMA.c **** * Return:
 895:Generated_Source\PSoC4/CyDMA.c **** *  None.
 896:Generated_Source\PSoC4/CyDMA.c **** *
 897:Generated_Source\PSoC4/CyDMA.c **** * Side effect:
 898:Generated_Source\PSoC4/CyDMA.c **** *  This function should not be called when the specified descriptor is active
 899:Generated_Source\PSoC4/CyDMA.c **** *  in the DMA transfer engine. This can be checked by calling CyDmaGetStatus(). 
 900:Generated_Source\PSoC4/CyDMA.c **** *
 901:Generated_Source\PSoC4/CyDMA.c **** *******************************************************************************/
 902:Generated_Source\PSoC4/CyDMA.c **** void CyDmaSetDstAddress(int32 channel, int32 descriptor, void * dstAddress)
 903:Generated_Source\PSoC4/CyDMA.c **** {
 1915              		.loc 1 903 0
 1916              		.cfi_startproc
 1917 0000 80B5     		push	{r7, lr}
 1918              		.cfi_def_cfa_offset 8
 1919              		.cfi_offset 7, -8
 1920              		.cfi_offset 14, -4
 1921 0002 84B0     		sub	sp, sp, #16
 1922              		.cfi_def_cfa_offset 24
 1923 0004 00AF     		add	r7, sp, #0
 1924              		.cfi_def_cfa_register 7
 1925 0006 F860     		str	r0, [r7, #12]
 1926 0008 B960     		str	r1, [r7, #8]
 1927 000a 7A60     		str	r2, [r7, #4]
 904:Generated_Source\PSoC4/CyDMA.c ****     CYASSERT((channel    >= 0) && (channel    < CYDMA_CH_NR));
 1928              		.loc 1 904 0
 1929 000c FB68     		ldr	r3, [r7, #12]
 1930 000e 002B     		cmp	r3, #0
 1931 0010 04DB     		blt	.L187
 1932              		.loc 1 904 0 is_stmt 0 discriminator 1
 1933 0012 FB68     		ldr	r3, [r7, #12]
 1934 0014 072B     		cmp	r3, #7
 1935 0016 01DC     		bgt	.L187
 1936              		.loc 1 904 0 discriminator 3
ARM GAS  C:\Users\tomgm\AppData\Local\Temp\ccCBfpsG.s 			page 51


 1937 0018 0123     		mov	r3, #1
 1938 001a 00E0     		b	.L188
 1939              	.L187:
 1940              		.loc 1 904 0 discriminator 4
 1941 001c 0023     		mov	r3, #0
 1942              	.L188:
 1943              		.loc 1 904 0 discriminator 6
 1944 001e 002B     		cmp	r3, #0
 1945 0020 02D1     		bne	.L189
 1946              		.loc 1 904 0 discriminator 7
 1947 0022 0020     		mov	r0, #0
 1948 0024 FFF7FEFF 		bl	CyHalt
 1949              	.L189:
 905:Generated_Source\PSoC4/CyDMA.c ****     CYASSERT((descriptor >= 0) && (descriptor < CYDMA_DESCR_NR));
 1950              		.loc 1 905 0 is_stmt 1
 1951 0028 BB68     		ldr	r3, [r7, #8]
 1952 002a 002B     		cmp	r3, #0
 1953 002c 04DB     		blt	.L190
 1954              		.loc 1 905 0 is_stmt 0 discriminator 1
 1955 002e BB68     		ldr	r3, [r7, #8]
 1956 0030 012B     		cmp	r3, #1
 1957 0032 01DC     		bgt	.L190
 1958              		.loc 1 905 0 discriminator 3
 1959 0034 0123     		mov	r3, #1
 1960 0036 00E0     		b	.L191
 1961              	.L190:
 1962              		.loc 1 905 0 discriminator 4
 1963 0038 0023     		mov	r3, #0
 1964              	.L191:
 1965              		.loc 1 905 0 discriminator 6
 1966 003a 002B     		cmp	r3, #0
 1967 003c 02D1     		bne	.L192
 1968              		.loc 1 905 0 discriminator 7
 1969 003e 0020     		mov	r0, #0
 1970 0040 FFF7FEFF 		bl	CyHalt
 1971              	.L192:
 906:Generated_Source\PSoC4/CyDMA.c **** 
 907:Generated_Source\PSoC4/CyDMA.c ****     CYDMA_DESCR_BASE.descriptor[channel][descriptor].dst = dstAddress;
 1972              		.loc 1 907 0 is_stmt 1
 1973 0044 0549     		ldr	r1, .L193
 1974 0046 FB68     		ldr	r3, [r7, #12]
 1975 0048 5A00     		lsl	r2, r3, #1
 1976 004a BB68     		ldr	r3, [r7, #8]
 1977 004c D318     		add	r3, r2, r3
 1978 004e 1B01     		lsl	r3, r3, #4
 1979 0050 CB18     		add	r3, r1, r3
 1980 0052 7A68     		ldr	r2, [r7, #4]
 1981 0054 5A60     		str	r2, [r3, #4]
 908:Generated_Source\PSoC4/CyDMA.c **** }
 1982              		.loc 1 908 0
 1983 0056 BD46     		mov	sp, r7
 1984 0058 04B0     		add	sp, sp, #16
 1985              		@ sp needed
 1986 005a 80BD     		pop	{r7, pc}
 1987              	.L194:
 1988              		.align	2
 1989              	.L193:
ARM GAS  C:\Users\tomgm\AppData\Local\Temp\ccCBfpsG.s 			page 52


 1990 005c 00181040 		.word	1074796544
 1991              		.cfi_endproc
 1992              	.LFE31:
 1993              		.size	CyDmaSetDstAddress, .-CyDmaSetDstAddress
 1994              		.section	.text.CyDmaGetDstAddress,"ax",%progbits
 1995              		.align	2
 1996              		.global	CyDmaGetDstAddress
 1997              		.code	16
 1998              		.thumb_func
 1999              		.type	CyDmaGetDstAddress, %function
 2000              	CyDmaGetDstAddress:
 2001              	.LFB32:
 909:Generated_Source\PSoC4/CyDMA.c **** 
 910:Generated_Source\PSoC4/CyDMA.c **** 
 911:Generated_Source\PSoC4/CyDMA.c **** /*******************************************************************************
 912:Generated_Source\PSoC4/CyDMA.c **** * Function Name: CyDmaGetDstAddress
 913:Generated_Source\PSoC4/CyDMA.c **** ********************************************************************************
 914:Generated_Source\PSoC4/CyDMA.c **** *
 915:Generated_Source\PSoC4/CyDMA.c **** * Summary:
 916:Generated_Source\PSoC4/CyDMA.c **** *  Returns the destination address for the specified descriptor, set by 
 917:Generated_Source\PSoC4/CyDMA.c **** *  CyDmaSetDstAddress().
 918:Generated_Source\PSoC4/CyDMA.c **** *
 919:Generated_Source\PSoC4/CyDMA.c **** * Parameters:
 920:Generated_Source\PSoC4/CyDMA.c **** *  channel:    Channel used by this function.
 921:Generated_Source\PSoC4/CyDMA.c **** *  descriptor: Specifies descriptor (0 or 1) used by this function.
 922:Generated_Source\PSoC4/CyDMA.c **** *                   
 923:Generated_Source\PSoC4/CyDMA.c **** * Return:
 924:Generated_Source\PSoC4/CyDMA.c **** *  Destination address written to specified descriptor.
 925:Generated_Source\PSoC4/CyDMA.c **** *
 926:Generated_Source\PSoC4/CyDMA.c **** *******************************************************************************/
 927:Generated_Source\PSoC4/CyDMA.c **** void * CyDmaGetDstAddress(int32 channel, int32 descriptor)
 928:Generated_Source\PSoC4/CyDMA.c **** {
 2002              		.loc 1 928 0
 2003              		.cfi_startproc
 2004 0000 80B5     		push	{r7, lr}
 2005              		.cfi_def_cfa_offset 8
 2006              		.cfi_offset 7, -8
 2007              		.cfi_offset 14, -4
 2008 0002 82B0     		sub	sp, sp, #8
 2009              		.cfi_def_cfa_offset 16
 2010 0004 00AF     		add	r7, sp, #0
 2011              		.cfi_def_cfa_register 7
 2012 0006 7860     		str	r0, [r7, #4]
 2013 0008 3960     		str	r1, [r7]
 929:Generated_Source\PSoC4/CyDMA.c ****     CYASSERT((channel    >= 0) && (channel    < CYDMA_CH_NR));
 2014              		.loc 1 929 0
 2015 000a 7B68     		ldr	r3, [r7, #4]
 2016 000c 002B     		cmp	r3, #0
 2017 000e 04DB     		blt	.L196
 2018              		.loc 1 929 0 is_stmt 0 discriminator 1
 2019 0010 7B68     		ldr	r3, [r7, #4]
 2020 0012 072B     		cmp	r3, #7
 2021 0014 01DC     		bgt	.L196
 2022              		.loc 1 929 0 discriminator 3
 2023 0016 0123     		mov	r3, #1
 2024 0018 00E0     		b	.L197
 2025              	.L196:
ARM GAS  C:\Users\tomgm\AppData\Local\Temp\ccCBfpsG.s 			page 53


 2026              		.loc 1 929 0 discriminator 4
 2027 001a 0023     		mov	r3, #0
 2028              	.L197:
 2029              		.loc 1 929 0 discriminator 6
 2030 001c 002B     		cmp	r3, #0
 2031 001e 02D1     		bne	.L198
 2032              		.loc 1 929 0 discriminator 7
 2033 0020 0020     		mov	r0, #0
 2034 0022 FFF7FEFF 		bl	CyHalt
 2035              	.L198:
 930:Generated_Source\PSoC4/CyDMA.c ****     CYASSERT((descriptor >= 0) && (descriptor < CYDMA_DESCR_NR));
 2036              		.loc 1 930 0 is_stmt 1
 2037 0026 3B68     		ldr	r3, [r7]
 2038 0028 002B     		cmp	r3, #0
 2039 002a 04DB     		blt	.L199
 2040              		.loc 1 930 0 is_stmt 0 discriminator 1
 2041 002c 3B68     		ldr	r3, [r7]
 2042 002e 012B     		cmp	r3, #1
 2043 0030 01DC     		bgt	.L199
 2044              		.loc 1 930 0 discriminator 3
 2045 0032 0123     		mov	r3, #1
 2046 0034 00E0     		b	.L200
 2047              	.L199:
 2048              		.loc 1 930 0 discriminator 4
 2049 0036 0023     		mov	r3, #0
 2050              	.L200:
 2051              		.loc 1 930 0 discriminator 6
 2052 0038 002B     		cmp	r3, #0
 2053 003a 02D1     		bne	.L201
 2054              		.loc 1 930 0 discriminator 7
 2055 003c 0020     		mov	r0, #0
 2056 003e FFF7FEFF 		bl	CyHalt
 2057              	.L201:
 931:Generated_Source\PSoC4/CyDMA.c **** 
 932:Generated_Source\PSoC4/CyDMA.c ****     return (CYDMA_DESCR_BASE.descriptor[channel][descriptor].dst);
 2058              		.loc 1 932 0 is_stmt 1
 2059 0042 0649     		ldr	r1, .L203
 2060 0044 7B68     		ldr	r3, [r7, #4]
 2061 0046 5A00     		lsl	r2, r3, #1
 2062 0048 3B68     		ldr	r3, [r7]
 2063 004a D318     		add	r3, r2, r3
 2064 004c 1B01     		lsl	r3, r3, #4
 2065 004e CB18     		add	r3, r1, r3
 2066 0050 5B68     		ldr	r3, [r3, #4]
 933:Generated_Source\PSoC4/CyDMA.c **** }
 2067              		.loc 1 933 0
 2068 0052 181C     		mov	r0, r3
 2069 0054 BD46     		mov	sp, r7
 2070 0056 02B0     		add	sp, sp, #8
 2071              		@ sp needed
 2072 0058 80BD     		pop	{r7, pc}
 2073              	.L204:
 2074 005a C046     		.align	2
 2075              	.L203:
 2076 005c 00181040 		.word	1074796544
 2077              		.cfi_endproc
 2078              	.LFE32:
ARM GAS  C:\Users\tomgm\AppData\Local\Temp\ccCBfpsG.s 			page 54


 2079              		.size	CyDmaGetDstAddress, .-CyDmaGetDstAddress
 2080              		.section	.text.CyDmaSetDataElementSize,"ax",%progbits
 2081              		.align	2
 2082              		.global	CyDmaSetDataElementSize
 2083              		.code	16
 2084              		.thumb_func
 2085              		.type	CyDmaSetDataElementSize, %function
 2086              	CyDmaSetDataElementSize:
 2087              	.LFB33:
 934:Generated_Source\PSoC4/CyDMA.c **** 
 935:Generated_Source\PSoC4/CyDMA.c **** /*******************************************************************************
 936:Generated_Source\PSoC4/CyDMA.c **** * Function Name: CyDmaSetDataElementSize
 937:Generated_Source\PSoC4/CyDMA.c **** ********************************************************************************
 938:Generated_Source\PSoC4/CyDMA.c **** *
 939:Generated_Source\PSoC4/CyDMA.c **** * Summary:
 940:Generated_Source\PSoC4/CyDMA.c **** *  Sets the data element size for the specified descriptor.
 941:Generated_Source\PSoC4/CyDMA.c **** *
 942:Generated_Source\PSoC4/CyDMA.c **** * Parameters:
 943:Generated_Source\PSoC4/CyDMA.c **** *  channel:         Channel used by this function.
 944:Generated_Source\PSoC4/CyDMA.c **** *  descriptor:      Descriptor (0 or 1) modified by this function.
 945:Generated_Source\PSoC4/CyDMA.c **** *  dataElementSize: Specifies the size of the data element. The DMA transfer
 946:Generated_Source\PSoC4/CyDMA.c **** *                   engine transfers one data element at a time. How these
 947:Generated_Source\PSoC4/CyDMA.c **** *                   transfers occur is controlled by the transfer mode.
 948:Generated_Source\PSoC4/CyDMA.c **** *                   Refer to the API bit field definitions in CyDMA_P4.h
 949:Generated_Source\PSoC4/CyDMA.c **** *                   or API description in the DMA channel datasheet for the 
 950:Generated_Source\PSoC4/CyDMA.c **** *                   parameter options.
 951:Generated_Source\PSoC4/CyDMA.c **** *
 952:Generated_Source\PSoC4/CyDMA.c **** * Return:
 953:Generated_Source\PSoC4/CyDMA.c **** *  None.
 954:Generated_Source\PSoC4/CyDMA.c **** *
 955:Generated_Source\PSoC4/CyDMA.c **** * Side effect:
 956:Generated_Source\PSoC4/CyDMA.c **** *  This function should not be called when the specified descriptor is active
 957:Generated_Source\PSoC4/CyDMA.c **** *  in the DMA transfer engine. This can be checked by calling CyDmaGetStatus(). 
 958:Generated_Source\PSoC4/CyDMA.c **** *
 959:Generated_Source\PSoC4/CyDMA.c **** *******************************************************************************/
 960:Generated_Source\PSoC4/CyDMA.c **** void CyDmaSetDataElementSize(int32 channel, int32 descriptor, uint32 dataElementSize)
 961:Generated_Source\PSoC4/CyDMA.c **** {
 2088              		.loc 1 961 0
 2089              		.cfi_startproc
 2090 0000 80B5     		push	{r7, lr}
 2091              		.cfi_def_cfa_offset 8
 2092              		.cfi_offset 7, -8
 2093              		.cfi_offset 14, -4
 2094 0002 86B0     		sub	sp, sp, #24
 2095              		.cfi_def_cfa_offset 32
 2096 0004 00AF     		add	r7, sp, #0
 2097              		.cfi_def_cfa_register 7
 2098 0006 F860     		str	r0, [r7, #12]
 2099 0008 B960     		str	r1, [r7, #8]
 2100 000a 7A60     		str	r2, [r7, #4]
 962:Generated_Source\PSoC4/CyDMA.c ****     uint32 regValue;
 963:Generated_Source\PSoC4/CyDMA.c ****     
 964:Generated_Source\PSoC4/CyDMA.c ****     CYASSERT((channel    >= 0) && (channel    < CYDMA_CH_NR));
 2101              		.loc 1 964 0
 2102 000c FB68     		ldr	r3, [r7, #12]
 2103 000e 002B     		cmp	r3, #0
 2104 0010 04DB     		blt	.L206
ARM GAS  C:\Users\tomgm\AppData\Local\Temp\ccCBfpsG.s 			page 55


 2105              		.loc 1 964 0 is_stmt 0 discriminator 1
 2106 0012 FB68     		ldr	r3, [r7, #12]
 2107 0014 072B     		cmp	r3, #7
 2108 0016 01DC     		bgt	.L206
 2109              		.loc 1 964 0 discriminator 3
 2110 0018 0123     		mov	r3, #1
 2111 001a 00E0     		b	.L207
 2112              	.L206:
 2113              		.loc 1 964 0 discriminator 4
 2114 001c 0023     		mov	r3, #0
 2115              	.L207:
 2116              		.loc 1 964 0 discriminator 6
 2117 001e 002B     		cmp	r3, #0
 2118 0020 02D1     		bne	.L208
 2119              		.loc 1 964 0 discriminator 7
 2120 0022 0020     		mov	r0, #0
 2121 0024 FFF7FEFF 		bl	CyHalt
 2122              	.L208:
 965:Generated_Source\PSoC4/CyDMA.c ****     CYASSERT((descriptor >= 0) && (descriptor < CYDMA_DESCR_NR));
 2123              		.loc 1 965 0 is_stmt 1
 2124 0028 BB68     		ldr	r3, [r7, #8]
 2125 002a 002B     		cmp	r3, #0
 2126 002c 04DB     		blt	.L209
 2127              		.loc 1 965 0 is_stmt 0 discriminator 1
 2128 002e BB68     		ldr	r3, [r7, #8]
 2129 0030 012B     		cmp	r3, #1
 2130 0032 01DC     		bgt	.L209
 2131              		.loc 1 965 0 discriminator 3
 2132 0034 0123     		mov	r3, #1
 2133 0036 00E0     		b	.L210
 2134              	.L209:
 2135              		.loc 1 965 0 discriminator 4
 2136 0038 0023     		mov	r3, #0
 2137              	.L210:
 2138              		.loc 1 965 0 discriminator 6
 2139 003a 002B     		cmp	r3, #0
 2140 003c 02D1     		bne	.L211
 2141              		.loc 1 965 0 discriminator 7
 2142 003e 0020     		mov	r0, #0
 2143 0040 FFF7FEFF 		bl	CyHalt
 2144              	.L211:
 966:Generated_Source\PSoC4/CyDMA.c ****     CYASSERT(0u == (dataElementSize & (uint32)~CYDMA_DATA_SIZE));
 2145              		.loc 1 966 0 is_stmt 1
 2146 0044 7B68     		ldr	r3, [r7, #4]
 2147 0046 104A     		ldr	r2, .L213
 2148 0048 1340     		and	r3, r2
 2149 004a 02D0     		beq	.L212
 2150              		.loc 1 966 0 is_stmt 0 discriminator 1
 2151 004c 0020     		mov	r0, #0
 2152 004e FFF7FEFF 		bl	CyHalt
 2153              	.L212:
 967:Generated_Source\PSoC4/CyDMA.c **** 
 968:Generated_Source\PSoC4/CyDMA.c ****     regValue = CYDMA_DESCR_BASE.descriptor[channel][descriptor].ctl & (uint32)~CYDMA_DATA_SIZE;
 2154              		.loc 1 968 0 is_stmt 1
 2155 0052 0E49     		ldr	r1, .L213+4
 2156 0054 FB68     		ldr	r3, [r7, #12]
 2157 0056 5A00     		lsl	r2, r3, #1
ARM GAS  C:\Users\tomgm\AppData\Local\Temp\ccCBfpsG.s 			page 56


 2158 0058 BB68     		ldr	r3, [r7, #8]
 2159 005a D318     		add	r3, r2, r3
 2160 005c 1B01     		lsl	r3, r3, #4
 2161 005e CB18     		add	r3, r1, r3
 2162 0060 0833     		add	r3, r3, #8
 2163 0062 1B68     		ldr	r3, [r3]
 2164 0064 084A     		ldr	r2, .L213
 2165 0066 1340     		and	r3, r2
 2166 0068 7B61     		str	r3, [r7, #20]
 969:Generated_Source\PSoC4/CyDMA.c ****     CYDMA_DESCR_BASE.descriptor[channel][descriptor].ctl = regValue | dataElementSize;
 2167              		.loc 1 969 0
 2168 006a 0848     		ldr	r0, .L213+4
 2169 006c 7A69     		ldr	r2, [r7, #20]
 2170 006e 7B68     		ldr	r3, [r7, #4]
 2171 0070 1A43     		orr	r2, r3
 2172 0072 FB68     		ldr	r3, [r7, #12]
 2173 0074 5900     		lsl	r1, r3, #1
 2174 0076 BB68     		ldr	r3, [r7, #8]
 2175 0078 CB18     		add	r3, r1, r3
 2176 007a 1B01     		lsl	r3, r3, #4
 2177 007c C318     		add	r3, r0, r3
 2178 007e 0833     		add	r3, r3, #8
 2179 0080 1A60     		str	r2, [r3]
 970:Generated_Source\PSoC4/CyDMA.c **** }
 2180              		.loc 1 970 0
 2181 0082 BD46     		mov	sp, r7
 2182 0084 06B0     		add	sp, sp, #24
 2183              		@ sp needed
 2184 0086 80BD     		pop	{r7, pc}
 2185              	.L214:
 2186              		.align	2
 2187              	.L213:
 2188 0088 FFFFFCFF 		.word	-196609
 2189 008c 00181040 		.word	1074796544
 2190              		.cfi_endproc
 2191              	.LFE33:
 2192              		.size	CyDmaSetDataElementSize, .-CyDmaSetDataElementSize
 2193              		.section	.text.CyDmaGetDataElementSize,"ax",%progbits
 2194              		.align	2
 2195              		.global	CyDmaGetDataElementSize
 2196              		.code	16
 2197              		.thumb_func
 2198              		.type	CyDmaGetDataElementSize, %function
 2199              	CyDmaGetDataElementSize:
 2200              	.LFB34:
 971:Generated_Source\PSoC4/CyDMA.c **** 
 972:Generated_Source\PSoC4/CyDMA.c **** 
 973:Generated_Source\PSoC4/CyDMA.c **** /*******************************************************************************
 974:Generated_Source\PSoC4/CyDMA.c **** * Function Name: CyDmaGetDataElementSize
 975:Generated_Source\PSoC4/CyDMA.c **** ********************************************************************************
 976:Generated_Source\PSoC4/CyDMA.c **** *
 977:Generated_Source\PSoC4/CyDMA.c **** * Summary:
 978:Generated_Source\PSoC4/CyDMA.c **** *  Returns the data element size configured for the specified descriptor, set by
 979:Generated_Source\PSoC4/CyDMA.c **** *  CyDmaSetDataElementSize() or CyDmaSetConfiguration.
 980:Generated_Source\PSoC4/CyDMA.c **** *
 981:Generated_Source\PSoC4/CyDMA.c **** * Parameters:
 982:Generated_Source\PSoC4/CyDMA.c **** *  channel:    Channel used by this function.
ARM GAS  C:\Users\tomgm\AppData\Local\Temp\ccCBfpsG.s 			page 57


 983:Generated_Source\PSoC4/CyDMA.c **** *  descriptor: Descriptor (0 or 1) modified by this function.
 984:Generated_Source\PSoC4/CyDMA.c **** *                   
 985:Generated_Source\PSoC4/CyDMA.c **** * Return:
 986:Generated_Source\PSoC4/CyDMA.c **** *  The size of the data element. The DMA transfer engine transfers one data
 987:Generated_Source\PSoC4/CyDMA.c **** *  element at a time. How these transfers occur is controlled by the transfer
 988:Generated_Source\PSoC4/CyDMA.c **** *  mode. Refer to the API bit field definitions in CyDMA_P4.h or the API 
 989:Generated_Source\PSoC4/CyDMA.c **** *  description in the DMA channel datasheet for more information.
 990:Generated_Source\PSoC4/CyDMA.c **** *
 991:Generated_Source\PSoC4/CyDMA.c **** * Note:
 992:Generated_Source\PSoC4/CyDMA.c **** *  The size of the source and destination can be configured to use the
 993:Generated_Source\PSoC4/CyDMA.c **** *  data element size, or a Word, this is set in CyDmaSetSrcDstTransferWidth().
 994:Generated_Source\PSoC4/CyDMA.c **** *
 995:Generated_Source\PSoC4/CyDMA.c **** *******************************************************************************/
 996:Generated_Source\PSoC4/CyDMA.c **** uint32 CyDmaGetDataElementSize(int32 channel, int32 descriptor)
 997:Generated_Source\PSoC4/CyDMA.c **** {
 2201              		.loc 1 997 0
 2202              		.cfi_startproc
 2203 0000 80B5     		push	{r7, lr}
 2204              		.cfi_def_cfa_offset 8
 2205              		.cfi_offset 7, -8
 2206              		.cfi_offset 14, -4
 2207 0002 82B0     		sub	sp, sp, #8
 2208              		.cfi_def_cfa_offset 16
 2209 0004 00AF     		add	r7, sp, #0
 2210              		.cfi_def_cfa_register 7
 2211 0006 7860     		str	r0, [r7, #4]
 2212 0008 3960     		str	r1, [r7]
 998:Generated_Source\PSoC4/CyDMA.c ****     CYASSERT((channel    >= 0) && (channel    < CYDMA_CH_NR));
 2213              		.loc 1 998 0
 2214 000a 7B68     		ldr	r3, [r7, #4]
 2215 000c 002B     		cmp	r3, #0
 2216 000e 04DB     		blt	.L216
 2217              		.loc 1 998 0 is_stmt 0 discriminator 1
 2218 0010 7B68     		ldr	r3, [r7, #4]
 2219 0012 072B     		cmp	r3, #7
 2220 0014 01DC     		bgt	.L216
 2221              		.loc 1 998 0 discriminator 3
 2222 0016 0123     		mov	r3, #1
 2223 0018 00E0     		b	.L217
 2224              	.L216:
 2225              		.loc 1 998 0 discriminator 4
 2226 001a 0023     		mov	r3, #0
 2227              	.L217:
 2228              		.loc 1 998 0 discriminator 6
 2229 001c 002B     		cmp	r3, #0
 2230 001e 02D1     		bne	.L218
 2231              		.loc 1 998 0 discriminator 7
 2232 0020 0020     		mov	r0, #0
 2233 0022 FFF7FEFF 		bl	CyHalt
 2234              	.L218:
 999:Generated_Source\PSoC4/CyDMA.c ****     CYASSERT((descriptor >= 0) && (descriptor < CYDMA_DESCR_NR));
 2235              		.loc 1 999 0 is_stmt 1
 2236 0026 3B68     		ldr	r3, [r7]
 2237 0028 002B     		cmp	r3, #0
 2238 002a 04DB     		blt	.L219
 2239              		.loc 1 999 0 is_stmt 0 discriminator 1
 2240 002c 3B68     		ldr	r3, [r7]
ARM GAS  C:\Users\tomgm\AppData\Local\Temp\ccCBfpsG.s 			page 58


 2241 002e 012B     		cmp	r3, #1
 2242 0030 01DC     		bgt	.L219
 2243              		.loc 1 999 0 discriminator 3
 2244 0032 0123     		mov	r3, #1
 2245 0034 00E0     		b	.L220
 2246              	.L219:
 2247              		.loc 1 999 0 discriminator 4
 2248 0036 0023     		mov	r3, #0
 2249              	.L220:
 2250              		.loc 1 999 0 discriminator 6
 2251 0038 002B     		cmp	r3, #0
 2252 003a 02D1     		bne	.L221
 2253              		.loc 1 999 0 discriminator 7
 2254 003c 0020     		mov	r0, #0
 2255 003e FFF7FEFF 		bl	CyHalt
 2256              	.L221:
1000:Generated_Source\PSoC4/CyDMA.c **** 
1001:Generated_Source\PSoC4/CyDMA.c ****     return (CYDMA_DESCR_BASE.descriptor[channel][descriptor].ctl & CYDMA_DATA_SIZE);
 2257              		.loc 1 1001 0 is_stmt 1
 2258 0042 0849     		ldr	r1, .L223
 2259 0044 7B68     		ldr	r3, [r7, #4]
 2260 0046 5A00     		lsl	r2, r3, #1
 2261 0048 3B68     		ldr	r3, [r7]
 2262 004a D318     		add	r3, r2, r3
 2263 004c 1B01     		lsl	r3, r3, #4
 2264 004e CB18     		add	r3, r1, r3
 2265 0050 0833     		add	r3, r3, #8
 2266 0052 1A68     		ldr	r2, [r3]
 2267 0054 C023     		mov	r3, #192
 2268 0056 9B02     		lsl	r3, r3, #10
 2269 0058 1340     		and	r3, r2
1002:Generated_Source\PSoC4/CyDMA.c **** }
 2270              		.loc 1 1002 0
 2271 005a 181C     		mov	r0, r3
 2272 005c BD46     		mov	sp, r7
 2273 005e 02B0     		add	sp, sp, #8
 2274              		@ sp needed
 2275 0060 80BD     		pop	{r7, pc}
 2276              	.L224:
 2277 0062 C046     		.align	2
 2278              	.L223:
 2279 0064 00181040 		.word	1074796544
 2280              		.cfi_endproc
 2281              	.LFE34:
 2282              		.size	CyDmaGetDataElementSize, .-CyDmaGetDataElementSize
 2283              		.section	.text.CyDmaSetNumDataElements,"ax",%progbits
 2284              		.align	2
 2285              		.global	CyDmaSetNumDataElements
 2286              		.code	16
 2287              		.thumb_func
 2288              		.type	CyDmaSetNumDataElements, %function
 2289              	CyDmaSetNumDataElements:
 2290              	.LFB35:
1003:Generated_Source\PSoC4/CyDMA.c **** 
1004:Generated_Source\PSoC4/CyDMA.c **** 
1005:Generated_Source\PSoC4/CyDMA.c **** /*******************************************************************************
1006:Generated_Source\PSoC4/CyDMA.c **** * Function Name: CyDmaSetNumDataElements
ARM GAS  C:\Users\tomgm\AppData\Local\Temp\ccCBfpsG.s 			page 59


1007:Generated_Source\PSoC4/CyDMA.c **** ********************************************************************************
1008:Generated_Source\PSoC4/CyDMA.c **** *
1009:Generated_Source\PSoC4/CyDMA.c **** * Summary:
1010:Generated_Source\PSoC4/CyDMA.c **** *  Sets the number of data elements to transfer for specified descriptor.
1011:Generated_Source\PSoC4/CyDMA.c **** *
1012:Generated_Source\PSoC4/CyDMA.c **** * Parameters:
1013:Generated_Source\PSoC4/CyDMA.c **** *  channel:         Channel used by this function.
1014:Generated_Source\PSoC4/CyDMA.c **** *  descriptor:      Descriptor (0 or 1) modified by this function.
1015:Generated_Source\PSoC4/CyDMA.c **** *  numDataElements: Total number of data elements this descriptor transfers.
1016:Generated_Source\PSoC4/CyDMA.c **** *                   Valid ranges are 1 to 65536.
1017:Generated_Source\PSoC4/CyDMA.c **** *                   
1018:Generated_Source\PSoC4/CyDMA.c **** * Return:
1019:Generated_Source\PSoC4/CyDMA.c **** *  None.
1020:Generated_Source\PSoC4/CyDMA.c **** *
1021:Generated_Source\PSoC4/CyDMA.c **** * Side effect:
1022:Generated_Source\PSoC4/CyDMA.c **** *  This function should not be called when the specified descriptor is active
1023:Generated_Source\PSoC4/CyDMA.c **** *  in the DMA transfer engine. This can be checked by calling CyDmaGetStatus(). 
1024:Generated_Source\PSoC4/CyDMA.c **** *
1025:Generated_Source\PSoC4/CyDMA.c **** *******************************************************************************/
1026:Generated_Source\PSoC4/CyDMA.c **** void CyDmaSetNumDataElements(int32 channel, int32 descriptor, int32 numDataElements)
1027:Generated_Source\PSoC4/CyDMA.c **** {
 2291              		.loc 1 1027 0
 2292              		.cfi_startproc
 2293 0000 80B5     		push	{r7, lr}
 2294              		.cfi_def_cfa_offset 8
 2295              		.cfi_offset 7, -8
 2296              		.cfi_offset 14, -4
 2297 0002 86B0     		sub	sp, sp, #24
 2298              		.cfi_def_cfa_offset 32
 2299 0004 00AF     		add	r7, sp, #0
 2300              		.cfi_def_cfa_register 7
 2301 0006 F860     		str	r0, [r7, #12]
 2302 0008 B960     		str	r1, [r7, #8]
 2303 000a 7A60     		str	r2, [r7, #4]
1028:Generated_Source\PSoC4/CyDMA.c ****     uint32 regValue;
1029:Generated_Source\PSoC4/CyDMA.c ****     
1030:Generated_Source\PSoC4/CyDMA.c ****     CYASSERT((channel        >= 0) && (channel         <  CYDMA_CH_NR));
 2304              		.loc 1 1030 0
 2305 000c FB68     		ldr	r3, [r7, #12]
 2306 000e 002B     		cmp	r3, #0
 2307 0010 04DB     		blt	.L226
 2308              		.loc 1 1030 0 is_stmt 0 discriminator 1
 2309 0012 FB68     		ldr	r3, [r7, #12]
 2310 0014 072B     		cmp	r3, #7
 2311 0016 01DC     		bgt	.L226
 2312              		.loc 1 1030 0 discriminator 3
 2313 0018 0123     		mov	r3, #1
 2314 001a 00E0     		b	.L227
 2315              	.L226:
 2316              		.loc 1 1030 0 discriminator 4
 2317 001c 0023     		mov	r3, #0
 2318              	.L227:
 2319              		.loc 1 1030 0 discriminator 6
 2320 001e 002B     		cmp	r3, #0
 2321 0020 02D1     		bne	.L228
 2322              		.loc 1 1030 0 discriminator 7
 2323 0022 0020     		mov	r0, #0
ARM GAS  C:\Users\tomgm\AppData\Local\Temp\ccCBfpsG.s 			page 60


 2324 0024 FFF7FEFF 		bl	CyHalt
 2325              	.L228:
1031:Generated_Source\PSoC4/CyDMA.c ****     CYASSERT((descriptor     >= 0) && (descriptor      <  CYDMA_DESCR_NR));
 2326              		.loc 1 1031 0 is_stmt 1
 2327 0028 BB68     		ldr	r3, [r7, #8]
 2328 002a 002B     		cmp	r3, #0
 2329 002c 04DB     		blt	.L229
 2330              		.loc 1 1031 0 is_stmt 0 discriminator 1
 2331 002e BB68     		ldr	r3, [r7, #8]
 2332 0030 012B     		cmp	r3, #1
 2333 0032 01DC     		bgt	.L229
 2334              		.loc 1 1031 0 discriminator 3
 2335 0034 0123     		mov	r3, #1
 2336 0036 00E0     		b	.L230
 2337              	.L229:
 2338              		.loc 1 1031 0 discriminator 4
 2339 0038 0023     		mov	r3, #0
 2340              	.L230:
 2341              		.loc 1 1031 0 discriminator 6
 2342 003a 002B     		cmp	r3, #0
 2343 003c 02D1     		bne	.L231
 2344              		.loc 1 1031 0 discriminator 7
 2345 003e 0020     		mov	r0, #0
 2346 0040 FFF7FEFF 		bl	CyHalt
 2347              	.L231:
1032:Generated_Source\PSoC4/CyDMA.c ****     CYASSERT((numDataElements > 0) && (numDataElements <= CYDMA_MAX_DATA_NR));
 2348              		.loc 1 1032 0 is_stmt 1
 2349 0044 7B68     		ldr	r3, [r7, #4]
 2350 0046 002B     		cmp	r3, #0
 2351 0048 06DD     		ble	.L232
 2352              		.loc 1 1032 0 is_stmt 0 discriminator 1
 2353 004a 7A68     		ldr	r2, [r7, #4]
 2354 004c 8023     		mov	r3, #128
 2355 004e 5B02     		lsl	r3, r3, #9
 2356 0050 9A42     		cmp	r2, r3
 2357 0052 01DC     		bgt	.L232
 2358              		.loc 1 1032 0 discriminator 3
 2359 0054 0123     		mov	r3, #1
 2360 0056 00E0     		b	.L233
 2361              	.L232:
 2362              		.loc 1 1032 0 discriminator 4
 2363 0058 0023     		mov	r3, #0
 2364              	.L233:
 2365              		.loc 1 1032 0 discriminator 6
 2366 005a 002B     		cmp	r3, #0
 2367 005c 02D1     		bne	.L234
 2368              		.loc 1 1032 0 discriminator 7
 2369 005e 0020     		mov	r0, #0
 2370 0060 FFF7FEFF 		bl	CyHalt
 2371              	.L234:
1033:Generated_Source\PSoC4/CyDMA.c ****     
1034:Generated_Source\PSoC4/CyDMA.c ****     --numDataElements;
 2372              		.loc 1 1034 0 is_stmt 1
 2373 0064 7B68     		ldr	r3, [r7, #4]
 2374 0066 013B     		sub	r3, r3, #1
 2375 0068 7B60     		str	r3, [r7, #4]
1035:Generated_Source\PSoC4/CyDMA.c ****     regValue = CYDMA_DESCR_BASE.descriptor[channel][descriptor].ctl & (uint32)~CYDMA_DATA_NR;
ARM GAS  C:\Users\tomgm\AppData\Local\Temp\ccCBfpsG.s 			page 61


 2376              		.loc 1 1035 0
 2377 006a 0D49     		ldr	r1, .L235
 2378 006c FB68     		ldr	r3, [r7, #12]
 2379 006e 5A00     		lsl	r2, r3, #1
 2380 0070 BB68     		ldr	r3, [r7, #8]
 2381 0072 D318     		add	r3, r2, r3
 2382 0074 1B01     		lsl	r3, r3, #4
 2383 0076 CB18     		add	r3, r1, r3
 2384 0078 0833     		add	r3, r3, #8
 2385 007a 1B68     		ldr	r3, [r3]
 2386 007c 1B0C     		lsr	r3, r3, #16
 2387 007e 1B04     		lsl	r3, r3, #16
 2388 0080 7B61     		str	r3, [r7, #20]
1036:Generated_Source\PSoC4/CyDMA.c ****     CYDMA_DESCR_BASE.descriptor[channel][descriptor].ctl = regValue | (uint32)numDataElements;
 2389              		.loc 1 1036 0
 2390 0082 0748     		ldr	r0, .L235
 2391 0084 7A68     		ldr	r2, [r7, #4]
 2392 0086 7B69     		ldr	r3, [r7, #20]
 2393 0088 1A43     		orr	r2, r3
 2394 008a FB68     		ldr	r3, [r7, #12]
 2395 008c 5900     		lsl	r1, r3, #1
 2396 008e BB68     		ldr	r3, [r7, #8]
 2397 0090 CB18     		add	r3, r1, r3
 2398 0092 1B01     		lsl	r3, r3, #4
 2399 0094 C318     		add	r3, r0, r3
 2400 0096 0833     		add	r3, r3, #8
 2401 0098 1A60     		str	r2, [r3]
1037:Generated_Source\PSoC4/CyDMA.c **** }
 2402              		.loc 1 1037 0
 2403 009a BD46     		mov	sp, r7
 2404 009c 06B0     		add	sp, sp, #24
 2405              		@ sp needed
 2406 009e 80BD     		pop	{r7, pc}
 2407              	.L236:
 2408              		.align	2
 2409              	.L235:
 2410 00a0 00181040 		.word	1074796544
 2411              		.cfi_endproc
 2412              	.LFE35:
 2413              		.size	CyDmaSetNumDataElements, .-CyDmaSetNumDataElements
 2414              		.section	.text.CyDmaGetNumDataElements,"ax",%progbits
 2415              		.align	2
 2416              		.global	CyDmaGetNumDataElements
 2417              		.code	16
 2418              		.thumb_func
 2419              		.type	CyDmaGetNumDataElements, %function
 2420              	CyDmaGetNumDataElements:
 2421              	.LFB36:
1038:Generated_Source\PSoC4/CyDMA.c **** 
1039:Generated_Source\PSoC4/CyDMA.c **** 
1040:Generated_Source\PSoC4/CyDMA.c **** /*******************************************************************************
1041:Generated_Source\PSoC4/CyDMA.c **** * Function Name: CyDmaGetNumDataElements
1042:Generated_Source\PSoC4/CyDMA.c **** ********************************************************************************
1043:Generated_Source\PSoC4/CyDMA.c **** *
1044:Generated_Source\PSoC4/CyDMA.c **** * Summary:
1045:Generated_Source\PSoC4/CyDMA.c **** *  Returns the number of data elements to be transferred. Only reflects the
1046:Generated_Source\PSoC4/CyDMA.c **** *  value written by CyDmaSetNumDataElements() or CyDmaSetConfiguration(). This
ARM GAS  C:\Users\tomgm\AppData\Local\Temp\ccCBfpsG.s 			page 62


1047:Generated_Source\PSoC4/CyDMA.c **** *  does not reflect how many elements have been transferred. For that
1048:Generated_Source\PSoC4/CyDMA.c **** *  information use the CyDmaGetDescriptorStatus() function.
1049:Generated_Source\PSoC4/CyDMA.c **** *
1050:Generated_Source\PSoC4/CyDMA.c **** * Parameters:
1051:Generated_Source\PSoC4/CyDMA.c **** *  channel:    Channel used by this function.
1052:Generated_Source\PSoC4/CyDMA.c **** *  descriptor: Descriptor (0 or 1) modified by this function.
1053:Generated_Source\PSoC4/CyDMA.c **** *                   
1054:Generated_Source\PSoC4/CyDMA.c **** * Return:
1055:Generated_Source\PSoC4/CyDMA.c **** *  Number of data elements to transfer.
1056:Generated_Source\PSoC4/CyDMA.c **** *
1057:Generated_Source\PSoC4/CyDMA.c **** *******************************************************************************/
1058:Generated_Source\PSoC4/CyDMA.c **** int32 CyDmaGetNumDataElements(int32 channel, int32 descriptor)
1059:Generated_Source\PSoC4/CyDMA.c **** {
 2422              		.loc 1 1059 0
 2423              		.cfi_startproc
 2424 0000 80B5     		push	{r7, lr}
 2425              		.cfi_def_cfa_offset 8
 2426              		.cfi_offset 7, -8
 2427              		.cfi_offset 14, -4
 2428 0002 84B0     		sub	sp, sp, #16
 2429              		.cfi_def_cfa_offset 24
 2430 0004 00AF     		add	r7, sp, #0
 2431              		.cfi_def_cfa_register 7
 2432 0006 7860     		str	r0, [r7, #4]
 2433 0008 3960     		str	r1, [r7]
1060:Generated_Source\PSoC4/CyDMA.c ****     uint32 numElements;
1061:Generated_Source\PSoC4/CyDMA.c **** 
1062:Generated_Source\PSoC4/CyDMA.c ****     CYASSERT((channel    >= 0) && (channel    < CYDMA_CH_NR));
 2434              		.loc 1 1062 0
 2435 000a 7B68     		ldr	r3, [r7, #4]
 2436 000c 002B     		cmp	r3, #0
 2437 000e 04DB     		blt	.L238
 2438              		.loc 1 1062 0 is_stmt 0 discriminator 1
 2439 0010 7B68     		ldr	r3, [r7, #4]
 2440 0012 072B     		cmp	r3, #7
 2441 0014 01DC     		bgt	.L238
 2442              		.loc 1 1062 0 discriminator 3
 2443 0016 0123     		mov	r3, #1
 2444 0018 00E0     		b	.L239
 2445              	.L238:
 2446              		.loc 1 1062 0 discriminator 4
 2447 001a 0023     		mov	r3, #0
 2448              	.L239:
 2449              		.loc 1 1062 0 discriminator 6
 2450 001c 002B     		cmp	r3, #0
 2451 001e 02D1     		bne	.L240
 2452              		.loc 1 1062 0 discriminator 7
 2453 0020 0020     		mov	r0, #0
 2454 0022 FFF7FEFF 		bl	CyHalt
 2455              	.L240:
1063:Generated_Source\PSoC4/CyDMA.c ****     CYASSERT((descriptor >= 0) && (descriptor < CYDMA_DESCR_NR));
 2456              		.loc 1 1063 0 is_stmt 1
 2457 0026 3B68     		ldr	r3, [r7]
 2458 0028 002B     		cmp	r3, #0
 2459 002a 04DB     		blt	.L241
 2460              		.loc 1 1063 0 is_stmt 0 discriminator 1
 2461 002c 3B68     		ldr	r3, [r7]
ARM GAS  C:\Users\tomgm\AppData\Local\Temp\ccCBfpsG.s 			page 63


 2462 002e 012B     		cmp	r3, #1
 2463 0030 01DC     		bgt	.L241
 2464              		.loc 1 1063 0 discriminator 3
 2465 0032 0123     		mov	r3, #1
 2466 0034 00E0     		b	.L242
 2467              	.L241:
 2468              		.loc 1 1063 0 discriminator 4
 2469 0036 0023     		mov	r3, #0
 2470              	.L242:
 2471              		.loc 1 1063 0 discriminator 6
 2472 0038 002B     		cmp	r3, #0
 2473 003a 02D1     		bne	.L243
 2474              		.loc 1 1063 0 discriminator 7
 2475 003c 0020     		mov	r0, #0
 2476 003e FFF7FEFF 		bl	CyHalt
 2477              	.L243:
1064:Generated_Source\PSoC4/CyDMA.c ****     
1065:Generated_Source\PSoC4/CyDMA.c ****     numElements = (CYDMA_DESCR_BASE.descriptor[channel][descriptor].ctl & CYDMA_DATA_NR) + 1u;
 2478              		.loc 1 1065 0 is_stmt 1
 2479 0042 0949     		ldr	r1, .L245
 2480 0044 7B68     		ldr	r3, [r7, #4]
 2481 0046 5A00     		lsl	r2, r3, #1
 2482 0048 3B68     		ldr	r3, [r7]
 2483 004a D318     		add	r3, r2, r3
 2484 004c 1B01     		lsl	r3, r3, #4
 2485 004e CB18     		add	r3, r1, r3
 2486 0050 0833     		add	r3, r3, #8
 2487 0052 1B68     		ldr	r3, [r3]
 2488 0054 1B04     		lsl	r3, r3, #16
 2489 0056 1B0C     		lsr	r3, r3, #16
 2490 0058 0133     		add	r3, r3, #1
 2491 005a FB60     		str	r3, [r7, #12]
1066:Generated_Source\PSoC4/CyDMA.c ****     return ((int32)numElements);
 2492              		.loc 1 1066 0
 2493 005c FB68     		ldr	r3, [r7, #12]
1067:Generated_Source\PSoC4/CyDMA.c **** }
 2494              		.loc 1 1067 0
 2495 005e 181C     		mov	r0, r3
 2496 0060 BD46     		mov	sp, r7
 2497 0062 04B0     		add	sp, sp, #16
 2498              		@ sp needed
 2499 0064 80BD     		pop	{r7, pc}
 2500              	.L246:
 2501 0066 C046     		.align	2
 2502              	.L245:
 2503 0068 00181040 		.word	1074796544
 2504              		.cfi_endproc
 2505              	.LFE36:
 2506              		.size	CyDmaGetNumDataElements, .-CyDmaGetNumDataElements
 2507              		.section	.text.CyDmaSetSrcDstTransferWidth,"ax",%progbits
 2508              		.align	2
 2509              		.global	CyDmaSetSrcDstTransferWidth
 2510              		.code	16
 2511              		.thumb_func
 2512              		.type	CyDmaSetSrcDstTransferWidth, %function
 2513              	CyDmaSetSrcDstTransferWidth:
 2514              	.LFB37:
ARM GAS  C:\Users\tomgm\AppData\Local\Temp\ccCBfpsG.s 			page 64


1068:Generated_Source\PSoC4/CyDMA.c **** 
1069:Generated_Source\PSoC4/CyDMA.c **** 
1070:Generated_Source\PSoC4/CyDMA.c **** /*******************************************************************************
1071:Generated_Source\PSoC4/CyDMA.c **** * Function Name: CyDmaSetSrcDstTransferWidth
1072:Generated_Source\PSoC4/CyDMA.c **** ********************************************************************************
1073:Generated_Source\PSoC4/CyDMA.c **** *
1074:Generated_Source\PSoC4/CyDMA.c **** * Summary:
1075:Generated_Source\PSoC4/CyDMA.c **** *  Sets the width of the source and destination. The DMA can either read and
1076:Generated_Source\PSoC4/CyDMA.c **** *  write data from the source and destination at the size specified by
1077:Generated_Source\PSoC4/CyDMA.c **** *  CyDmaSetDataElementSize() or by a word (4bytes). This also determines how
1078:Generated_Source\PSoC4/CyDMA.c **** *  many bytes the addresses are incremented if increment source and destination
1079:Generated_Source\PSoC4/CyDMA.c **** *  address are turned on.
1080:Generated_Source\PSoC4/CyDMA.c **** *
1081:Generated_Source\PSoC4/CyDMA.c **** * Parameters:
1082:Generated_Source\PSoC4/CyDMA.c **** *  channel:       Channel used by this function.
1083:Generated_Source\PSoC4/CyDMA.c **** *  descriptor:    Descriptor (0 or 1) modified by this function.
1084:Generated_Source\PSoC4/CyDMA.c **** *  transferWidth: Specifies the source and destination widths. Refer to 
1085:Generated_Source\PSoC4/CyDMA.c **** *                 the API bit field definitions in CyDMA_P4.h or the API
1086:Generated_Source\PSoC4/CyDMA.c **** *                 description in the DMA channel datasheet for the parameter
1087:Generated_Source\PSoC4/CyDMA.c **** *                 options.
1088:Generated_Source\PSoC4/CyDMA.c **** *                   
1089:Generated_Source\PSoC4/CyDMA.c **** * Return:
1090:Generated_Source\PSoC4/CyDMA.c **** *  None.
1091:Generated_Source\PSoC4/CyDMA.c **** *
1092:Generated_Source\PSoC4/CyDMA.c **** * Side effect:
1093:Generated_Source\PSoC4/CyDMA.c **** *  This function should not be called when the specified descriptor is active
1094:Generated_Source\PSoC4/CyDMA.c **** *  in the DMA transfer engine. This can be checked by calling CyDmaGetStatus(). 
1095:Generated_Source\PSoC4/CyDMA.c **** *
1096:Generated_Source\PSoC4/CyDMA.c **** *******************************************************************************/
1097:Generated_Source\PSoC4/CyDMA.c **** void CyDmaSetSrcDstTransferWidth(int32 channel, int32 descriptor, uint32 transferWidth)
1098:Generated_Source\PSoC4/CyDMA.c **** {
 2515              		.loc 1 1098 0
 2516              		.cfi_startproc
 2517 0000 80B5     		push	{r7, lr}
 2518              		.cfi_def_cfa_offset 8
 2519              		.cfi_offset 7, -8
 2520              		.cfi_offset 14, -4
 2521 0002 86B0     		sub	sp, sp, #24
 2522              		.cfi_def_cfa_offset 32
 2523 0004 00AF     		add	r7, sp, #0
 2524              		.cfi_def_cfa_register 7
 2525 0006 F860     		str	r0, [r7, #12]
 2526 0008 B960     		str	r1, [r7, #8]
 2527 000a 7A60     		str	r2, [r7, #4]
1099:Generated_Source\PSoC4/CyDMA.c ****     uint32 regValue;
1100:Generated_Source\PSoC4/CyDMA.c **** 
1101:Generated_Source\PSoC4/CyDMA.c ****     CYASSERT((channel    >= 0) && (channel    < CYDMA_CH_NR));
 2528              		.loc 1 1101 0
 2529 000c FB68     		ldr	r3, [r7, #12]
 2530 000e 002B     		cmp	r3, #0
 2531 0010 04DB     		blt	.L248
 2532              		.loc 1 1101 0 is_stmt 0 discriminator 1
 2533 0012 FB68     		ldr	r3, [r7, #12]
 2534 0014 072B     		cmp	r3, #7
 2535 0016 01DC     		bgt	.L248
 2536              		.loc 1 1101 0 discriminator 3
 2537 0018 0123     		mov	r3, #1
ARM GAS  C:\Users\tomgm\AppData\Local\Temp\ccCBfpsG.s 			page 65


 2538 001a 00E0     		b	.L249
 2539              	.L248:
 2540              		.loc 1 1101 0 discriminator 4
 2541 001c 0023     		mov	r3, #0
 2542              	.L249:
 2543              		.loc 1 1101 0 discriminator 6
 2544 001e 002B     		cmp	r3, #0
 2545 0020 02D1     		bne	.L250
 2546              		.loc 1 1101 0 discriminator 7
 2547 0022 0020     		mov	r0, #0
 2548 0024 FFF7FEFF 		bl	CyHalt
 2549              	.L250:
1102:Generated_Source\PSoC4/CyDMA.c ****     CYASSERT((descriptor >= 0) && (descriptor < CYDMA_DESCR_NR));
 2550              		.loc 1 1102 0 is_stmt 1
 2551 0028 BB68     		ldr	r3, [r7, #8]
 2552 002a 002B     		cmp	r3, #0
 2553 002c 04DB     		blt	.L251
 2554              		.loc 1 1102 0 is_stmt 0 discriminator 1
 2555 002e BB68     		ldr	r3, [r7, #8]
 2556 0030 012B     		cmp	r3, #1
 2557 0032 01DC     		bgt	.L251
 2558              		.loc 1 1102 0 discriminator 3
 2559 0034 0123     		mov	r3, #1
 2560 0036 00E0     		b	.L252
 2561              	.L251:
 2562              		.loc 1 1102 0 discriminator 4
 2563 0038 0023     		mov	r3, #0
 2564              	.L252:
 2565              		.loc 1 1102 0 discriminator 6
 2566 003a 002B     		cmp	r3, #0
 2567 003c 02D1     		bne	.L253
 2568              		.loc 1 1102 0 discriminator 7
 2569 003e 0020     		mov	r0, #0
 2570 0040 FFF7FEFF 		bl	CyHalt
 2571              	.L253:
1103:Generated_Source\PSoC4/CyDMA.c ****     CYASSERT(0u == (transferWidth & (uint32)~CYDMA_TRANSFER_WIDTH));
 2572              		.loc 1 1103 0 is_stmt 1
 2573 0044 7B68     		ldr	r3, [r7, #4]
 2574 0046 104A     		ldr	r2, .L255
 2575 0048 1340     		and	r3, r2
 2576 004a 02D0     		beq	.L254
 2577              		.loc 1 1103 0 is_stmt 0 discriminator 1
 2578 004c 0020     		mov	r0, #0
 2579 004e FFF7FEFF 		bl	CyHalt
 2580              	.L254:
1104:Generated_Source\PSoC4/CyDMA.c **** 
1105:Generated_Source\PSoC4/CyDMA.c ****     regValue = CYDMA_DESCR_BASE.descriptor[channel][descriptor].ctl & (uint32)~CYDMA_TRANSFER_WIDTH
 2581              		.loc 1 1105 0 is_stmt 1
 2582 0052 0E49     		ldr	r1, .L255+4
 2583 0054 FB68     		ldr	r3, [r7, #12]
 2584 0056 5A00     		lsl	r2, r3, #1
 2585 0058 BB68     		ldr	r3, [r7, #8]
 2586 005a D318     		add	r3, r2, r3
 2587 005c 1B01     		lsl	r3, r3, #4
 2588 005e CB18     		add	r3, r1, r3
 2589 0060 0833     		add	r3, r3, #8
 2590 0062 1B68     		ldr	r3, [r3]
ARM GAS  C:\Users\tomgm\AppData\Local\Temp\ccCBfpsG.s 			page 66


 2591 0064 084A     		ldr	r2, .L255
 2592 0066 1340     		and	r3, r2
 2593 0068 7B61     		str	r3, [r7, #20]
1106:Generated_Source\PSoC4/CyDMA.c ****     CYDMA_DESCR_BASE.descriptor[channel][descriptor].ctl = regValue | transferWidth;
 2594              		.loc 1 1106 0
 2595 006a 0848     		ldr	r0, .L255+4
 2596 006c 7A69     		ldr	r2, [r7, #20]
 2597 006e 7B68     		ldr	r3, [r7, #4]
 2598 0070 1A43     		orr	r2, r3
 2599 0072 FB68     		ldr	r3, [r7, #12]
 2600 0074 5900     		lsl	r1, r3, #1
 2601 0076 BB68     		ldr	r3, [r7, #8]
 2602 0078 CB18     		add	r3, r1, r3
 2603 007a 1B01     		lsl	r3, r3, #4
 2604 007c C318     		add	r3, r0, r3
 2605 007e 0833     		add	r3, r3, #8
 2606 0080 1A60     		str	r2, [r3]
1107:Generated_Source\PSoC4/CyDMA.c **** }
 2607              		.loc 1 1107 0
 2608 0082 BD46     		mov	sp, r7
 2609 0084 06B0     		add	sp, sp, #24
 2610              		@ sp needed
 2611 0086 80BD     		pop	{r7, pc}
 2612              	.L256:
 2613              		.align	2
 2614              	.L255:
 2615 0088 FFFFAFFF 		.word	-5242881
 2616 008c 00181040 		.word	1074796544
 2617              		.cfi_endproc
 2618              	.LFE37:
 2619              		.size	CyDmaSetSrcDstTransferWidth, .-CyDmaSetSrcDstTransferWidth
 2620              		.section	.text.CyDmaGetSrcDstTransferWidth,"ax",%progbits
 2621              		.align	2
 2622              		.global	CyDmaGetSrcDstTransferWidth
 2623              		.code	16
 2624              		.thumb_func
 2625              		.type	CyDmaGetSrcDstTransferWidth, %function
 2626              	CyDmaGetSrcDstTransferWidth:
 2627              	.LFB38:
1108:Generated_Source\PSoC4/CyDMA.c **** 
1109:Generated_Source\PSoC4/CyDMA.c **** 
1110:Generated_Source\PSoC4/CyDMA.c **** /*******************************************************************************
1111:Generated_Source\PSoC4/CyDMA.c **** * Function Name: CyDmaGetSrcDstTransferWidth
1112:Generated_Source\PSoC4/CyDMA.c **** ********************************************************************************
1113:Generated_Source\PSoC4/CyDMA.c **** *
1114:Generated_Source\PSoC4/CyDMA.c **** * Summary:
1115:Generated_Source\PSoC4/CyDMA.c **** *  Returns the width of the source and destination, as set by 
1116:Generated_Source\PSoC4/CyDMA.c **** *  CyDmaSetSrcDstTransferWidth() or CyDmaSetConfiguration().
1117:Generated_Source\PSoC4/CyDMA.c **** *
1118:Generated_Source\PSoC4/CyDMA.c **** * Parameters:
1119:Generated_Source\PSoC4/CyDMA.c **** *  channel:    Channel used by this function.
1120:Generated_Source\PSoC4/CyDMA.c **** *  descriptor: Descriptor (0 or 1) modified by this function.
1121:Generated_Source\PSoC4/CyDMA.c **** *                   
1122:Generated_Source\PSoC4/CyDMA.c **** * Return:
1123:Generated_Source\PSoC4/CyDMA.c **** *  Width of source and destination. Refer to the API bit field definitions in
1124:Generated_Source\PSoC4/CyDMA.c **** *  CyDMA_P4.h or the API description in the DMA channel datasheet for more
1125:Generated_Source\PSoC4/CyDMA.c **** *  information.
ARM GAS  C:\Users\tomgm\AppData\Local\Temp\ccCBfpsG.s 			page 67


1126:Generated_Source\PSoC4/CyDMA.c **** *
1127:Generated_Source\PSoC4/CyDMA.c **** *******************************************************************************/
1128:Generated_Source\PSoC4/CyDMA.c **** uint32 CyDmaGetSrcDstTransferWidth(int32 channel, int32 descriptor)
1129:Generated_Source\PSoC4/CyDMA.c **** {
 2628              		.loc 1 1129 0
 2629              		.cfi_startproc
 2630 0000 80B5     		push	{r7, lr}
 2631              		.cfi_def_cfa_offset 8
 2632              		.cfi_offset 7, -8
 2633              		.cfi_offset 14, -4
 2634 0002 82B0     		sub	sp, sp, #8
 2635              		.cfi_def_cfa_offset 16
 2636 0004 00AF     		add	r7, sp, #0
 2637              		.cfi_def_cfa_register 7
 2638 0006 7860     		str	r0, [r7, #4]
 2639 0008 3960     		str	r1, [r7]
1130:Generated_Source\PSoC4/CyDMA.c ****     CYASSERT((channel    >= 0) && (channel    < CYDMA_CH_NR));
 2640              		.loc 1 1130 0
 2641 000a 7B68     		ldr	r3, [r7, #4]
 2642 000c 002B     		cmp	r3, #0
 2643 000e 04DB     		blt	.L258
 2644              		.loc 1 1130 0 is_stmt 0 discriminator 1
 2645 0010 7B68     		ldr	r3, [r7, #4]
 2646 0012 072B     		cmp	r3, #7
 2647 0014 01DC     		bgt	.L258
 2648              		.loc 1 1130 0 discriminator 3
 2649 0016 0123     		mov	r3, #1
 2650 0018 00E0     		b	.L259
 2651              	.L258:
 2652              		.loc 1 1130 0 discriminator 4
 2653 001a 0023     		mov	r3, #0
 2654              	.L259:
 2655              		.loc 1 1130 0 discriminator 6
 2656 001c 002B     		cmp	r3, #0
 2657 001e 02D1     		bne	.L260
 2658              		.loc 1 1130 0 discriminator 7
 2659 0020 0020     		mov	r0, #0
 2660 0022 FFF7FEFF 		bl	CyHalt
 2661              	.L260:
1131:Generated_Source\PSoC4/CyDMA.c ****     CYASSERT((descriptor >= 0) && (descriptor < CYDMA_DESCR_NR));
 2662              		.loc 1 1131 0 is_stmt 1
 2663 0026 3B68     		ldr	r3, [r7]
 2664 0028 002B     		cmp	r3, #0
 2665 002a 04DB     		blt	.L261
 2666              		.loc 1 1131 0 is_stmt 0 discriminator 1
 2667 002c 3B68     		ldr	r3, [r7]
 2668 002e 012B     		cmp	r3, #1
 2669 0030 01DC     		bgt	.L261
 2670              		.loc 1 1131 0 discriminator 3
 2671 0032 0123     		mov	r3, #1
 2672 0034 00E0     		b	.L262
 2673              	.L261:
 2674              		.loc 1 1131 0 discriminator 4
 2675 0036 0023     		mov	r3, #0
 2676              	.L262:
 2677              		.loc 1 1131 0 discriminator 6
 2678 0038 002B     		cmp	r3, #0
ARM GAS  C:\Users\tomgm\AppData\Local\Temp\ccCBfpsG.s 			page 68


 2679 003a 02D1     		bne	.L263
 2680              		.loc 1 1131 0 discriminator 7
 2681 003c 0020     		mov	r0, #0
 2682 003e FFF7FEFF 		bl	CyHalt
 2683              	.L263:
1132:Generated_Source\PSoC4/CyDMA.c ****     return (CYDMA_DESCR_BASE.descriptor[channel][descriptor].ctl & CYDMA_TRANSFER_WIDTH);
 2684              		.loc 1 1132 0 is_stmt 1
 2685 0042 0849     		ldr	r1, .L265
 2686 0044 7B68     		ldr	r3, [r7, #4]
 2687 0046 5A00     		lsl	r2, r3, #1
 2688 0048 3B68     		ldr	r3, [r7]
 2689 004a D318     		add	r3, r2, r3
 2690 004c 1B01     		lsl	r3, r3, #4
 2691 004e CB18     		add	r3, r1, r3
 2692 0050 0833     		add	r3, r3, #8
 2693 0052 1A68     		ldr	r2, [r3]
 2694 0054 A023     		mov	r3, #160
 2695 0056 DB03     		lsl	r3, r3, #15
 2696 0058 1340     		and	r3, r2
1133:Generated_Source\PSoC4/CyDMA.c **** }
 2697              		.loc 1 1133 0
 2698 005a 181C     		mov	r0, r3
 2699 005c BD46     		mov	sp, r7
 2700 005e 02B0     		add	sp, sp, #8
 2701              		@ sp needed
 2702 0060 80BD     		pop	{r7, pc}
 2703              	.L266:
 2704 0062 C046     		.align	2
 2705              	.L265:
 2706 0064 00181040 		.word	1074796544
 2707              		.cfi_endproc
 2708              	.LFE38:
 2709              		.size	CyDmaGetSrcDstTransferWidth, .-CyDmaGetSrcDstTransferWidth
 2710              		.section	.text.CyDmaSetAddressIncrement,"ax",%progbits
 2711              		.align	2
 2712              		.global	CyDmaSetAddressIncrement
 2713              		.code	16
 2714              		.thumb_func
 2715              		.type	CyDmaSetAddressIncrement, %function
 2716              	CyDmaSetAddressIncrement:
 2717              	.LFB39:
1134:Generated_Source\PSoC4/CyDMA.c **** 
1135:Generated_Source\PSoC4/CyDMA.c **** 
1136:Generated_Source\PSoC4/CyDMA.c **** /*******************************************************************************
1137:Generated_Source\PSoC4/CyDMA.c **** * Function Name: CyDmaSetAddressIncrement
1138:Generated_Source\PSoC4/CyDMA.c **** ********************************************************************************
1139:Generated_Source\PSoC4/CyDMA.c **** *
1140:Generated_Source\PSoC4/CyDMA.c **** * Summary:
1141:Generated_Source\PSoC4/CyDMA.c **** *  Sets whether the source or destination addresses are incremented after the
1142:Generated_Source\PSoC4/CyDMA.c **** *  transfer of each data element. The amount that the source and destination
1143:Generated_Source\PSoC4/CyDMA.c **** *  address are incremented is determined by the CyDmaSetSrcDstTransferWidth()
1144:Generated_Source\PSoC4/CyDMA.c **** *  function. The addresses will either be incremented by the data element size
1145:Generated_Source\PSoC4/CyDMA.c **** *  or by a word (4 bytes).
1146:Generated_Source\PSoC4/CyDMA.c **** *
1147:Generated_Source\PSoC4/CyDMA.c **** * Parameters:
1148:Generated_Source\PSoC4/CyDMA.c **** *  channel:          Channel used by this function.
1149:Generated_Source\PSoC4/CyDMA.c **** *  descriptor:       Descriptor (0 or 1) modified by this function.
ARM GAS  C:\Users\tomgm\AppData\Local\Temp\ccCBfpsG.s 			page 69


1150:Generated_Source\PSoC4/CyDMA.c **** *  addressIncrement: Address increment settings. Refer to the API bit fields 
1151:Generated_Source\PSoC4/CyDMA.c **** *                    definition in CyDMA_P4.h or the API description in the DMA
1152:Generated_Source\PSoC4/CyDMA.c **** *                    channel datasheet for the parameter options.
1153:Generated_Source\PSoC4/CyDMA.c **** *    
1154:Generated_Source\PSoC4/CyDMA.c **** * Return:
1155:Generated_Source\PSoC4/CyDMA.c **** *  None.
1156:Generated_Source\PSoC4/CyDMA.c **** *
1157:Generated_Source\PSoC4/CyDMA.c **** * Side effect:
1158:Generated_Source\PSoC4/CyDMA.c **** *  This function should not be called when the specified descriptor is active
1159:Generated_Source\PSoC4/CyDMA.c **** *  in the DMA transfer engine. This can be checked by calling CyDmaGetStatus(). 
1160:Generated_Source\PSoC4/CyDMA.c **** *
1161:Generated_Source\PSoC4/CyDMA.c **** *******************************************************************************/
1162:Generated_Source\PSoC4/CyDMA.c **** void CyDmaSetAddressIncrement(int32 channel, int32 descriptor, uint32 addressIncrement)
1163:Generated_Source\PSoC4/CyDMA.c **** {
 2718              		.loc 1 1163 0
 2719              		.cfi_startproc
 2720 0000 80B5     		push	{r7, lr}
 2721              		.cfi_def_cfa_offset 8
 2722              		.cfi_offset 7, -8
 2723              		.cfi_offset 14, -4
 2724 0002 86B0     		sub	sp, sp, #24
 2725              		.cfi_def_cfa_offset 32
 2726 0004 00AF     		add	r7, sp, #0
 2727              		.cfi_def_cfa_register 7
 2728 0006 F860     		str	r0, [r7, #12]
 2729 0008 B960     		str	r1, [r7, #8]
 2730 000a 7A60     		str	r2, [r7, #4]
1164:Generated_Source\PSoC4/CyDMA.c ****     uint32 regValue;
1165:Generated_Source\PSoC4/CyDMA.c **** 
1166:Generated_Source\PSoC4/CyDMA.c ****     CYASSERT((channel    >= 0) && (channel    < CYDMA_CH_NR));
 2731              		.loc 1 1166 0
 2732 000c FB68     		ldr	r3, [r7, #12]
 2733 000e 002B     		cmp	r3, #0
 2734 0010 04DB     		blt	.L268
 2735              		.loc 1 1166 0 is_stmt 0 discriminator 1
 2736 0012 FB68     		ldr	r3, [r7, #12]
 2737 0014 072B     		cmp	r3, #7
 2738 0016 01DC     		bgt	.L268
 2739              		.loc 1 1166 0 discriminator 3
 2740 0018 0123     		mov	r3, #1
 2741 001a 00E0     		b	.L269
 2742              	.L268:
 2743              		.loc 1 1166 0 discriminator 4
 2744 001c 0023     		mov	r3, #0
 2745              	.L269:
 2746              		.loc 1 1166 0 discriminator 6
 2747 001e 002B     		cmp	r3, #0
 2748 0020 02D1     		bne	.L270
 2749              		.loc 1 1166 0 discriminator 7
 2750 0022 0020     		mov	r0, #0
 2751 0024 FFF7FEFF 		bl	CyHalt
 2752              	.L270:
1167:Generated_Source\PSoC4/CyDMA.c ****     CYASSERT((descriptor >= 0) && (descriptor < CYDMA_DESCR_NR));
 2753              		.loc 1 1167 0 is_stmt 1
 2754 0028 BB68     		ldr	r3, [r7, #8]
 2755 002a 002B     		cmp	r3, #0
 2756 002c 04DB     		blt	.L271
ARM GAS  C:\Users\tomgm\AppData\Local\Temp\ccCBfpsG.s 			page 70


 2757              		.loc 1 1167 0 is_stmt 0 discriminator 1
 2758 002e BB68     		ldr	r3, [r7, #8]
 2759 0030 012B     		cmp	r3, #1
 2760 0032 01DC     		bgt	.L271
 2761              		.loc 1 1167 0 discriminator 3
 2762 0034 0123     		mov	r3, #1
 2763 0036 00E0     		b	.L272
 2764              	.L271:
 2765              		.loc 1 1167 0 discriminator 4
 2766 0038 0023     		mov	r3, #0
 2767              	.L272:
 2768              		.loc 1 1167 0 discriminator 6
 2769 003a 002B     		cmp	r3, #0
 2770 003c 02D1     		bne	.L273
 2771              		.loc 1 1167 0 discriminator 7
 2772 003e 0020     		mov	r0, #0
 2773 0040 FFF7FEFF 		bl	CyHalt
 2774              	.L273:
1168:Generated_Source\PSoC4/CyDMA.c ****     CYASSERT(0u == (addressIncrement & (uint32)~CYDMA_ADDR_INCR));
 2775              		.loc 1 1168 0 is_stmt 1
 2776 0044 7B68     		ldr	r3, [r7, #4]
 2777 0046 104A     		ldr	r2, .L275
 2778 0048 1340     		and	r3, r2
 2779 004a 02D0     		beq	.L274
 2780              		.loc 1 1168 0 is_stmt 0 discriminator 1
 2781 004c 0020     		mov	r0, #0
 2782 004e FFF7FEFF 		bl	CyHalt
 2783              	.L274:
1169:Generated_Source\PSoC4/CyDMA.c **** 
1170:Generated_Source\PSoC4/CyDMA.c ****     regValue = CYDMA_DESCR_BASE.descriptor[channel][descriptor].ctl & (uint32)~CYDMA_ADDR_INCR;
 2784              		.loc 1 1170 0 is_stmt 1
 2785 0052 0E49     		ldr	r1, .L275+4
 2786 0054 FB68     		ldr	r3, [r7, #12]
 2787 0056 5A00     		lsl	r2, r3, #1
 2788 0058 BB68     		ldr	r3, [r7, #8]
 2789 005a D318     		add	r3, r2, r3
 2790 005c 1B01     		lsl	r3, r3, #4
 2791 005e CB18     		add	r3, r1, r3
 2792 0060 0833     		add	r3, r3, #8
 2793 0062 1B68     		ldr	r3, [r3]
 2794 0064 084A     		ldr	r2, .L275
 2795 0066 1340     		and	r3, r2
 2796 0068 7B61     		str	r3, [r7, #20]
1171:Generated_Source\PSoC4/CyDMA.c ****     CYDMA_DESCR_BASE.descriptor[channel][descriptor].ctl = regValue | addressIncrement;
 2797              		.loc 1 1171 0
 2798 006a 0848     		ldr	r0, .L275+4
 2799 006c 7A69     		ldr	r2, [r7, #20]
 2800 006e 7B68     		ldr	r3, [r7, #4]
 2801 0070 1A43     		orr	r2, r3
 2802 0072 FB68     		ldr	r3, [r7, #12]
 2803 0074 5900     		lsl	r1, r3, #1
 2804 0076 BB68     		ldr	r3, [r7, #8]
 2805 0078 CB18     		add	r3, r1, r3
 2806 007a 1B01     		lsl	r3, r3, #4
 2807 007c C318     		add	r3, r0, r3
 2808 007e 0833     		add	r3, r3, #8
 2809 0080 1A60     		str	r2, [r3]
ARM GAS  C:\Users\tomgm\AppData\Local\Temp\ccCBfpsG.s 			page 71


